{
  "_format": "hh-sol-artifact-1",
  "contractName": "ClearingHouseFake",
  "sourceName": "src/mock/ClearingHouseFake.sol",
  "abi": [
    {
      "anonymous": false,
      "inputs": [
        {
          "indexed": false,
          "internalType": "uint256",
          "name": "liquidationFeeRatio",
          "type": "uint256"
        }
      ],
      "name": "LiquidationFeeRatioChanged",
      "type": "event"
    },
    {
      "anonymous": false,
      "inputs": [
        {
          "indexed": true,
          "internalType": "address",
          "name": "sender",
          "type": "address"
        },
        {
          "indexed": true,
          "internalType": "address",
          "name": "amm",
          "type": "address"
        },
        {
          "indexed": false,
          "internalType": "int256",
          "name": "amount",
          "type": "int256"
        },
        {
          "indexed": false,
          "internalType": "int256",
          "name": "fundingPayment",
          "type": "int256"
        }
      ],
      "name": "MarginChanged",
      "type": "event"
    },
    {
      "anonymous": false,
      "inputs": [
        {
          "indexed": false,
          "internalType": "uint256",
          "name": "marginRatio",
          "type": "uint256"
        }
      ],
      "name": "MarginRatioChanged",
      "type": "event"
    },
    {
      "anonymous": false,
      "inputs": [
        {
          "indexed": true,
          "internalType": "address",
          "name": "previousOwner",
          "type": "address"
        },
        {
          "indexed": true,
          "internalType": "address",
          "name": "newOwner",
          "type": "address"
        }
      ],
      "name": "OwnershipTransferred",
      "type": "event"
    },
    {
      "anonymous": false,
      "inputs": [
        {
          "indexed": false,
          "internalType": "address",
          "name": "account",
          "type": "address"
        }
      ],
      "name": "Paused",
      "type": "event"
    },
    {
      "anonymous": false,
      "inputs": [
        {
          "indexed": true,
          "internalType": "address",
          "name": "amm",
          "type": "address"
        },
        {
          "indexed": true,
          "internalType": "address",
          "name": "trader",
          "type": "address"
        },
        {
          "indexed": false,
          "internalType": "int256",
          "name": "newPositionSize",
          "type": "int256"
        },
        {
          "indexed": false,
          "internalType": "uint256",
          "name": "oldLiquidityIndex",
          "type": "uint256"
        },
        {
          "indexed": false,
          "internalType": "uint256",
          "name": "newLiquidityIndex",
          "type": "uint256"
        }
      ],
      "name": "PositionAdjusted",
      "type": "event"
    },
    {
      "anonymous": false,
      "inputs": [
        {
          "indexed": true,
          "internalType": "address",
          "name": "trader",
          "type": "address"
        },
        {
          "indexed": true,
          "internalType": "address",
          "name": "amm",
          "type": "address"
        },
        {
          "indexed": false,
          "internalType": "uint256",
          "name": "margin",
          "type": "uint256"
        },
        {
          "indexed": false,
          "internalType": "uint256",
          "name": "positionNotional",
          "type": "uint256"
        },
        {
          "indexed": false,
          "internalType": "int256",
          "name": "exchangedPositionSize",
          "type": "int256"
        },
        {
          "indexed": false,
          "internalType": "uint256",
          "name": "fee",
          "type": "uint256"
        },
        {
          "indexed": false,
          "internalType": "int256",
          "name": "positionSizeAfter",
          "type": "int256"
        },
        {
          "indexed": false,
          "internalType": "int256",
          "name": "realizedPnl",
          "type": "int256"
        },
        {
          "indexed": false,
          "internalType": "int256",
          "name": "unrealizedPnlAfter",
          "type": "int256"
        },
        {
          "indexed": false,
          "internalType": "uint256",
          "name": "badDebt",
          "type": "uint256"
        },
        {
          "indexed": false,
          "internalType": "uint256",
          "name": "liquidationPenalty",
          "type": "uint256"
        },
        {
          "indexed": false,
          "internalType": "uint256",
          "name": "spotPrice",
          "type": "uint256"
        },
        {
          "indexed": false,
          "internalType": "int256",
          "name": "fundingPayment",
          "type": "int256"
        }
      ],
      "name": "PositionChanged",
      "type": "event"
    },
    {
      "anonymous": false,
      "inputs": [
        {
          "indexed": true,
          "internalType": "address",
          "name": "trader",
          "type": "address"
        },
        {
          "indexed": true,
          "internalType": "address",
          "name": "amm",
          "type": "address"
        },
        {
          "indexed": false,
          "internalType": "uint256",
          "name": "positionNotional",
          "type": "uint256"
        },
        {
          "indexed": false,
          "internalType": "uint256",
          "name": "positionSize",
          "type": "uint256"
        },
        {
          "indexed": false,
          "internalType": "uint256",
          "name": "liquidationFee",
          "type": "uint256"
        },
        {
          "indexed": false,
          "internalType": "address",
          "name": "liquidator",
          "type": "address"
        },
        {
          "indexed": false,
          "internalType": "uint256",
          "name": "badDebt",
          "type": "uint256"
        }
      ],
      "name": "PositionLiquidated",
      "type": "event"
    },
    {
      "anonymous": false,
      "inputs": [
        {
          "indexed": true,
          "internalType": "address",
          "name": "amm",
          "type": "address"
        },
        {
          "indexed": true,
          "internalType": "address",
          "name": "trader",
          "type": "address"
        },
        {
          "indexed": false,
          "internalType": "uint256",
          "name": "valueTransferred",
          "type": "uint256"
        }
      ],
      "name": "PositionSettled",
      "type": "event"
    },
    {
      "anonymous": false,
      "inputs": [
        {
          "indexed": true,
          "internalType": "bytes32",
          "name": "referralCode",
          "type": "bytes32"
        }
      ],
      "name": "ReferredPositionChanged",
      "type": "event"
    },
    {
      "anonymous": false,
      "inputs": [
        {
          "indexed": false,
          "internalType": "address",
          "name": "amm",
          "type": "address"
        },
        {
          "indexed": false,
          "internalType": "uint256",
          "name": "blockNumber",
          "type": "uint256"
        }
      ],
      "name": "RestrictionModeEntered",
      "type": "event"
    },
    {
      "anonymous": false,
      "inputs": [
        {
          "indexed": false,
          "internalType": "address",
          "name": "account",
          "type": "address"
        }
      ],
      "name": "Unpaused",
      "type": "event"
    },
    {
      "inputs": [
        {
          "internalType": "contract IAmm",
          "name": "_amm",
          "type": "address"
        },
        {
          "components": [
            {
              "internalType": "uint256",
              "name": "d",
              "type": "uint256"
            }
          ],
          "internalType": "struct Decimal.decimal",
          "name": "_addedMargin",
          "type": "tuple"
        }
      ],
      "name": "addMargin",
      "outputs": [],
      "stateMutability": "nonpayable",
      "type": "function"
    },
    {
      "inputs": [
        {
          "internalType": "contract IAmm",
          "name": "_amm",
          "type": "address"
        }
      ],
      "name": "adjustPosition",
      "outputs": [],
      "stateMutability": "nonpayable",
      "type": "function"
    },
    {
      "inputs": [],
      "name": "candidate",
      "outputs": [
        {
          "internalType": "address",
          "name": "",
          "type": "address"
        }
      ],
      "stateMutability": "view",
      "type": "function"
    },
    {
      "inputs": [
        {
          "internalType": "contract IAmm",
          "name": "_amm",
          "type": "address"
        },
        {
          "components": [
            {
              "internalType": "uint256",
              "name": "d",
              "type": "uint256"
            }
          ],
          "internalType": "struct Decimal.decimal",
          "name": "_quoteAssetAmountLimit",
          "type": "tuple"
        }
      ],
      "name": "closePosition",
      "outputs": [],
      "stateMutability": "nonpayable",
      "type": "function"
    },
    {
      "inputs": [
        {
          "internalType": "contract IAmm",
          "name": "_amm",
          "type": "address"
        },
        {
          "components": [
            {
              "internalType": "uint256",
              "name": "d",
              "type": "uint256"
            }
          ],
          "internalType": "struct Decimal.decimal",
          "name": "_quoteAssetAmountLimit",
          "type": "tuple"
        },
        {
          "internalType": "bytes32",
          "name": "_referralCode",
          "type": "bytes32"
        }
      ],
      "name": "closePositionWithReferral",
      "outputs": [],
      "stateMutability": "nonpayable",
      "type": "function"
    },
    {
      "inputs": [],
      "name": "feePool",
      "outputs": [
        {
          "internalType": "contract IMultiTokenRewardRecipient",
          "name": "",
          "type": "address"
        }
      ],
      "stateMutability": "view",
      "type": "function"
    },
    {
      "inputs": [
        {
          "internalType": "contract IAmm",
          "name": "_amm",
          "type": "address"
        }
      ],
      "name": "getLatestCumulativePremiumFraction",
      "outputs": [
        {
          "components": [
            {
              "internalType": "int256",
              "name": "d",
              "type": "int256"
            }
          ],
          "internalType": "struct SignedDecimal.signedDecimal",
          "name": "",
          "type": "tuple"
        }
      ],
      "stateMutability": "view",
      "type": "function"
    },
    {
      "inputs": [
        {
          "internalType": "contract IAmm",
          "name": "_amm",
          "type": "address"
        },
        {
          "internalType": "address",
          "name": "_trader",
          "type": "address"
        }
      ],
      "name": "getMarginRatio",
      "outputs": [
        {
          "components": [
            {
              "internalType": "int256",
              "name": "d",
              "type": "int256"
            }
          ],
          "internalType": "struct SignedDecimal.signedDecimal",
          "name": "",
          "type": "tuple"
        }
      ],
      "stateMutability": "view",
      "type": "function"
    },
    {
      "inputs": [
        {
          "internalType": "contract IAmm",
          "name": "_amm",
          "type": "address"
        },
        {
          "internalType": "address",
          "name": "_trader",
          "type": "address"
        }
      ],
      "name": "getPosition",
      "outputs": [
        {
          "components": [
            {
              "components": [
                {
                  "internalType": "int256",
                  "name": "d",
                  "type": "int256"
                }
              ],
              "internalType": "struct SignedDecimal.signedDecimal",
              "name": "size",
              "type": "tuple"
            },
            {
              "components": [
                {
                  "internalType": "uint256",
                  "name": "d",
                  "type": "uint256"
                }
              ],
              "internalType": "struct Decimal.decimal",
              "name": "margin",
              "type": "tuple"
            },
            {
              "components": [
                {
                  "internalType": "uint256",
                  "name": "d",
                  "type": "uint256"
                }
              ],
              "internalType": "struct Decimal.decimal",
              "name": "openNotional",
              "type": "tuple"
            },
            {
              "components": [
                {
                  "internalType": "int256",
                  "name": "d",
                  "type": "int256"
                }
              ],
              "internalType": "struct SignedDecimal.signedDecimal",
              "name": "lastUpdatedCumulativePremiumFraction",
              "type": "tuple"
            },
            {
              "internalType": "uint256",
              "name": "liquidityHistoryIndex",
              "type": "uint256"
            },
            {
              "internalType": "uint256",
              "name": "blockNumber",
              "type": "uint256"
            }
          ],
          "internalType": "struct ClearingHouse.Position",
          "name": "",
          "type": "tuple"
        }
      ],
      "stateMutability": "view",
      "type": "function"
    },
    {
      "inputs": [
        {
          "internalType": "contract IAmm",
          "name": "_amm",
          "type": "address"
        },
        {
          "internalType": "address",
          "name": "_trader",
          "type": "address"
        },
        {
          "internalType": "enum ClearingHouse.PnlCalcOption",
          "name": "_pnlCalcOption",
          "type": "uint8"
        }
      ],
      "name": "getPositionNotionalAndUnrealizedPnl",
      "outputs": [
        {
          "components": [
            {
              "internalType": "uint256",
              "name": "d",
              "type": "uint256"
            }
          ],
          "internalType": "struct Decimal.decimal",
          "name": "positionNotional",
          "type": "tuple"
        },
        {
          "components": [
            {
              "internalType": "int256",
              "name": "d",
              "type": "int256"
            }
          ],
          "internalType": "struct SignedDecimal.signedDecimal",
          "name": "unrealizedPnl",
          "type": "tuple"
        }
      ],
      "stateMutability": "view",
      "type": "function"
    },
    {
      "inputs": [
        {
          "internalType": "address",
          "name": "_token",
          "type": "address"
        }
      ],
      "name": "getPrepaidBadDebt",
      "outputs": [
        {
          "components": [
            {
              "internalType": "uint256",
              "name": "d",
              "type": "uint256"
            }
          ],
          "internalType": "struct Decimal.decimal",
          "name": "",
          "type": "tuple"
        }
      ],
      "stateMutability": "view",
      "type": "function"
    },
    {
      "inputs": [
        {
          "internalType": "contract IAmm",
          "name": "_amm",
          "type": "address"
        },
        {
          "internalType": "address",
          "name": "_trader",
          "type": "address"
        }
      ],
      "name": "getUnadjustedPosition",
      "outputs": [
        {
          "components": [
            {
              "components": [
                {
                  "internalType": "int256",
                  "name": "d",
                  "type": "int256"
                }
              ],
              "internalType": "struct SignedDecimal.signedDecimal",
              "name": "size",
              "type": "tuple"
            },
            {
              "components": [
                {
                  "internalType": "uint256",
                  "name": "d",
                  "type": "uint256"
                }
              ],
              "internalType": "struct Decimal.decimal",
              "name": "margin",
              "type": "tuple"
            },
            {
              "components": [
                {
                  "internalType": "uint256",
                  "name": "d",
                  "type": "uint256"
                }
              ],
              "internalType": "struct Decimal.decimal",
              "name": "openNotional",
              "type": "tuple"
            },
            {
              "components": [
                {
                  "internalType": "int256",
                  "name": "d",
                  "type": "int256"
                }
              ],
              "internalType": "struct SignedDecimal.signedDecimal",
              "name": "lastUpdatedCumulativePremiumFraction",
              "type": "tuple"
            },
            {
              "internalType": "uint256",
              "name": "liquidityHistoryIndex",
              "type": "uint256"
            },
            {
              "internalType": "uint256",
              "name": "blockNumber",
              "type": "uint256"
            }
          ],
          "internalType": "struct ClearingHouse.Position",
          "name": "position",
          "type": "tuple"
        }
      ],
      "stateMutability": "view",
      "type": "function"
    },
    {
      "inputs": [],
      "name": "initMarginRatio",
      "outputs": [
        {
          "internalType": "uint256",
          "name": "d",
          "type": "uint256"
        }
      ],
      "stateMutability": "view",
      "type": "function"
    },
    {
      "inputs": [
        {
          "internalType": "uint256",
          "name": "_initMarginRatio",
          "type": "uint256"
        },
        {
          "internalType": "uint256",
          "name": "_maintenanceMarginRatio",
          "type": "uint256"
        },
        {
          "internalType": "uint256",
          "name": "_liquidationFeeRatio",
          "type": "uint256"
        },
        {
          "internalType": "contract IInsuranceFund",
          "name": "_insuranceFund",
          "type": "address"
        },
        {
          "internalType": "address",
          "name": "_trustedForwarder",
          "type": "address"
        }
      ],
      "name": "initialize",
      "outputs": [],
      "stateMutability": "nonpayable",
      "type": "function"
    },
    {
      "inputs": [],
      "name": "insuranceFund",
      "outputs": [
        {
          "internalType": "contract IInsuranceFund",
          "name": "",
          "type": "address"
        }
      ],
      "stateMutability": "view",
      "type": "function"
    },
    {
      "inputs": [
        {
          "internalType": "address",
          "name": "_amm",
          "type": "address"
        },
        {
          "internalType": "uint256",
          "name": "_block",
          "type": "uint256"
        }
      ],
      "name": "isInRestrictMode",
      "outputs": [
        {
          "internalType": "bool",
          "name": "",
          "type": "bool"
        }
      ],
      "stateMutability": "view",
      "type": "function"
    },
    {
      "inputs": [
        {
          "internalType": "address",
          "name": "forwarder",
          "type": "address"
        }
      ],
      "name": "isTrustedForwarder",
      "outputs": [
        {
          "internalType": "bool",
          "name": "",
          "type": "bool"
        }
      ],
      "stateMutability": "view",
      "type": "function"
    },
    {
      "inputs": [
        {
          "internalType": "contract IAmm",
          "name": "_amm",
          "type": "address"
        },
        {
          "internalType": "address",
          "name": "_trader",
          "type": "address"
        }
      ],
      "name": "liquidate",
      "outputs": [],
      "stateMutability": "nonpayable",
      "type": "function"
    },
    {
      "inputs": [],
      "name": "liquidationFeeRatio",
      "outputs": [
        {
          "internalType": "uint256",
          "name": "d",
          "type": "uint256"
        }
      ],
      "stateMutability": "view",
      "type": "function"
    },
    {
      "inputs": [],
      "name": "maintenanceMarginRatio",
      "outputs": [
        {
          "internalType": "uint256",
          "name": "d",
          "type": "uint256"
        }
      ],
      "stateMutability": "view",
      "type": "function"
    },
    {
      "inputs": [
        {
          "internalType": "contract IAmm",
          "name": "_amm",
          "type": "address"
        }
      ],
      "name": "mockSetRestrictionMode",
      "outputs": [],
      "stateMutability": "nonpayable",
      "type": "function"
    },
    {
      "inputs": [],
      "name": "mock_getCurrentBlockNumber",
      "outputs": [
        {
          "internalType": "uint256",
          "name": "",
          "type": "uint256"
        }
      ],
      "stateMutability": "view",
      "type": "function"
    },
    {
      "inputs": [
        {
          "internalType": "uint256",
          "name": "_number",
          "type": "uint256"
        }
      ],
      "name": "mock_setBlockNumber",
      "outputs": [],
      "stateMutability": "nonpayable",
      "type": "function"
    },
    {
      "inputs": [
        {
          "internalType": "uint256",
          "name": "_timestamp",
          "type": "uint256"
        }
      ],
      "name": "mock_setBlockTimestamp",
      "outputs": [],
      "stateMutability": "nonpayable",
      "type": "function"
    },
    {
      "inputs": [
        {
          "internalType": "address",
          "name": "",
          "type": "address"
        }
      ],
      "name": "openInterestNotionalMap",
      "outputs": [
        {
          "internalType": "uint256",
          "name": "d",
          "type": "uint256"
        }
      ],
      "stateMutability": "view",
      "type": "function"
    },
    {
      "inputs": [
        {
          "internalType": "contract IAmm",
          "name": "_amm",
          "type": "address"
        },
        {
          "internalType": "enum ClearingHouse.Side",
          "name": "_side",
          "type": "uint8"
        },
        {
          "components": [
            {
              "internalType": "uint256",
              "name": "d",
              "type": "uint256"
            }
          ],
          "internalType": "struct Decimal.decimal",
          "name": "_quoteAssetAmount",
          "type": "tuple"
        },
        {
          "components": [
            {
              "internalType": "uint256",
              "name": "d",
              "type": "uint256"
            }
          ],
          "internalType": "struct Decimal.decimal",
          "name": "_leverage",
          "type": "tuple"
        },
        {
          "components": [
            {
              "internalType": "uint256",
              "name": "d",
              "type": "uint256"
            }
          ],
          "internalType": "struct Decimal.decimal",
          "name": "_baseAssetAmountLimit",
          "type": "tuple"
        }
      ],
      "name": "openPosition",
      "outputs": [],
      "stateMutability": "nonpayable",
      "type": "function"
    },
    {
      "inputs": [
        {
          "internalType": "contract IAmm",
          "name": "_amm",
          "type": "address"
        },
        {
          "internalType": "enum ClearingHouse.Side",
          "name": "_side",
          "type": "uint8"
        },
        {
          "components": [
            {
              "internalType": "uint256",
              "name": "d",
              "type": "uint256"
            }
          ],
          "internalType": "struct Decimal.decimal",
          "name": "_quoteAssetAmount",
          "type": "tuple"
        },
        {
          "components": [
            {
              "internalType": "uint256",
              "name": "d",
              "type": "uint256"
            }
          ],
          "internalType": "struct Decimal.decimal",
          "name": "_leverage",
          "type": "tuple"
        },
        {
          "components": [
            {
              "internalType": "uint256",
              "name": "d",
              "type": "uint256"
            }
          ],
          "internalType": "struct Decimal.decimal",
          "name": "_baseAssetAmountLimit",
          "type": "tuple"
        },
        {
          "internalType": "bytes32",
          "name": "_referralCode",
          "type": "bytes32"
        }
      ],
      "name": "openPositionWithReferral",
      "outputs": [],
      "stateMutability": "nonpayable",
      "type": "function"
    },
    {
      "inputs": [],
      "name": "owner",
      "outputs": [
        {
          "internalType": "address",
          "name": "",
          "type": "address"
        }
      ],
      "stateMutability": "view",
      "type": "function"
    },
    {
      "inputs": [],
      "name": "partialLiquidationRatio",
      "outputs": [
        {
          "internalType": "uint256",
          "name": "d",
          "type": "uint256"
        }
      ],
      "stateMutability": "view",
      "type": "function"
    },
    {
      "inputs": [],
      "name": "pause",
      "outputs": [],
      "stateMutability": "nonpayable",
      "type": "function"
    },
    {
      "inputs": [],
      "name": "paused",
      "outputs": [
        {
          "internalType": "bool",
          "name": "",
          "type": "bool"
        }
      ],
      "stateMutability": "view",
      "type": "function"
    },
    {
      "inputs": [
        {
          "internalType": "contract IAmm",
          "name": "_amm",
          "type": "address"
        }
      ],
      "name": "payFunding",
      "outputs": [],
      "stateMutability": "nonpayable",
      "type": "function"
    },
    {
      "inputs": [
        {
          "internalType": "contract IAmm",
          "name": "_amm",
          "type": "address"
        },
        {
          "components": [
            {
              "internalType": "uint256",
              "name": "d",
              "type": "uint256"
            }
          ],
          "internalType": "struct Decimal.decimal",
          "name": "_removedMargin",
          "type": "tuple"
        }
      ],
      "name": "removeMargin",
      "outputs": [],
      "stateMutability": "nonpayable",
      "type": "function"
    },
    {
      "inputs": [],
      "name": "renounceOwnership",
      "outputs": [],
      "stateMutability": "nonpayable",
      "type": "function"
    },
    {
      "inputs": [
        {
          "components": [
            {
              "internalType": "uint256",
              "name": "d",
              "type": "uint256"
            }
          ],
          "internalType": "struct Decimal.decimal",
          "name": "_liquidationFeeRatio",
          "type": "tuple"
        }
      ],
      "name": "setLiquidationFeeRatio",
      "outputs": [],
      "stateMutability": "nonpayable",
      "type": "function"
    },
    {
      "inputs": [
        {
          "components": [
            {
              "internalType": "uint256",
              "name": "d",
              "type": "uint256"
            }
          ],
          "internalType": "struct Decimal.decimal",
          "name": "_maintenanceMarginRatio",
          "type": "tuple"
        }
      ],
      "name": "setMaintenanceMarginRatio",
      "outputs": [],
      "stateMutability": "nonpayable",
      "type": "function"
    },
    {
      "inputs": [
        {
          "internalType": "address",
          "name": "newOwner",
          "type": "address"
        }
      ],
      "name": "setOwner",
      "outputs": [],
      "stateMutability": "nonpayable",
      "type": "function"
    },
    {
      "inputs": [
        {
          "components": [
            {
              "internalType": "uint256",
              "name": "d",
              "type": "uint256"
            }
          ],
          "internalType": "struct Decimal.decimal",
          "name": "_ratio",
          "type": "tuple"
        }
      ],
      "name": "setPartialLiquidationRatio",
      "outputs": [],
      "stateMutability": "nonpayable",
      "type": "function"
    },
    {
      "inputs": [
        {
          "internalType": "address",
          "name": "_feePool",
          "type": "address"
        }
      ],
      "name": "setTollPool",
      "outputs": [],
      "stateMutability": "nonpayable",
      "type": "function"
    },
    {
      "inputs": [
        {
          "internalType": "address",
          "name": "_whitelist",
          "type": "address"
        }
      ],
      "name": "setWhitelist",
      "outputs": [],
      "stateMutability": "nonpayable",
      "type": "function"
    },
    {
      "inputs": [
        {
          "internalType": "contract IAmm",
          "name": "_amm",
          "type": "address"
        }
      ],
      "name": "settlePosition",
      "outputs": [],
      "stateMutability": "nonpayable",
      "type": "function"
    },
    {
      "inputs": [],
      "name": "trustedForwarder",
      "outputs": [
        {
          "internalType": "address",
          "name": "",
          "type": "address"
        }
      ],
      "stateMutability": "view",
      "type": "function"
    },
    {
      "inputs": [],
      "name": "unpause",
      "outputs": [],
      "stateMutability": "nonpayable",
      "type": "function"
    },
    {
      "inputs": [],
      "name": "updateOwner",
      "outputs": [],
      "stateMutability": "nonpayable",
      "type": "function"
    },
    {
      "inputs": [],
      "name": "versionRecipient",
      "outputs": [
        {
          "internalType": "string",
          "name": "",
          "type": "string"
        }
      ],
      "stateMutability": "view",
      "type": "function"
    }
  ],
  "bytecode": "0x6080604052635611c2306101d2556127116101d35534801561002057600080fd5b5061668b80620000316000396000f3fe608060405234801561001057600080fd5b506004361061027e5760003560e01c80637b25e9221161015c5780639432665a116100ce578063b33dc19011610087578063b33dc1901461054b578063b79023031461055e578063bc5920ba14610566578063cfe711031461056e578063e57d563614610576578063ea0a45f91461057e5761027e565b80639432665a146104e4578063a8c1b0bc146104f7578063aab954d01461050a578063ac06a96e1461051d578063ae2e933b14610530578063b0ac5f2f146105385761027e565b8063854cff2f11610120578063854cff2f1461046f578063862c04e31461048257806386b9d81f14610495578063893d242d146104a85780638bedf3bb146104bb5780638da5cb5b146104dc5761027e565b80637b25e922146104315780637c845dd9146104445780637da0a8771461045757806383acb48a1461045f5780638456cb59146104675761027e565b80633e810714116101f5578063572b6c05116101b9578063572b6c05146103c65780635c975abb146103e65780636891397b146103ee5780636c127446146104015780636c8381f814610414578063715018a6146104295761027e565b80633e810714146103635780633f4ba83a1461037657806340c5dc671461037e578063486ff0cd1461039e5780635559c775146103b35761027e565b806313af40351161024757806313af4035146102f1578063203b3788146103045780632db33aa11461031757806330e2ae651461032a578063364052571461033d5780633e09fa10146103505761027e565b8062c141b6146102835780630475db5a14610298578063090f05c2146102c157806309338383146102d657806310b6e44b146102de575b600080fd5b610296610291366004615aee565b610591565b005b6102ab6102a6366004615805565b610597565b6040516102b891906164b3565b60405180910390f35b6102c9610633565b6040516102b8919061652c565b6102c961063a565b6102966102ec36600461579e565b61064a565b6102966102ff36600461579e565b610656565b610296610312366004615a8d565b610738565b61029661032536600461579e565b6107c6565b61029661033836600461596e565b6107db565b61029661034b36600461579e565b610a37565b61029661035e36600461579e565b610cbd565b6102966103713660046159a3565b610f36565b610296610f80565b61039161038c36600461579e565b610fbf565b6040516102b891906164fb565b6103a6610ff7565b6040516102b89190615cc7565b6102966103c136600461588a565b611086565b6103d96103d436600461579e565b6110f2565b6040516102b89190615bee565b6103d9611107565b6103916103fc36600461579e565b611110565b61029661040f366004615a8d565b61118e565b61041c611204565b6040516102b89190615b9d565b610296611213565b61029661043f36600461579e565b611292565b6103d96104523660046157ba565b6112ea565b61041c61130d565b6102c961131d565b610296611324565b61029661047d36600461579e565b611361565b610296610490366004615a8d565b6113b9565b6102966104a3366004615805565b611430565b6102966104b6366004615900565b611b41565b6104ce6104c936600461583d565b611f05565b6040516102b8929190616505565b61041c612117565b6102966104f2366004615aee565b612126565b6102966105053660046159e1565b61212c565b610296610518366004615b1e565b612565565b61029661052b36600461596e565b6126b8565b61041c61286b565b6102c961054636600461579e565b61287b565b6102ab610559366004615805565b61288e565b61041c612958565b610296612968565b6102c9612a2b565b6102c9612a32565b61039161058c366004615805565b612a39565b6101d355565b61059f6155c3565b506001600160a01b03918216600090815261019a602090815260408083209390941682526002928301815290839020835160e081018552815460c082019081528152845180840186526001830154815281840152845180840186529382015484528085019390935283519182019093526003830154815260608201526004820154608082015260059091015460a082015290565b6101d15481565b6000610644612af1565b90505b90565b61065381612af8565b50565b61065e612b5f565b6098546001600160a01b039081169116146106945760405162461bcd60e51b815260040161068b906163b4565b60405180910390fd5b6001600160a01b0381166106ba5760405162461bcd60e51b815260040161068b90616171565b6098546001600160a01b03828116911614156106e85760405162461bcd60e51b815260040161068b9061646d565b6099546001600160a01b03828116911614156107165760405162461bcd60e51b815260040161068b90615e6a565b609980546001600160a01b0319166001600160a01b0392909216919091179055565b610740612b5f565b6098546001600160a01b0390811691161461076d5760405162461bcd60e51b815260040161068b906163b4565b805161019881905560408051602081019091529081527f6f825f18b787836f7cf974799b160538ab237aa0d14af3611fa69683a40c6d22906107ae90612b69565b6040516107bb919061652c565b60405180910390a150565b6107d7816107d2612b5f565b612b6d565b5050565b60cc5460ff16156107fe5760405162461bcd60e51b815260040161068b90615fe8565b6101305460ff166108215760405162461bcd60e51b815260040161068b90616436565b610130805460ff19169055610837826001612c83565b61084e61084936839003830183615a8d565b612e0b565b6000610858612b5f565b90506108626155c3565b61086c8483612b6d565b9050610876615611565b61089f60001961089361088e36889003880188615a8d565b612e30565b9063ffffffff612e9416565b90506108a9615611565b6108b1615611565b6108b9615611565b6108c1615611565b6108cc898787612ebf565b93509350935093506108dd83612b69565b156108fa5760405162461bcd60e51b815260040161068b90615d9e565b6020860184905260608601819052610913898888612f82565b6109386109208a89612a39565b60408051602081019091526101965481526001612fec565b6109c1896001600160a01b031663fdf262b76040518163ffffffff1660e01b815260040160206040518083038186803b15801561097457600080fd5b505afa158015610988573d6000803e3d6000fd5b505050506040513d601f19601f820116820180604052508101906109ac9190615a0d565b886109bc368c90038c018c615a8d565b613039565b886001600160a01b0316876001600160a01b03167f1c822fe92555a7e529201522fbd166b03a55712d945737f4cc5c1e18199caa7b6109ff88612b69565b610a0886612b69565b604051610a16929190615ca3565b60405180910390a35050610130805460ff1916600117905550505050505050565b6101305460ff16610a5a5760405162461bcd60e51b815260040161068b90616436565b610130805460ff19169055610a70816000612c83565b6000610a7a612b5f565b9050610a846155c3565b610a8e838361288e565b9050610a9d8160000151613142565b610aa78383613167565b610aaf615611565b836001600160a01b031663ec2c0e636040518163ffffffff1660e01b815260040160206040518083038186803b158015610ae857600080fd5b505afa158015610afc573d6000803e3d6000fd5b505050506040513d601f19601f82011682018060405250810190610b209190615aa8565b9050610b2a615611565b610b3382612b69565b610b4257506020820151610bc9565b610b4a615611565b610ba88460200151610b9c610b8e610b79610b688960000151613221565b60408a01519063ffffffff61324f16565b610b8288612e30565b9063ffffffff61327216565b87519063ffffffff6132e716565b9063ffffffff61330a16565b90506000610bb582612b69565b1315610bc757610bc481613221565b91505b505b6000610bd482612b69565b1115610c5557610c55856001600160a01b031663fdf262b76040518163ffffffff1660e01b815260040160206040518083038186803b158015610c1657600080fd5b505afa158015610c2a573d6000803e3d6000fd5b505050506040513d601f19601f82011682018060405250810190610c4e9190615a0d565b8583613375565b836001600160a01b0316856001600160a01b03167fba70e8457921bdd49042182753cb6259c62f923e2b64216b68372cd85ec3af6c610c9384612b69565b604051610ca0919061652c565b60405180910390a35050610130805460ff19166001179055505050565b610cc8816001612c83565b610cd0615611565b816001600160a01b031663ed83d79c6040518163ffffffff1660e01b8152600401602060405180830381600087803b158015610d0b57600080fd5b505af1158015610d1f573d6000803e3d6000fd5b505050506040513d601f19601f82011682018060405250810190610d439190615aa8565b6001600160a01b038316600090815261019a60205260409020909150600101610d7b610d6e84611110565b839063ffffffff6134a416565b8154600181018355600092835260209092209051910155610d9a615611565b826001600160a01b0316632f8488596040518163ffffffff1660e01b815260040160206040518083038186803b158015610dd357600080fd5b505afa158015610de7573d6000803e3d6000fd5b505050506040513d601f19601f82011682018060405250810190610e0b9190615aa8565b9050610e15615611565b610e25838363ffffffff6132e716565b90506000846001600160a01b031663fdf262b76040518163ffffffff1660e01b815260040160206040518083038186803b158015610e6257600080fd5b505afa158015610e76573d6000803e3d6000fd5b505050506040513d601f19601f82011682018060405250810190610e9a9190615a0d565b90506000610ea783612b69565b1215610f1d5761019c546001600160a01b031663252978b882610ec985613221565b6040518363ffffffff1660e01b8152600401610ee6929190615bf9565b600060405180830381600087803b158015610f0057600080fd5b505af1158015610f14573d6000803e3d6000fd5b50505050610f2f565b610f2f81610f2a84613221565b6134c7565b5050505050565b610f498361050536859003850185615a8d565b8015610f7b5760405181907f09a07769667a46c2b89124a4d731c76fb5203061073aec16319ba9c6a79a324890600090a25b505050565b610f88612b5f565b6098546001600160a01b03908116911614610fb55760405162461bcd60e51b815260040161068b906163b4565b610fbd613513565b565b610fc7615611565b506001600160a01b038116600090815261019b60209081526040918290208251918201909252905481525b919050565b610195805460408051602060026001851615610100026000190190941693909304601f8101849004840282018401909252818152929183018282801561107e5780601f106110535761010080835404028352916020019161107e565b820191906000526020600020905b81548152906001019060200180831161106157829003601f168201915b505050505081565b6110b8868661109a36889003880188615a8d565b6110a936889003880188615a8d565b6104b636889003880188615a8d565b80156110ea5760405181907f09a07769667a46c2b89124a4d731c76fb5203061073aec16319ba9c6a79a324890600090a25b505050505050565b610194546001600160a01b0390811691161490565b60cc5460ff1690565b611118615611565b6001600160a01b038216600090815261019a60205260409020600101548015611188576001600160a01b038316600090815261019a602052604090206001018054600019830190811061116757fe5b6000918252602091829020604080519384019052015481529150610ff29050565b50919050565b611196612b5f565b6098546001600160a01b039081169116146111c35760405162461bcd60e51b815260040161068b906163b4565b805161019781905560408051602081019091529081527fce738a6382894b012492e42016c4321ac69da80c4827f80a2e0907585818ac31906107ae90612b69565b6099546001600160a01b031690565b61121b612b5f565b6098546001600160a01b039081169116146112485760405162461bcd60e51b815260040161068b906163b4565b6098546040516000916001600160a01b0316907f8be0079c531659141344cd1fd0a4f28419497f9722a3daafe3b4186f6b6457e0908390a3609880546001600160a01b0319169055565b61129a612b5f565b6098546001600160a01b039081169116146112c75760405162461bcd60e51b815260040161068b906163b4565b61019d80546001600160a01b0319166001600160a01b0392909216919091179055565b6001600160a01b038216600090815261019a602052604090205481145b92915050565b610194546001600160a01b031681565b6101975481565b61132c612b5f565b6098546001600160a01b039081169116146113595760405162461bcd60e51b815260040161068b906163b4565b610fbd61357f565b611369612b5f565b6098546001600160a01b039081169116146113965760405162461bcd60e51b815260040161068b906163b4565b61019e80546001600160a01b0319166001600160a01b0392909216919091179055565b6113c1612b5f565b6098546001600160a01b039081169116146113ee5760405162461bcd60e51b815260040161068b906163b4565b60006114086113fb6135d8565b839063ffffffff6135fc16565b60000b13156114295760405162461bcd60e51b815260040161068b90616130565b516101d155565b6101305460ff166114535760405162461bcd60e51b815260040161068b90616436565b610130805460ff19169055611469826001612c83565b611471615611565b61147b8383612a39565b9050826001600160a01b0316639e0103626040518163ffffffff1660e01b815260040160206040518083038186803b1580156114b657600080fd5b505afa1580156114ca573d6000803e3d6000fd5b505050506040513d601f19601f820116820180604052508101906114ee91906157e5565b1561152d576114fb615611565b611505848461362d565b9050600061152161151c838563ffffffff61368c16565b612b69565b131561152b578091505b505b604080516020810190915261019754815261154b9082906000612fec565b6115558383612b6d565b5061155e615624565b611566615611565b61156e615611565b611576615611565b61157e615611565b6000886001600160a01b031663fdf262b76040518163ffffffff1660e01b815260040160206040518083038186803b1580156115b957600080fd5b505afa1580156115cd573d6000803e3d6000fd5b505050506040513d601f19601f820116820180604052508101906115f19190615a0d565b604080516020810190915261019854815290915061160e90612b69565b61161788612b69565b13801561164e5750600061164961162c6135d8565b60408051602081019091526101d15481529063ffffffff6135fc16565b60000b125b8015611672575060408051602081019091526101d154815261166f90612b69565b15155b156118195761167f6155c3565b6116898a8a61288e565b9050611693615611565b8a6001600160a01b031663da0c592760006116b18560000151612b69565b136116bd5760016116c0565b60005b60408051602081019091526101d154815285516116ec916116e7919063ffffffff6136af16565b613221565b6040518363ffffffff1660e01b8152600401611709929190615c13565b60206040518083038186803b15801561172157600080fd5b505afa158015611735573d6000803e3d6000fd5b505050506040513d601f19601f820116820180604052508101906117599190615aa8565b90506117968b600061176e8560000151612b69565b1361177a57600061177d565b60015b8c846117876135d8565b61178f613720565b600161373b565b604080516020808201909252610198548152908201519199506117bf919063ffffffff61398e16565b96506117d287600263ffffffff6139b116565b94506117e4878663ffffffff6139d316565b8851602001519094506117fd908863ffffffff6139d316565b8851602001528751611812908c908c90612f82565b5050611925565b611823898961288e565b60200151945061183b8989611836613720565b6139f6565b9550611845615611565b6118528760c00151613221565b6040805160208082019092526101985481529089015191925061188e91600291611882919063ffffffff61398e16565b9063ffffffff6139b116565b9350611898615611565b5060408701516118a782612b69565b6118b086612b69565b11156118df576118c6858363ffffffff6139d316565b95506118d8818763ffffffff613b9016565b90506118f2565b6118ef828663ffffffff6139d316565b91505b60006118fd82612b69565b111561190d5761190d8382613bb3565b600061191883612b69565b1115611922578193505b50505b600061193083612b69565b11156119405761194081836134c7565b6119528161194c612b5f565b85613039565b61195b89612af8565b886001600160a01b0316886001600160a01b03167f5225638a979dd133f201045ab4169ec2189874d864f2b5a10be72ac6e4b421b461199d8960200151612b69565b6119aa8a60600151613ccb565b6119b388612b69565b6119bb612b5f565b6119c48b612b69565b6040516119d5959493929190616583565b60405180910390a3505050506000611a57866001600160a01b031663dc76fabc6040518163ffffffff1660e01b815260040160206040518083038186803b158015611a1f57600080fd5b505afa158015611a33573d6000803e3d6000fd5b505050506040513d601f19601f8201168201806040525081019061151c9190615aa8565b90506000611a688460800151612b69565b9050866001600160a01b0316866001600160a01b03167f4c7b764f428c13bbea8cc8da90ebe6eef4dafeb27a4e3d9041d64208c47ca7c2611ab0876000015160200151612b69565b611abd8860200151612b69565b611aca8960600151612b69565b895151600090611ad990612b69565b611ae68c60a00151612b69565b611af38d60e00151612b69565b611b008e60400151612b69565b611b098e612b69565b8d8d604051611b229b9a99989796959493929190616535565b60405180910390a35050610130805460ff191660011790555050505050565b60cc5460ff1615611b645760405162461bcd60e51b815260040161068b90615fe8565b6101305460ff16611b875760405162461bcd60e51b815260040161068b90616436565b610130805460ff19169055611b9d856001612c83565b611ba683612e0b565b611baf82612e0b565b611bcd61092083611bc161088e6135d8565b9063ffffffff613cdd16565b611bd685613d4e565b6000611be0612b5f565b9050611bea615624565b6000611bff611bf98985612b6d565b51612b69565b905060008115611c10576000611c13565b60015b90508080611c475750876001811115611c2857fe5b60008313611c37576001611c3a565b60005b6001811115611c4557fe5b145b15611c6f57611c688989611c618a8a63ffffffff61398e16565b888a613dab565b9250611c82565b611c7f8989868a8a8a600061373b565b92505b611c9189858560000151612f82565b80158015611ca95750825151611ca690612b69565b15155b15611cd357611cd3611cbb8a86612a39565b60408051602081019091526101975481526001612fec565b6000611ce28460400151612b69565b1115611cf157611cf189612af8565b6000896001600160a01b031663fdf262b76040518163ffffffff1660e01b815260040160206040518083038186803b158015611d2c57600080fd5b505afa158015611d40573d6000803e3d6000fd5b505050506040513d601f19601f82011682018060405250810190611d649190615a0d565b90506000611d758560c00151612b69565b1315611d9857611d93818630611d8e8860c00151613221565b61402e565b611dbf565b6000611da78560c00151612b69565b1215611dbf57611dbf81866109bc8760c00151613221565b505050611dca615611565b611dd983898460200151614160565b90506000611e19896001600160a01b031663dc76fabc6040518163ffffffff1660e01b815260040160206040518083038186803b158015611a1f57600080fd5b90506000611e2a8460800151612b69565b9050896001600160a01b0316856001600160a01b03167f4c7b764f428c13bbea8cc8da90ebe6eef4dafeb27a4e3d9041d64208c47ca7c2611e72876000015160200151612b69565b611e7f8860200151612b69565b611e8c8960600151612b69565b611e9589612b69565b8a5151611ea190612b69565b611eae8c60a00151612b69565b611ebb8d60e00151612b69565b611ec88e60400151612b69565b60008d8d604051611ee39b9a99989796959493929190616535565b60405180910390a35050610130805460ff191660011790555050505050505050565b611f0d615611565b611f15615611565b611f1d6155c3565b611f27868661288e565b9050611f31615611565b8151611f3c90613221565b9050611f4781612b69565b1561210d57600080611f5c8460000151612b69565b129050600081611f6d576000611f70565b60015b90506001876002811115611f8057fe5b141561200b576040516337d2176f60e11b81526001600160a01b038a1690636fa42ede90611fb49084908790600401615c13565b60206040518083038186803b158015611fcc57600080fd5b505afa158015611fe0573d6000803e3d6000fd5b505050506040513d601f19601f820116820180604052508101906120049190615aa8565b95506120dc565b600087600281111561201957fe5b141561204d5760405163da0c592760e01b81526001600160a01b038a169063da0c592790611fb49084908790600401615c13565b612055615611565b896001600160a01b031663468f02d26040518163ffffffff1660e01b815260040160206040518083038186803b15801561208e57600080fd5b505afa1580156120a2573d6000803e3d6000fd5b505050506040513d601f19601f820116820180604052508101906120c69190615aa8565b90506120d8848263ffffffff61398e16565b9650505b816120f7576120f28460400151610b8288612e30565b612108565b61210886610b828660400151612e30565b945050505b5050935093915050565b6098546001600160a01b031690565b6101d255565b60cc5460ff161561214f5760405162461bcd60e51b815260040161068b90615fe8565b6101305460ff166121725760405162461bcd60e51b815260040161068b90616436565b610130805460ff19169055612188826001612c83565b61219182613d4e565b600061219b612b5f565b90506121a78382612b6d565b506121b0615624565b6121b86155c3565b6121c2858461288e565b90506000806121d48360000151612b69565b136121e05760016121e3565b60005b9050856001600160a01b031663130234cf826122028560000151613221565b6040518363ffffffff1660e01b815260040161221f929190615c13565b60206040518083038186803b15801561223757600080fd5b505afa15801561224b573d6000803e3d6000fd5b505050506040513d601f19601f8201168201806040525081019061226f91906157e5565b80156122885750600061228361162c6135d8565b60000b125b1561238057612295615611565b60408051602081019091526101d154815283516001600160a01b0389169163da0c59279185916122ce916116e79163ffffffff6136af16565b6040518363ffffffff1660e01b81526004016122eb929190615c13565b60206040518083038186803b15801561230357600080fd5b505afa158015612317573d6000803e3d6000fd5b505050506040513d601f19601f8201168201806040525081019061233b9190615aa8565b90506123698760006123508660000151612b69565b1361235c57600061235f565b60015b87846117876135d8565b935061237a87868660000151612f82565b5061238e565b61238b8685876139f6565b92505b6000866001600160a01b031663fdf262b76040518163ffffffff1660e01b815260040160206040518083038186803b1580156123c957600080fd5b505afa1580156123dd573d6000803e3d6000fd5b505050506040513d601f19601f820116820180604052508101906124019190615a0d565b905060006124128560400151612b69565b111561242f5761242187612af8565b61242f818560400151613bb3565b61244181866109bc8760c00151613221565b50505061244c615611565b61245b83868460200151614160565b9050600061249b866001600160a01b031663dc76fabc6040518163ffffffff1660e01b815260040160206040518083038186803b158015611a1f57600080fd5b905060006124ac8460800151612b69565b9050866001600160a01b0316856001600160a01b03167f4c7b764f428c13bbea8cc8da90ebe6eef4dafeb27a4e3d9041d64208c47ca7c26124f4876000015160200151612b69565b6125018860200151612b69565b61250e8960600151612b69565b61251789612b69565b8a515161252390612b69565b6125308c60a00151612b69565b61253d8d60e00151612b69565b61254a8e60400151612b69565b60008d8d604051611b229b9a99989796959493929190616535565b603354610100900460ff168061257e575061257e61432b565b8061258c575060335460ff16155b6125a85760405162461bcd60e51b815260040161068b906161b3565b603354610100900460ff161580156125d3576033805460ff1961ff0019909116610100171660011790555b6001600160a01b0383166125f95760405162461bcd60e51b815260040161068b90615e03565b612601614331565b6126096143c3565b604080518082019091526005808252640312e302e360dc1b60209092019182526126369161019591615698565b5060408051602080820183529088905261019688905581518082018352879052610197879055815190810190915284905261019884905561019c80546001600160a01b038086166001600160a01b03199283161790925561019480549285169290911691909117905580156110ea576033805461ff0019169055505050505050565b60cc5460ff16156126db5760405162461bcd60e51b815260040161068b90615fe8565b6101305460ff166126fe5760405162461bcd60e51b815260040161068b90616436565b610130805460ff19169055612714826001612c83565b61272661084936839003830183615a8d565b6000612730612b5f565b905061273a6155c3565b6127448483612b6d565b905061276961275836859003850185615a8d565b60208301519063ffffffff613b9016565b6020820152612779848383612f82565b6127fe846001600160a01b031663fdf262b76040518163ffffffff1660e01b815260040160206040518083038186803b1580156127b557600080fd5b505afa1580156127c9573d6000803e3d6000fd5b505050506040513d601f19601f820116820180604052508101906127ed9190615a0d565b8330611d8e36889003880188615a8d565b6001600160a01b038085169083167f1c822fe92555a7e529201522fbd166b03a55712d945737f4cc5c1e18199caa7b61283f61151c36889003880188615a8d565b600060405161284f929190615ca3565b60405180910390a35050610130805460ff191660011790555050565b61019d546001600160a01b031681565b6101996020526000908152604090205481565b6128966155c3565b61289e6155c3565b6128a88484610597565b9050600061292e6001866001600160a01b03166342b3198b6040518163ffffffff1660e01b815260040160206040518083038186803b1580156128ea57600080fd5b505afa1580156128fe573d6000803e3d6000fd5b505050506040513d601f19601f820116820180604052508101906129229190615b06565b9063ffffffff61443916565b9050808260800151141561294457509050611307565b61294f85838361447b565b95945050505050565b61019c546001600160a01b031681565b6099546001600160a01b03166129905760405162461bcd60e51b815260040161068b90616365565b612998612b5f565b6099546001600160a01b039081169116146129c55760405162461bcd60e51b815260040161068b90615ef2565b6099546098546040516001600160a01b0392831692909116907f8be0079c531659141344cd1fd0a4f28419497f9722a3daafe3b4186f6b6457e090600090a360998054609880546001600160a01b03199081166001600160a01b03841617909155169055565b6101985481565b6101965481565b612a41615611565b612a496155c3565b612a53848461288e565b9050612a628160000151613142565b612a6a615611565b612a72615611565b612a7e86866000611f05565b91509150612a8a615611565b612a92615611565b612a9e88886001611f05565b91509150612aaa615611565b612ab2615611565b612abb83612b69565b612ac486612b69565b13612ad0578284612ad3565b84865b91509150612ae38a88848461478a565b9a9950505050505050505050565b6101d35490565b6000612b02612af1565b6001600160a01b038316600090815261019a602052604090819020829055519091507f97f920fec5d17ec336df7ad438ca8a76dcfd206ddc1d19b263b6f3e6ba3c4f3190612b539084908490615bd5565b60405180910390a15050565b60006106446147c4565b5190565b612b756155c3565b612b7d6155c3565b612b878484610597565b9050612b968160000151612b69565b612ba1579050611307565b6000612be16001866001600160a01b03166342b3198b6040518163ffffffff1660e01b815260040160206040518083038186803b1580156128ea57600080fd5b90508082608001511415612bf757509050611307565b612bff6155c3565b612c0a86848461447b565b9050612c17868683612f82565b846001600160a01b0316866001600160a01b03167fdbb898e847eca1f5626ba536593caa10241fb631e7c8a1cb06dfdce8d3934f49612c598460000151612b69565b86608001518560800151604051612c7293929190615cb1565b60405180910390a395945050505050565b61019c546040516301dd29e160e21b81526001600160a01b0390911690630774a78490612cb4908590600401615b9d565b60206040518083038186803b158015612ccc57600080fd5b505afa158015612ce0573d6000803e3d6000fd5b505050506040513d601f19601f82011682018060405250810190612d0491906157e5565b612d205760405162461bcd60e51b815260040161068b90615d1e565b816001600160a01b031663fcfff16f6040518163ffffffff1660e01b815260040160206040518083038186803b158015612d5957600080fd5b505afa158015612d6d573d6000803e3d6000fd5b505050506040513d601f19601f82011682018060405250810190612d9191906157e5565b15158115151481612dc5576040518060400160405280600b81526020016a30b6b69034b99037b832b760a91b815250612ded565b6040518060400160405280600e81526020016d185b5b481dd85cc818db1bdcd95960921b8152505b90610f7b5760405162461bcd60e51b815260040161068b9190615cc7565b612e1481612b69565b6106535760405162461bcd60e51b815260040161068b9061610c565b612e38615611565b8180600001516001600160ff1b0310156040518060600160405280603381526020016166236033913990612e7f5760405162461bcd60e51b815260040161068b9190615cc7565b50506040805160208101909152915182525090565b612e9c615611565b612ea4615611565b8351612eb6908463ffffffff6147f616565b81529392505050565b612ec7615611565b612ecf615611565b612ed7615611565b612edf615611565b612ee887611110565b9050612ef78660000151612b69565b15612f285785516060870151612f259190612f1990849063ffffffff61368c16565b9063ffffffff6132e716565b91505b612f30615611565b6020870151612f4990610b9c888663ffffffff61368c16565b90506000612f5682612b69565b1215612f6c57612f6581613221565b9350612f78565b612f7581613221565b94505b5093509350935093565b6001600160a01b03928316600090815261019a602090815260408083209490951682526002938401815290849020825151815590820151516001820155928101515191830191909155606081015151600383015560a0810151600583015560800151600490910155565b600061300161151c858563ffffffff61327216565b9050816130115760008112613017565b60008112155b6130335760405162461bcd60e51b815260040161068b90615f70565b50505050565b613041615611565b61304b8430614861565b905061305682612b69565b61305f82612b69565b10156131375761306d615611565b61307d838363ffffffff6139d316565b6001600160a01b038616600090815261019b60209081526040918290208251918201909252905481529091506130b9908263ffffffff613b9016565b6001600160a01b03808716600090815261019b602052604090819020925190925561019c5491516304a52f1760e31b815291169063252978b8906131039088908590600401615bf9565b600060405180830381600087803b15801561311d57600080fd5b505af1158015613131573d6000803e3d6000fd5b50505050505b613033848484613375565b61314b81612b69565b6106535760405162461bcd60e51b815260040161068b90615d45565b6040518060c0016040528061317a613720565b8152602001613187613720565b8152602001613194613720565b81526020016131a1613720565b8152602001600081526020016131b5612af1565b90526001600160a01b03928316600090815261019a60209081526040808320949095168252600293840181529084902082515181559082015151600182015592810151519183019190915560608101515160038301556080810151600483015560a00151600590910155565b613229615611565b613231615611565b8251600013156132475782516000038152611307565b915182525090565b613257615611565b61325f615611565b82518451612eb69163ffffffff6148ee16565b61327a615611565b8180600001516001600160ff1b03101560405180606001604052806033815260200161662360339139906132c15760405162461bcd60e51b815260040161068b9190615cc7565b506132ca615611565b835185516132dd9163ffffffff6148fc16565b8152949350505050565b6132ef615611565b6132f7615611565b82518451612eb69163ffffffff61494216565b613312615611565b8180600001516001600160ff1b03101560405180606001604052806033815260200161662360339139906133595760405162461bcd60e51b815260040161068b9190615cc7565b50613362615611565b835185516132dd9163ffffffff61495016565b61337e83614996565b613386615611565b6133908484614861565b9050600061339e85846149e0565b905060006060866001600160a01b031663a9059cbb60e01b87856040516024016133c9929190615bd5565b60408051601f198184030181529181526020820180516001600160e01b03166001600160e01b03199094169390931790925290516134079190615b81565b6000604051808303816000865af19150503d8060008114613444576040519150601f19603f3d011682016040523d82523d6000602084013e613449565b606091505b509150915081801561347357508051158061347357508080602001905181019061347391906157e5565b61348f5760405162461bcd60e51b815260040161068b90615dcc565b61349b87878587614a5e565b50505050505050565b6134ac615611565b6134b4615611565b82518451612eb69163ffffffff61495016565b6134cf615611565b6134d98330614861565b61019c54909150610f7b9084906001600160a01b03166134f885612b69565b61350185612b69565b1061350c578461350e565b835b613375565b60cc5460ff166135355760405162461bcd60e51b815260040161068b90615d70565b60cc805460ff191690557f5db9ee0a495bf2e6ff9c91a7834c1ba4fdd244a5e8aa4e537bd38aeae4b073aa613568612b5f565b6040516135759190615b9d565b60405180910390a1565b60cc5460ff16156135a25760405162461bcd60e51b815260040161068b90615fe8565b60cc805460ff191660011790557f62e78cea01bee320cd4e420270b5ea74000d11b0c9f74754ebdbfc544b05a258613568612b5f565b6135e0615611565b60405180602001604052806135f56012614aa5565b9052905090565b80518251600091101561361157506001611307565b8151835110156136245750600019611307565b50600092915050565b613635615611565b61363d6155c3565b613647848461288e565b90506136568160000151613142565b61365e615611565b613666615611565b61367286866002611f05565b915091506136828684838561478a565b9695505050505050565b613694615611565b61369c615611565b82518451612eb69163ffffffff6148fc16565b6136b7615611565b8180600001516001600160ff1b03101560405180606001604052806033815260200161662360339139906136fe5760405162461bcd60e51b815260040161068b9190615cc7565b50613707615611565b61294f61371385612e30565b869063ffffffff6132e716565b613728615611565b5060408051602081019091526000815290565b613743615624565b61374b615611565b61375b868663ffffffff61398e16565b9050613765615611565b61376d615611565b6137798b8a6000611f05565b91509150613785615624565b61378e84612b69565b61379784612b69565b111561396e576137b58c6137b060001961089388612e30565b614aae565b6137bd6155c3565b6137c78d8c610597565b90506137d68d8d878b8b614be1565b606083015280516137e690612b69565b1561381e576138186137fb8260000151613221565b611bc161380b8560600151613221565b869063ffffffff6136af16565b60a08301525b613826615611565b61382e615611565b61383d8f848660a00151612ebf565b6080880191909152604087019190915260a0860151919350915061386890869063ffffffff61368c16565b60e08501526020840187905261387c615611565b600061388b8560000151612b69565b136138b4576138af8560200151610b82898860e0015161330a90919063ffffffff16565b6138d9565b6138d98560e001516138cd8760200151610b828b612e30565b9063ffffffff61368c16565b905060006138e682612b69565b136139035760405162461bcd60e51b815260040161068b90616053565b6040518060c00160405280613929876060015187600001516134a490919063ffffffff16565b815260200184815260200161393d83613221565b81526020018381526020018560800151815260200161395a612af1565b905285525092965061398395505050505050565b61397c8c8c8c8c8c8c614cca565b9450505050505b979650505050505050565b613996615611565b61399e615611565b82518451612eb69163ffffffff614ead16565b6139b9615611565b6139c1615611565b8351612eb6908463ffffffff614ebb16565b6139db615611565b6139e3615611565b82518451612eb69163ffffffff61443916565b6139fe615624565b613a066155c3565b613a108585610597565b9050613a1f8160000151613142565b613a27615611565b613a3386866000611f05565b915050613a3e615611565b613a46615611565b613a4e615611565b613a59898686612ebf565b5087519295509093509150613a769060001963ffffffff612e9416565b606087015260a086018490526040860182905260808601819052613a9f60001961089385612e30565b60c087015284516001600160a01b038a169063d71ec2ad90600090613ac390612b69565b13613acf576001613ad2565b60005b8751613add90613221565b8a6040518463ffffffff1660e01b8152600401613afc93929190615c2f565b602060405180830381600087803b158015613b1657600080fd5b505af1158015613b2a573d6000803e3d6000fd5b505050506040513d601f19601f82011682018060405250810190613b4e9190615aa8565b60208701526040850151613b7a908a906137b0906000199061089390610b9c8a8963ffffffff61330a16565b613b848989613167565b50505050509392505050565b613b98615611565b613ba0615611565b82518451612eb69163ffffffff614efd16565b613bbb615611565b506001600160a01b038216600090815261019b6020908152604091829020825191820190925290548152613bee82612b69565b613bf782612b69565b1115613c2f57613c0d818363ffffffff6139d316565b6001600160a01b038416600090815261019b6020526040902090519055610f7b565b61019c546001600160a01b031663252978b884613c52858563ffffffff6139d316565b6040518363ffffffff1660e01b8152600401613c6f929190615bf9565b600060405180830381600087803b158015613c8957600080fd5b505af1158015613c9d573d6000803e3d6000fd5b50505050613ca9613720565b6001600160a01b038416600090815261019b6020526040902090519055505050565b6000613cd682613221565b5192915050565b613ce5615611565b8180600001516001600160ff1b0310156040518060600160405280603381526020016166236033913990613d2c5760405162461bcd60e51b815260040161068b9190615cc7565b50613d35615611565b61294f613d4185612e30565b869063ffffffff614f2216565b6000613d58612af1565b6001600160a01b038316600090815261019a60205260409020549091508114156107d75780613d89836102a6612b5f565b60a0015114156107d75760405162461bcd60e51b815260040161068b90615f39565b613db3615624565b6000613dbd612b5f565b9050613dc76155c3565b613dd18883610597565b9050613de1888888886000614be1565b6060840152613dee615611565b60608401518251613e049163ffffffff6134a416565b6080830151835191925090613e1890612b69565b613e5d57613e5a60018b6001600160a01b03166342b3198b6040518163ffffffff1660e01b815260040160206040518083038186803b1580156128ea57600080fd5b90505b613e6a8a6137b08a612e30565b61019e546001600160a01b03858116911614613f4a57613e88615611565b8a6001600160a01b031663113773946040518163ffffffff1660e01b815260040160206040518083038186803b158015613ec157600080fd5b505afa158015613ed5573d6000803e3d6000fd5b505050506040513d601f19601f82011682018060405250810190613ef99190615aa8565b90506000613f0682612b69565b1115613f48576000613f2782613f1b86613221565b9063ffffffff6135fc16565b60000b1315613f485760405162461bcd60e51b815260040161068b90616248565b505b613f52615611565b613f6561088e8a8963ffffffff61324f16565b9050613f6f615611565b613f77615611565b613f7f615611565b613f8a8e8886612ebf565b93509350509250613f99615611565b613fa58f8a6000611f05565b9150508c8a60200181905250808a60e00181905250848a60c00181905250828a608001819052506040518060c00160405280888152602001858152602001613ffe8c602001518b60400151613b9090919063ffffffff16565b8152602001838152602001878152602001614017612af1565b90528a5250979d9c50505050505050505050505050565b61403784614996565b61403f615611565b6140498584614861565b9050600061405786846149e0565b905060006060876001600160a01b03166323b872dd60e01b88888660405160240161408493929190615bb1565b60408051601f198184030181529181526020820180516001600160e01b03166001600160e01b03199094169390931790925290516140c29190615b81565b6000604051808303816000865af19150503d80600081146140ff576040519150601f19603f3d011682016040523d82523d6000602084013e614104565b606091505b509150915081801561412e57508051158061412e57508080602001905181019061412e91906157e5565b61414a5760405162461bcd60e51b815260040161068b90616012565b61415688878587614a5e565b5050505050505050565b614168615611565b614170615611565b614178615611565b604051636226795560e01b81526001600160a01b038616906362267955906141a49087906004016164fb565b604080518083038186803b1580156141bb57600080fd5b505afa1580156141cf573d6000803e3d6000fd5b505050506040513d601f19601f820116820180604052508101906141f39190615ac3565b9150915060008061420384612b69565b11905060008061421284612b69565b119050818061421e5750805b1561431f576000876001600160a01b031663fdf262b76040518163ffffffff1660e01b815260040160206040518083038186803b15801561425e57600080fd5b505afa158015614272573d6000803e3d6000fd5b505050506040513d601f19601f820116820180604052508101906142969190615a0d565b905081156142b95761019c546142b99082908b906001600160a01b03168761402e565b82156143035761019d546001600160a01b03166142e85760405162461bcd60e51b815260040161068b906162b6565b61019d546143039082908b906001600160a01b03168861402e565b614313858563ffffffff613b9016565b95505050505050614324565b505050505b9392505050565b303b1590565b603354610100900460ff168061434a575061434a61432b565b80614358575060335460ff16155b6143745760405162461bcd60e51b815260040161068b906161b3565b603354610100900460ff1615801561439f576033805460ff1961ff0019909116610100171660011790555b6143a7614f45565b6143af614fc3565b8015610653576033805461ff001916905550565b603354610100900460ff16806143dc57506143dc61432b565b806143ea575060335460ff16155b6144065760405162461bcd60e51b815260040161068b906161b3565b603354610100900460ff16158015614431576033805460ff1961ff0019909116610100171660011790555b6143af615041565b600061432483836040518060400160405280601e81526020017f536166654d6174683a207375627472616374696f6e206f766572666c6f7700008152506150d1565b6144836155c3565b825161448e90612b69565b6144a057506080820181905281614324565b6144a8615716565b60808401516040516311bf8bf760e11b81526001600160a01b0387169163237f17ee916144d8919060040161652c565b60806040518083038186803b1580156144f057600080fd5b505afa158015614504573d6000803e3d6000fd5b505050506040513d601f19601f820116820180604052508101906145289190615a29565b9050614532615611565b6145ab8260000151876001600160a01b03166329f9b17b6040518163ffffffff1660e01b815260040160206040518083038186803b15801561457357600080fd5b505afa158015614587573d6000803e3d6000fd5b505050506040513d601f19601f820116820180604052508101906138cd9190615aa8565b90506145b5615611565b6145bd615611565b6145c683612b69565b156146e7576145d3615611565b886001600160a01b03166350799c8160006145ed87612b69565b136145f95760016145fc565b60005b61460587613221565b886020015189604001516040518563ffffffff1660e01b815260040161462e9493929190615c7a565b60206040518083038186803b15801561464657600080fd5b505afa15801561465a573d6000803e3d6000fd5b505050506040513d601f19601f8201168201806040525081019061467e9190615aa8565b905061469a6116e786602001518661330a90919063ffffffff16565b915060006146a785612b69565b13156146c95760408501516146c2908263ffffffff6139d316565b92506146e1565b60408501516146de908263ffffffff613b9016565b92505b506146f5565b505060208201516040830151905b86516040516340d71cd960e01b81526001600160a01b038a16916340d71cd991614726919085908790600401616515565b60206040518083038186803b15801561473e57600080fd5b505afa158015614752573d6000803e3d6000fd5b505050506040513d601f19601f820116820180604052508101906147769190615aa8565b875250505050608083019190915250919050565b614792615611565b61479a615611565b6147a2615611565b6147ad878787612ebf565b50509150915061398384611bc183610b8286612e30565b6000601836108015906147db57506147db336110f2565b156147ef575060131936013560601c610647565b5033610647565b60008261480557506000611307565b826000191480156148195750600160ff1b82145b156148365760405162461bcd60e51b815260040161068b90616201565b8282028284828161484357fe5b05146143245760405162461bcd60e51b815260040161068b90616201565b614869615611565b61432483846001600160a01b03166370a08231856040518263ffffffff1660e01b81526004016148999190615b9d565b60206040518083038186803b1580156148b157600080fd5b505afa1580156148c5573d6000803e3d6000fd5b505050506040513d601f19601f820116820180604052508101906148e99190615b06565b6150fd565b60006143248383601261518f565b60008183038183128015906149115750838113155b80614926575060008312801561492657508381135b6143245760405162461bcd60e51b815260040161068b90616321565b6000614324838360126151ae565b60008282018183128015906149655750838112155b8061497a575060008312801561497a57508381125b6143245760405162461bcd60e51b815260040161068b90615eb1565b60006149a1826151d8565b6001600160a01b03831660009081526020819052604090205490915081146107d7576001600160a01b0391909116600090815260208190526040902055565b6000806149ec846151d8565b905060128110614a2a57614a22614a0a82601263ffffffff61443916565b600a0a614a1685612b69565b9063ffffffff6152bc16565b915050611307565b614a56614a3e60128363ffffffff61443916565b600a0a614a4a85612b69565b9063ffffffff614ebb16565b949350505050565b614a85614a7b614a6e86856150fd565b839063ffffffff613b9016565b613f1b8686614861565b60000b156130335760405162461bcd60e51b815260040161068b906162df565b60ff16600a0a90565b6000614aec836001600160a01b031663525454106040518163ffffffff1660e01b815260040160206040518083038186803b158015611a1f57600080fd5b905082811561303357614afd615611565b6001600160a01b03821660009081526101996020908152604091829020825191820190925290548152614b3790859063ffffffff61330a16565b90506000614b4482612b69565b1215614b5557614b52613720565b90505b6000614b6085612b69565b1315614bb45782614b7082613ccb565b111580614b98575061019e546001600160a01b0316614b8d612b5f565b6001600160a01b0316145b614bb45760405162461bcd60e51b815260040161068b90615cfa565b614bbd81613221565b6001600160a01b038316600090815261019960205260409020905190555050505050565b614be9615611565b600080866001811115614bf857fe5b14614c04576001614c07565b60005b9050614c11615611565b6040516375df638960e01b8152614c99906001600160a01b038a16906375df638990614c479086908b908b908b90600401615c51565b602060405180830381600087803b158015614c6157600080fd5b505af1158015614c75573d6000803e3d6000fd5b505050506040513d601f19601f8201168201806040525081019061088e9190615aa8565b9050816001811115614ca757fe5b6001141561398357614cc18160001963ffffffff612e9416565b9250505061294f565b614cd2615624565b614cda615624565b614ce78887611836613720565b9050614cf68160400151612b69565b15614d135760405162461bcd60e51b815260040161068b9061627f565b614d1b615611565b6020820151614d4090614d34888863ffffffff61398e16565b9063ffffffff6139d316565b9050614d5561151c828763ffffffff61324f16565b614d6157819250614ea1565b614d69615611565b614d768360600151613ccb565b614d7f86612b69565b1115614da557614da2614d958460600151613221565b869063ffffffff6139d316565b90505b614dad615624565b614dba8b8b85858b613dab565b905060405180610100016040528082600001518152602001614ded83602001518760200151613b9090919063ffffffff16565b8152602001614e0d83604001518760400151613b9090919063ffffffff16565b8152602001614e2d836060015187606001516134a490919063ffffffff16565b8152602001614e4d836080015187608001516134a490919063ffffffff16565b8152602001614e6d8360a001518760a001516134a490919063ffffffff16565b8152602001614e8d8360c001518760c001516134a490919063ffffffff16565b8152602001614e9a613720565b9052945050505b50509695505050505050565b6000614324838360126152f6565b600061432483836040518060400160405280601a81526020017f536166654d6174683a206469766973696f6e206279207a65726f000000000000815250615314565b6000828201838110156143245760405162461bcd60e51b815260040161068b90615e33565b614f2a615611565b614f32615611565b82518451612eb69163ffffffff61534b16565b603354610100900460ff1680614f5e5750614f5e61432b565b80614f6c575060335460ff16155b614f885760405162461bcd60e51b815260040161068b906161b3565b603354610100900460ff16158015614fb3576033805460ff1961ff0019909116610100171660011790555b614fbb615359565b6143af6153da565b603354610100900460ff1680614fdc5750614fdc61432b565b80614fea575060335460ff16155b6150065760405162461bcd60e51b815260040161068b906161b3565b603354610100900460ff16158015615031576033805460ff1961ff0019909116610100171660011790555b615039615359565b6143af6154b4565b603354610100900460ff168061505a575061505a61432b565b80615068575060335460ff16155b6150845760405162461bcd60e51b815260040161068b906161b3565b603354610100900460ff161580156150af576033805460ff1961ff0019909116610100171660011790555b610130805460ff191660011790558015610653576033805461ff001916905550565b600081848411156150f55760405162461bcd60e51b815260040161068b9190615cc7565b505050900390565b615105615611565b6000615110846151d8565b9050601281106151555760408051602081019091528061514a61513a84601263ffffffff61443916565b8690600a0a63ffffffff614ebb16565b815250915050611307565b60408051602081019091528061518561517560128563ffffffff61443916565b8690600a0a63ffffffff6152bc16565b9052949350505050565b6000614a5683614a4a6151a185614aa5565b879063ffffffff6152bc16565b6000614a566151bc83614aa5565b6151cc868663ffffffff6147f616565b9063ffffffff61554016565b6001600160a01b038116600090815260208190526040812054806113075760408051600481526024810182526020810180516001600160e01b031663313ce56760e01b17905290516000916060916001600160a01b0387169161523a91615b81565b600060405180830381855afa9150503d8060008114615275576040519150601f19603f3d011682016040523d82523d6000602084013e61527a565b606091505b509150915081801561528c5750805115155b6152a85760405162461bcd60e51b815260040161068b90615fa7565b8080602001905181019061294f9190615b06565b6000826152cb57506000611307565b828202828482816152d857fe5b04146143245760405162461bcd60e51b815260040161068b906160cb565b6000614a5661530483614aa5565b614a4a868663ffffffff6152bc16565b600081836153355760405162461bcd60e51b815260040161068b9190615cc7565b50600083858161534157fe5b0495945050505050565b6000614324838360126155a4565b603354610100900460ff1680615372575061537261432b565b80615380575060335460ff16155b61539c5760405162461bcd60e51b815260040161068b906161b3565b603354610100900460ff161580156143af576033805460ff1961ff0019909116610100171660011790558015610653576033805461ff001916905550565b603354610100900460ff16806153f357506153f361432b565b80615401575060335460ff16155b61541d5760405162461bcd60e51b815260040161068b906161b3565b603354610100900460ff16158015615448576033805460ff1961ff0019909116610100171660011790555b6000615452612b5f565b609880546001600160a01b0319166001600160a01b038316908117909155604051919250906000907f8be0079c531659141344cd1fd0a4f28419497f9722a3daafe3b4186f6b6457e0908290a3508015610653576033805461ff001916905550565b603354610100900460ff16806154cd57506154cd61432b565b806154db575060335460ff16155b6154f75760405162461bcd60e51b815260040161068b906161b3565b603354610100900460ff16158015615522576033805460ff1961ff0019909116610100171660011790555b60cc805460ff191690558015610653576033805461ff001916905550565b60008161555f5760405162461bcd60e51b815260040161068b90616401565b816000191480156155735750600160ff1b83145b156155905760405162461bcd60e51b815260040161068b9061608a565b600082848161559b57fe5b05949350505050565b6000614a56836151cc6155b685614aa5565b879063ffffffff6147f616565b6040518060c001604052806155d6615611565b81526020016155e3615611565b81526020016155f0615611565b81526020016155fd615611565b815260200160008152602001600081525090565b6040518060200160405280600081525090565b6040518061010001604052806156386155c3565b8152602001615645615611565b8152602001615652615611565b815260200161565f615611565b815260200161566c615611565b8152602001615679615611565b8152602001615686615611565b8152602001615693615611565b905290565b828054600181600116156101000203166002900490600052602060002090601f016020900481019282601f106156d957805160ff1916838001178555615706565b82800160010185558215615706579182015b828111156157065782518255916020019190600101906156eb565b50615712929150615729565b5090565b604051806080016040528061566c615611565b61064791905b80821115615712576000815560010161572f565b600060208284031215611188578081fd5b600060208284031215615765578081fd5b61576f60206165af565b9135825250919050565b60006020828403121561578a578081fd5b61579460206165af565b9151825250919050565b6000602082840312156157af578081fd5b81356143248161660d565b600080604083850312156157cc578081fd5b82356157d78161660d565b946020939093013593505050565b6000602082840312156157f6578081fd5b81518015158114614324578182fd5b60008060408385031215615817578182fd5b82356158228161660d565b915060208301356158328161660d565b809150509250929050565b600080600060608486031215615851578081fd5b833561585c8161660d565b9250602084013561586c8161660d565b915060408401356003811061587f578182fd5b809150509250925092565b60008060008060008060c087890312156158a2578182fd5b86356158ad8161660d565b95506020870135600281106158c0578283fd5b94506158cf8860408901615743565b93506158de8860608901615743565b92506158ed8860808901615743565b915060a087013590509295509295509295565b600080600080600060a08688031215615917578081fd5b85356159228161660d565b9450602086013560028110615935578182fd5b93506159448760408801615754565b92506159538760608801615754565b91506159628760808801615754565b90509295509295909350565b60008060408385031215615980578182fd5b823561598b8161660d565b915061599a8460208501615743565b90509250929050565b6000806000606084860312156159b7578081fd5b83356159c28161660d565b92506159d18560208601615743565b9150604084013590509250925092565b600080604083850312156159f3578182fd5b82356159fe8161660d565b915061599a8460208501615754565b600060208284031215615a1e578081fd5b81516143248161660d565b600060808284031215615a3a578081fd5b615a4460806165af565b615a4e8484615779565b8152615a5d8460208501615779565b6020820152615a6f8460408501615779565b6040820152615a818460608501615779565b60608201529392505050565b600060208284031215615a9e578081fd5b6143248383615754565b600060208284031215615ab9578081fd5b6143248383615779565b60008060408385031215615ad5578182fd5b615adf8484615779565b915061599a8460208501615779565b600060208284031215615aff578081fd5b5035919050565b600060208284031215615b17578081fd5b5051919050565b600080600080600060a08688031215615b35578283fd5b8535945060208601359350604086013592506060860135615b558161660d565b91506080860135615b658161660d565b809150509295509295909350565b60028110615b7d57fe5b9052565b60008251615b938184602087016165e1565b9190910192915050565b6001600160a01b0391909116815260200190565b6001600160a01b039384168152919092166020820152604081019190915260600190565b6001600160a01b03929092168252602082015260400190565b901515815260200190565b6001600160a01b0392909216825251602082015260400190565b60408101615c20846165d6565b82529151602090910152919050565b60608101615c3d8286615b73565b925160208201529051604090910152919050565b60808101615c5f8287615b73565b93516020820152915160408301521515606090910152919050565b60808101615c87866165d6565b8252935160208201529151604083015251606090910152919050565b918252602082015260400190565b9283526020830191909152604082015260600190565b6000602082528251806020840152615ce68160408501602087016165e1565b601f01601f19169190910160400192915050565b6020808252600a90820152691bdd995c881b1a5b5a5d60b21b604082015260600190565b6020808252600d908201526c185b5b481b9bdd08199bdd5b99609a1b604082015260600190565b6020808252601190820152700706f736974696f6e53697a65206973203607c1b604082015260600190565b60208082526014908201527314185d5cd8589b194e881b9bdd081c185d5cd95960621b604082015260600190565b6020808252601490820152730dac2e4ced2dc40d2e640dcdee840cadcdeeaced60631b604082015260600190565b6020808252601d908201527f446563696d616c45524332303a207472616e73666572206661696c6564000000604082015260600190565b602080825260169082015275125b9d985b1a590812525b9cdd5c985b98d9519d5b9960521b604082015260600190565b6020808252601b908201527f536166654d6174683a206164646974696f6e206f766572666c6f770000000000604082015260600190565b60208082526027908201527f5065727046694f776e61626c65557067726164653a2073616d652061732063616040820152666e64696461746560c81b606082015260800190565b60208082526021908201527f5369676e6564536166654d6174683a206164646974696f6e206f766572666c6f6040820152607760f81b606082015260800190565b60208082526027908201527f5065727046694f776e61626c65557067726164653a206e6f7420746865206e656040820152663b9037bbb732b960c91b606082015260800190565b60208082526017908201527f6f6e6c79206f6e6520616374696f6e20616c6c6f776564000000000000000000604082015260600190565b6020808252601e908201527f4d617267696e20726174696f206e6f74206d6565742063726974657269610000604082015260600190565b60208082526021908201527f446563696d616c45524332303a2067657420646563696d616c73206661696c656040820152601960fa1b606082015260800190565b60208082526010908201526f14185d5cd8589b194e881c185d5cd95960821b604082015260600190565b60208082526021908201527f446563696d616c45524332303a207472616e7366657246726f6d206661696c656040820152601960fa1b606082015260800190565b6020808252601a908201527f76616c7565206f66206f70656e4e6f74696f6e616c203c3d2030000000000000604082015260600190565b60208082526021908201527f5369676e6564536166654d6174683a206469766973696f6e206f766572666c6f6040820152607760f81b606082015260800190565b60208082526021908201527f536166654d6174683a206d756c7469706c69636174696f6e206f766572666c6f6040820152607760f81b606082015260800190565b6020808252600a90820152690696e70757420697320360b41b604082015260600190565b60208082526021908201527f696e76616c6964207061727469616c206c69717569646174696f6e20726174696040820152606f60f81b606082015260800190565b60208082526022908201527f5065727046694f776e61626c65557067726164653a207a65726f206164647265604082015261737360f01b606082015260800190565b6020808252602e908201527f436f6e747261637420696e7374616e63652068617320616c726561647920626560408201526d195b881a5b9a5d1a585b1a5e995960921b606082015260800190565b60208082526027908201527f5369676e6564536166654d6174683a206d756c7469706c69636174696f6e206f604082015266766572666c6f7760c81b606082015260800190565b6020808252601d908201527f68697420706f736974696f6e2073697a6520757070657220626f756e64000000604082015260600190565b6020808252601d908201527f72656475636520616e20756e646572776174657220706f736974696f6e000000604082015260600190565b6020808252600f908201526e125b9d985b1a5908199959541bdbdb608a1b604082015260600190565b60208082526022908201527f446563696d616c45524332303a2062616c616e636520696e636f6e73697374656040820152611b9d60f21b606082015260800190565b60208082526024908201527f5369676e6564536166654d6174683a207375627472616374696f6e206f766572604082015263666c6f7760e01b606082015260800190565b6020808252602f908201527f5065727046694f776e61626c65557067726164653a2063616e6469646174652060408201526e6973207a65726f206164647265737360881b606082015260800190565b6020808252602d908201527f5065727046694f776e61626c65557067726164653a2063616c6c65722069732060408201526c3737ba103a34329037bbb732b960991b606082015260800190565b6020808252818101527f5369676e6564536166654d6174683a206469766973696f6e206279207a65726f604082015260600190565b6020808252601f908201527f5265656e7472616e637947756172643a207265656e7472616e742063616c6c00604082015260600190565b60208082526026908201527f5065727046694f776e61626c65557067726164653a2073616d65206173206f726040820152651a59da5b985b60d21b606082015260800190565b600060c08201905082515182526020830151516020830152604083015151604083015260608301515160608301526080830151608083015260a083015160a083015292915050565b9051815260200190565b9151825251602082015260400190565b925183529051602083015251604082015260600190565b90815260200190565b9a8b5260208b019990995260408a01979097526060890195909552608088019390935260a087019190915260c086015260e08501526101008401526101208301526101408201526101600190565b948552602085019390935260408401919091526001600160a01b03166060830152608082015260a00190565b60405181810167ffffffffffffffff811182821017156165ce57600080fd5b604052919050565b8060028110610ff257fe5b60005b838110156165fc5781810151838201526020016165e4565b838111156130335750506000910152565b6001600160a01b038116811461065357600080fdfe4d69786564446563696d616c3a2075696e742076616c756520697320626967676572207468616e205f494e543235365f4d4158a2646970667358221220303242676dc282d5ca7b70010f99f73793fd2bb27fa72cbaea0896650932047964736f6c63430006090033",
  "linkReferences": {},
  "deployedLinkReferences": {}
}