{
  "_format": "hh-sol-artifact-1",
  "contractName": "InsuranceFundFake",
  "sourceName": "src/mock/InsuranceFundFake.sol",
  "abi": [
    {
      "anonymous": false,
      "inputs": [
        {
          "indexed": false,
          "internalType": "address",
          "name": "amm",
          "type": "address"
        }
      ],
      "name": "AmmAdded",
      "type": "event"
    },
    {
      "anonymous": false,
      "inputs": [
        {
          "indexed": false,
          "internalType": "address",
          "name": "amm",
          "type": "address"
        }
      ],
      "name": "AmmRemoved",
      "type": "event"
    },
    {
      "anonymous": false,
      "inputs": [
        {
          "indexed": true,
          "internalType": "address",
          "name": "previousOwner",
          "type": "address"
        },
        {
          "indexed": true,
          "internalType": "address",
          "name": "newOwner",
          "type": "address"
        }
      ],
      "name": "OwnershipTransferred",
      "type": "event"
    },
    {
      "anonymous": false,
      "inputs": [
        {
          "indexed": false,
          "internalType": "uint256",
          "name": "blockNumber",
          "type": "uint256"
        }
      ],
      "name": "ShutdownAllAmms",
      "type": "event"
    },
    {
      "anonymous": false,
      "inputs": [
        {
          "indexed": false,
          "internalType": "address",
          "name": "tokenAddress",
          "type": "address"
        }
      ],
      "name": "TokenAdded",
      "type": "event"
    },
    {
      "anonymous": false,
      "inputs": [
        {
          "indexed": false,
          "internalType": "address",
          "name": "tokenAddress",
          "type": "address"
        }
      ],
      "name": "TokenRemoved",
      "type": "event"
    },
    {
      "anonymous": false,
      "inputs": [
        {
          "indexed": false,
          "internalType": "address",
          "name": "withdrawer",
          "type": "address"
        },
        {
          "indexed": false,
          "internalType": "uint256",
          "name": "amount",
          "type": "uint256"
        }
      ],
      "name": "Withdrawn",
      "type": "event"
    },
    {
      "inputs": [
        {
          "internalType": "contract IAmm",
          "name": "_amm",
          "type": "address"
        }
      ],
      "name": "addAmm",
      "outputs": [],
      "stateMutability": "nonpayable",
      "type": "function"
    },
    {
      "inputs": [],
      "name": "candidate",
      "outputs": [
        {
          "internalType": "address",
          "name": "",
          "type": "address"
        }
      ],
      "stateMutability": "view",
      "type": "function"
    },
    {
      "inputs": [],
      "name": "exchange",
      "outputs": [
        {
          "internalType": "contract IExchangeWrapper",
          "name": "",
          "type": "address"
        }
      ],
      "stateMutability": "view",
      "type": "function"
    },
    {
      "inputs": [],
      "name": "getAllAmms",
      "outputs": [
        {
          "internalType": "contract IAmm[]",
          "name": "",
          "type": "address[]"
        }
      ],
      "stateMutability": "view",
      "type": "function"
    },
    {
      "inputs": [],
      "name": "getQuoteTokenLength",
      "outputs": [
        {
          "internalType": "uint256",
          "name": "",
          "type": "uint256"
        }
      ],
      "stateMutability": "view",
      "type": "function"
    },
    {
      "inputs": [],
      "name": "inflationMonitor",
      "outputs": [
        {
          "internalType": "contract IInflationMonitor",
          "name": "",
          "type": "address"
        }
      ],
      "stateMutability": "view",
      "type": "function"
    },
    {
      "inputs": [],
      "name": "initialize",
      "outputs": [],
      "stateMutability": "nonpayable",
      "type": "function"
    },
    {
      "inputs": [
        {
          "internalType": "contract IAmm",
          "name": "_amm",
          "type": "address"
        }
      ],
      "name": "isExistedAmm",
      "outputs": [
        {
          "internalType": "bool",
          "name": "",
          "type": "bool"
        }
      ],
      "stateMutability": "view",
      "type": "function"
    },
    {
      "inputs": [],
      "name": "minter",
      "outputs": [
        {
          "internalType": "contract IMinter",
          "name": "",
          "type": "address"
        }
      ],
      "stateMutability": "view",
      "type": "function"
    },
    {
      "inputs": [],
      "name": "mock_getCurrentTimestamp",
      "outputs": [
        {
          "internalType": "uint256",
          "name": "",
          "type": "uint256"
        }
      ],
      "stateMutability": "view",
      "type": "function"
    },
    {
      "inputs": [
        {
          "internalType": "uint256",
          "name": "_number",
          "type": "uint256"
        }
      ],
      "name": "mock_setBlockNumber",
      "outputs": [],
      "stateMutability": "nonpayable",
      "type": "function"
    },
    {
      "inputs": [
        {
          "internalType": "uint256",
          "name": "_timestamp",
          "type": "uint256"
        }
      ],
      "name": "mock_setBlockTimestamp",
      "outputs": [],
      "stateMutability": "nonpayable",
      "type": "function"
    },
    {
      "inputs": [],
      "name": "owner",
      "outputs": [
        {
          "internalType": "address",
          "name": "",
          "type": "address"
        }
      ],
      "stateMutability": "view",
      "type": "function"
    },
    {
      "inputs": [],
      "name": "perpToken",
      "outputs": [
        {
          "internalType": "contract IERC20",
          "name": "",
          "type": "address"
        }
      ],
      "stateMutability": "view",
      "type": "function"
    },
    {
      "inputs": [
        {
          "internalType": "uint256",
          "name": "",
          "type": "uint256"
        }
      ],
      "name": "quoteTokens",
      "outputs": [
        {
          "internalType": "contract IERC20",
          "name": "",
          "type": "address"
        }
      ],
      "stateMutability": "view",
      "type": "function"
    },
    {
      "inputs": [
        {
          "internalType": "contract IAmm",
          "name": "_amm",
          "type": "address"
        }
      ],
      "name": "removeAmm",
      "outputs": [],
      "stateMutability": "nonpayable",
      "type": "function"
    },
    {
      "inputs": [
        {
          "internalType": "contract IERC20",
          "name": "_token",
          "type": "address"
        }
      ],
      "name": "removeToken",
      "outputs": [],
      "stateMutability": "nonpayable",
      "type": "function"
    },
    {
      "inputs": [],
      "name": "renounceOwnership",
      "outputs": [],
      "stateMutability": "nonpayable",
      "type": "function"
    },
    {
      "inputs": [
        {
          "internalType": "address",
          "name": "_beneficiary",
          "type": "address"
        }
      ],
      "name": "setBeneficiary",
      "outputs": [],
      "stateMutability": "nonpayable",
      "type": "function"
    },
    {
      "inputs": [
        {
          "internalType": "contract IExchangeWrapper",
          "name": "_exchange",
          "type": "address"
        }
      ],
      "name": "setExchange",
      "outputs": [],
      "stateMutability": "nonpayable",
      "type": "function"
    },
    {
      "inputs": [
        {
          "internalType": "contract IInflationMonitor",
          "name": "_inflationMonitor",
          "type": "address"
        }
      ],
      "name": "setInflationMonitor",
      "outputs": [],
      "stateMutability": "nonpayable",
      "type": "function"
    },
    {
      "inputs": [
        {
          "internalType": "contract IMinter",
          "name": "_minter",
          "type": "address"
        }
      ],
      "name": "setMinter",
      "outputs": [],
      "stateMutability": "nonpayable",
      "type": "function"
    },
    {
      "inputs": [
        {
          "internalType": "address",
          "name": "newOwner",
          "type": "address"
        }
      ],
      "name": "setOwner",
      "outputs": [],
      "stateMutability": "nonpayable",
      "type": "function"
    },
    {
      "inputs": [],
      "name": "shutdownAllAmm",
      "outputs": [],
      "stateMutability": "nonpayable",
      "type": "function"
    },
    {
      "inputs": [
        {
          "internalType": "contract IERC20",
          "name": "_exceptionQuoteToken",
          "type": "address"
        }
      ],
      "name": "testGetOrderedQuoteTokens",
      "outputs": [
        {
          "internalType": "contract IERC20[]",
          "name": "orderedTokens",
          "type": "address[]"
        }
      ],
      "stateMutability": "view",
      "type": "function"
    },
    {
      "inputs": [],
      "name": "updateOwner",
      "outputs": [],
      "stateMutability": "nonpayable",
      "type": "function"
    },
    {
      "inputs": [
        {
          "internalType": "contract IERC20",
          "name": "_quoteToken",
          "type": "address"
        },
        {
          "components": [
            {
              "internalType": "uint256",
              "name": "d",
              "type": "uint256"
            }
          ],
          "internalType": "struct Decimal.decimal",
          "name": "_amount",
          "type": "tuple"
        }
      ],
      "name": "withdraw",
      "outputs": [],
      "stateMutability": "nonpayable",
      "type": "function"
    }
  ],
  "bytecode": "0x6080604052635611c23061016b5561271161016c5534801561002057600080fd5b50612cc9806100306000396000f3fe608060405234801561001057600080fd5b50600436106101a85760003560e01c80639432665a116100f9578063c68ade3711610097578063cf23097911610071578063cf2309791461031d578063d2f7265a14610330578063d926de1c14610338578063fca3b5aa1461034b576101a8565b8063c68ade37146102fa578063c77f7c611461030d578063ca58b19814610315576101a8565b8063b7538c62116100d3578063b7538c62146102b5578063b7d25e22146102ca578063bc5920ba146102dd578063beb0597a146102e5576101a8565b80639432665a146102925780639cadb3a0146102a55780639dd96eb2146102ad576101a8565b80632c9115c7116101665780636c8381f8116101405780636c8381f814610272578063715018a61461027a5780638129fc1c146102825780638da5cb5b1461028a576101a8565b80632c9115c7146102395780635fa7b5841461024c57806367b1f5df1461025f576101a8565b8062c141b6146101ad57806307546172146101c25780630774a784146101e057806313af4035146102005780631c31f71014610213578063252978b814610226575b600080fd5b6101c06101bb36600461261c565b61035e565b005b6101ca610364565b6040516101d79190612668565b60405180910390f35b6101f36101ee36600461253b565b610374565b6040516101d791906126e2565b6101c061020e36600461253b565b610393565b6101c061022136600461253b565b610475565b6101c0610234366004612593565b6104cd565b6101ca61024736600461261c565b610650565b6101c061025a36600461253b565b610678565b6101c061026d36600461253b565b61087f565b6101ca6108d7565b6101c06108e7565b6101c0610966565b6101ca6109f9565b6101c06102a036600461261c565b610a08565b6101ca610a0e565b6101c0610a1e565b6102bd610ba6565b6040516101d79190612695565b6102bd6102d836600461253b565b610c09565b6101c0610c1a565b6102ed610cdd565b6040516101d79190612c22565b6101c061030836600461253b565b610ce4565b6102ed610d3c565b6101ca610d4b565b6101c061032b36600461253b565b610d5b565b6101ca610ef5565b6101c061034636600461253b565b610f05565b6101c061035936600461253b565b61111d565b61016c55565b610136546001600160a01b031681565b6001600160a01b03166000908152610130602052604090205460ff1690565b61039b61120b565b6065546001600160a01b039081169116146103d15760405162461bcd60e51b81526004016103c890612b85565b60405180910390fd5b6001600160a01b0381166103f75760405162461bcd60e51b81526004016103c8906129d9565b6065546001600160a01b03828116911614156104255760405162461bcd60e51b81526004016103c890612bd2565b6066546001600160a01b03828116911614156104535760405162461bcd60e51b81526004016103c890612843565b606680546001600160a01b0319166001600160a01b0392909216919091179055565b61047d61120b565b6065546001600160a01b039081169116146104aa5760405162461bcd60e51b81526004016103c890612b85565b61013880546001600160a01b0319166001600160a01b0392909216919091179055565b6104d561120b565b610138546001600160a01b039081169116146105035760405162461bcd60e51b81526004016103c8906127d5565b61050c8261120f565b6105285760405162461bcd60e51b81526004016103c890612968565b610530612528565b6105398361122e565b905061054481611240565b61055b610556368590038501856125d2565b611240565b11156105a157610569612528565b6105888261057c368690038601866125d2565b9063ffffffff61124416565b90506105948482611270565b61059d8461122e565b9150505b6105b3610556368490038401846125d2565b6105bc82611240565b10156105da5760405162461bcd60e51b81526004016103c890612b5c565b6105fa836105e661120b565b6105f5368690038601866125d2565b611500565b7f7084f5476618d8e60b11ef0d7d3f06914655adb8793e28ff7f018d4c76d505d561062361120b565b610635610556368690038601866125d2565b60405161064392919061267c565b60405180910390a1505050565b610133818154811061065e57fe5b6000918252602090912001546001600160a01b0316905081565b61068061120b565b6065546001600160a01b039081169116146106ad5760405162461bcd60e51b81526004016103c890612b85565b6106b68161120f565b6106d25760405162461bcd60e51b81526004016103c890612773565b6001600160a01b038116600090815261013160205260408120805460ff191690556106fb610cdd565b905060005b818110156107e857826001600160a01b0316610133828154811061072057fe5b6000918252602090912001546001600160a01b031614156107e057600182038110156107ad57610133600183038154811061075757fe5b60009182526020909120015461013380546001600160a01b03909216918390811061077e57fe5b9060005260206000200160006101000a8154816001600160a01b0302191690836001600160a01b031602179055505b6101338054806107b957fe5b600082815260209020810160001990810180546001600160a01b03191690550190556107e8565b600101610700565b5060006107f76105568461122e565b111561084457600061080761162f565b90506001600160a01b0381166108265750610135546001600160a01b03165b61084183826108348661122e565b61083c6117b4565b6117cf565b50505b7f4c910b69fe65a61f7531b9c5042b2329ca7179c77290aa7e2eb3afa3c8511fd3826040516108739190612668565b60405180910390a15050565b61088761120b565b6065546001600160a01b039081169116146108b45760405162461bcd60e51b81526004016103c890612b85565b61013480546001600160a01b0319166001600160a01b0392909216919091179055565b6066546001600160a01b03165b90565b6108ef61120b565b6065546001600160a01b0390811691161461091c5760405162461bcd60e51b81526004016103c890612b85565b6065546040516000916001600160a01b0316907f8be0079c531659141344cd1fd0a4f28419497f9722a3daafe3b4186f6b6457e0908390a3606580546001600160a01b0319169055565b600054610100900460ff168061097f575061097f6118ce565b8061098d575060005460ff16155b6109a95760405162461bcd60e51b81526004016103c890612a1b565b600054610100900460ff161580156109d4576000805460ff1961ff0019909116610100171660011790555b6109dc6118d4565b6109e4611952565b80156109f6576000805461ff00191690555b50565b6065546001600160a01b031690565b61016b55565b610135546001600160a01b031681565b610a2661120b565b6065546001600160a01b03908116911614610a535760405162461bcd60e51b81526004016103c890612b85565b61013760009054906101000a90046001600160a01b03166001600160a01b0316633fe204d96040518163ffffffff1660e01b815260040160206040518083038186803b158015610aa257600080fd5b505afa158015610ab6573d6000803e3d6000fd5b505050506040513d601f19601f82011682018060405250810190610ada9190612557565b610ae357610ba4565b60005b61013254811015610b6b576101328181548110610aff57fe5b60009182526020822001546040805163fc0e74d160e01b815290516001600160a01b039092169263fc0e74d19260048084019382900301818387803b158015610b4757600080fd5b505af1158015610b5b573d6000803e3d6000fd5b505060019092019150610ae69050565b507ffc9f9c6cbb93f675af09b9bb43859333114dfa5e4c5abd35297e153f2434810143604051610b9b9190612c22565b60405180910390a15b565b6060610132805480602002602001604051908101604052809291908181526020018280548015610bff57602002820191906000526020600020905b81546001600160a01b03168152600190910190602001808311610be1575b5050505050905090565b6060610c14826119c8565b92915050565b6066546001600160a01b0316610c425760405162461bcd60e51b81526004016103c890612b0d565b610c4a61120b565b6066546001600160a01b03908116911614610c775760405162461bcd60e51b81526004016103c89061288a565b6066546065546040516001600160a01b0392831692909116907f8be0079c531659141344cd1fd0a4f28419497f9722a3daafe3b4186f6b6457e090600090a360668054606580546001600160a01b03199081166001600160a01b03841617909155169055565b6101335490565b610cec61120b565b6065546001600160a01b03908116911614610d195760405162461bcd60e51b81526004016103c890612b85565b61013780546001600160a01b0319166001600160a01b0392909216919091179055565b6000610d46611d53565b905090565b610137546001600160a01b031681565b610d6361120b565b6065546001600160a01b03908116911614610d905760405162461bcd60e51b81526004016103c890612b85565b610d9981610374565b610db55760405162461bcd60e51b81526004016103c890612912565b6001600160a01b038116600090815261013060205260408120805460ff1916905561013254905b81811015610ef057826001600160a01b03166101328281548110610dfc57fe5b6000918252602090912001546001600160a01b03161415610ee8576101326001830381548110610e2857fe5b60009182526020909120015461013280546001600160a01b039092169183908110610e4f57fe5b9060005260206000200160006101000a8154816001600160a01b0302191690836001600160a01b03160217905550610132805480610e8957fe5b600082815260209020810160001990810180546001600160a01b03191690550190556040517fdaad2af263ebb3abf337a324f20752addc3bf170971ce7b80cc3bfea1fcf30ee90610edb908590612668565b60405180910390a1610ef0565b600101610ddc565b505050565b610134546001600160a01b031681565b610f0d61120b565b6065546001600160a01b03908116911614610f3a5760405162461bcd60e51b81526004016103c890612b85565b610f4381610374565b15610f605760405162461bcd60e51b81526004016103c890612a69565b6001600160a01b03811660008181526101306020526040808220805460ff19166001908117909155610132805491820181559092527fc53bdfd4aa1ab65dfdaf681ca6bda958ae4a123d4ed68c4277796592280e783590910180546001600160a01b031916909217909155517f10cdbb821aa416c854add806e1d7e8138afe2a538921cebe99b1351362ae38b290610ff9908390612668565b60405180910390a16000816001600160a01b031663fdf262b76040518163ffffffff1660e01b815260040160206040518083038186803b15801561103c57600080fd5b505afa158015611050573d6000803e3d6000fd5b505050506040513d601f19601f820116820180604052508101906110749190612577565b905061107f8161120f565b61111957610133805460018082019092557f92e985329fb94cc1b424ebb0f7f2929b6d27383ca94c0ec71c44fb48bdf96d2c0180546001600160a01b0319166001600160a01b0384169081179091556000908152610131602052604090819020805460ff1916909217909155517f784c8f4dbf0ffedd6e72c76501c545a70f8b203b30a26ce542bf92ba87c248a490610873908390612668565b5050565b61112561120b565b6065546001600160a01b039081169116146111525760405162461bcd60e51b81526004016103c890612b85565b61013680546001600160a01b0319166001600160a01b0383811691909117918290556040805163eb7c8c2560e01b81529051929091169163eb7c8c2591600480820192602092909190829003018186803b1580156111af57600080fd5b505afa1580156111c3573d6000803e3d6000fd5b505050506040513d601f19601f820116820180604052508101906111e79190612577565b61013580546001600160a01b0319166001600160a01b039290921691909117905550565b3390565b6001600160a01b03166000908152610131602052604090205460ff1690565b611236612528565b610c148230611d5a565b5190565b61124c612528565b611254612528565b825184516112679163ffffffff611dee16565b81529392505050565b606061127b836119c8565b905060005b81518110156113d557611291612528565b611299612528565b6101345484516001600160a01b039091169063c643ea63908690869081106112bd57fe5b602002602001015188886040518463ffffffff1660e01b81526004016112e5939291906126ed565b60206040518083038186803b1580156112fd57600080fd5b505afa158015611311573d6000803e3d6000fd5b505050506040513d601f19601f8201168201806040525081019061133591906125f7565b905061135661055685858151811061134957fe5b602002602001015161122e565b61135f82611240565b116113905761138584848151811061137357fe5b6020026020010151878361083c6117b4565b915050505050611119565b6113b784848151811061139f57fe5b60200260200101518761083487878151811061134957fe5b91506113c9858363ffffffff61124416565b94505050600101611280565b5060006113e183611240565b1115610ef0576113ef612528565b610134546101355460405163c643ea6360e01b81526001600160a01b039283169263c643ea639261142992911690889088906004016126ed565b60206040518083038186803b15801561144157600080fd5b505afa158015611455573d6000803e3d6000fd5b505050506040513d601f19601f8201168201806040525081019061147991906125f7565b6101365460405163b90ffc4160e01b81529192506001600160a01b03169063b90ffc41906114ab908490600401612c18565b600060405180830381600087803b1580156114c557600080fd5b505af11580156114d9573d6000803e3d6000fd5b5050610135546114f992506001600160a01b03169050858361083c6117b4565b5050505050565b61150983611e30565b611511612528565b61151b8484611d5a565b905060006115298584611e7a565b905060006060866001600160a01b031663a9059cbb60e01b878560405160240161155492919061267c565b60408051601f198184030181529181526020820180516001600160e01b03166001600160e01b0319909416939093179092529051611592919061264c565b6000604051808303816000865af19150503d80600081146115cf576040519150601f19603f3d011682016040523d82523d6000602084013e6115d4565b606091505b50915091508180156115fe5750805115806115fe5750808060200190518101906115fe9190612557565b61161a5760405162461bcd60e51b81526004016103c89061279e565b61162687878587611ef0565b50505050505050565b61013354600090806116455760009150506108e4565b806001141561167b5761013360008154811061165d57fe5b6000918252602090912001546001600160a01b031691506108e49050565b600061013360008154811061168c57fe5b6000918252602090912001546001600160a01b03169050806116ac612528565b6116b58361122e565b905060015b848110156117aa57600061013382815481106116d257fe5b6000918252602090912001546001600160a01b031690506116f1612528565b610134546001600160a01b031663c1094e5b838861170e8261122e565b6040518463ffffffff1660e01b815260040161172c939291906126ed565b60206040518083038186803b15801561174457600080fd5b505afa158015611758573d6000803e3d6000fd5b505050506040513d601f19601f8201168201806040525081019061177c91906125f7565b90506000611790828663ffffffff611f4916565b60000b13156117a0578194508093505b50506001016116ba565b5090935050505090565b6117bc612528565b5060408051602081019091526000815290565b6117d7612528565b6117e083611240565b6117f3576117ec6117b4565b90506118c6565b6101345461180c9086906001600160a01b031685611f7a565b610134546001600160a01b031663e5e75d1e8686868661182a6117b4565b6040518663ffffffff1660e01b815260040161184a959493929190612710565b602060405180830381600087803b15801561186457600080fd5b505af1158015611878573d6000803e3d6000fd5b505050506040513d601f19601f8201168201806040525081019061189c91906125f7565b905060006118a982611240565b116118c65760405162461bcd60e51b81526004016103c89061293b565b949350505050565b303b1590565b600054610100900460ff16806118ed57506118ed6118ce565b806118fb575060005460ff16155b6119175760405162461bcd60e51b81526004016103c890612a1b565b600054610100900460ff16158015611942576000805460ff1961ff0019909116610100171660011790555b61194a611fa0565b6109e4612021565b600054610100900460ff168061196b575061196b6118ce565b80611979575060005460ff16155b6119955760405162461bcd60e51b81526004016103c890612a1b565b600054610100900460ff161580156119c0576000805460ff1961ff0019909116610100171660011790555b6109e46120fb565b606080610133805480602002602001604051908101604052809291908181526020018280548015611a2257602002820191906000526020600020905b81546001600160a01b03168152600190910190602001808311611a04575b50939450600093505050505b611a36610cdd565b811015611c7c5760006101338281548110611a4d57fe5b6000918252602090912001546001600160a01b03169050611a6c612528565b61013454610135546001600160a01b039182169163c1094e5b91859116611a928261122e565b6040518463ffffffff1660e01b8152600401611ab0939291906126ed565b60206040518083038186803b158015611ac857600080fd5b505afa158015611adc573d6000803e3d6000fd5b505050506040513d601f19601f82011682018060405250810190611b0091906125f7565b9050825b8015611c7157611b12612528565b6101345486516001600160a01b039091169063c1094e5b9088906000198601908110611b3a57fe5b602002602001015161013560009054906101000a90046001600160a01b0316611b6b8a600188038151811061134957fe5b6040518463ffffffff1660e01b8152600401611b89939291906126ed565b60206040518083038186803b158015611ba157600080fd5b505afa158015611bb5573d6000803e3d6000fd5b505050506040513d601f19601f82011682018060405250810190611bd991906125f7565b9050611be481611240565b611bed84611240565b1115611c6757856001830381518110611c0257fe5b6020026020010151868381518110611c1657fe5b60200260200101906001600160a01b031690816001600160a01b03168152505083866001840381518110611c4657fe5b60200260200101906001600160a01b031690816001600160a01b0316815250505b5060001901611b04565b505050600101611a2e565b50600181510367ffffffffffffffff81118015611c9857600080fd5b50604051908082528060200260200182016040528015611cc2578160200160208202803683370190505b5091506000805b8251811015611d4b57846001600160a01b0316838281518110611ce857fe5b60200260200101516001600160a01b03161415611d0457611d43565b828181518110611d1057fe5b6020026020010151848381518110611d2457fe5b6001600160a01b03909216602092830291909101909101526001909101905b600101611cc9565b505050919050565b61016b5490565b611d62612528565b611de783846001600160a01b03166370a08231856040518263ffffffff1660e01b8152600401611d929190612668565b60206040518083038186803b158015611daa57600080fd5b505afa158015611dbe573d6000803e3d6000fd5b505050506040513d601f19601f82011682018060405250810190611de29190612634565b61218a565b9392505050565b6000611de783836040518060400160405280601e81526020017f536166654d6174683a207375627472616374696f6e206f766572666c6f77000081525061221c565b6000611e3b82612248565b6001600160a01b038316600090815260fd60205260409020549091508114611119576001600160a01b0391909116600090815260fd6020526040902055565b600080611e8684612248565b905060128110611ec457611ebc611ea482601263ffffffff611dee16565b600a0a611eb085611240565b9063ffffffff61233516565b915050610c14565b6118c6611ed860128363ffffffff611dee16565b600a0a611ee485611240565b9063ffffffff61236f16565b611f23611f0d611f00868561218a565b839063ffffffff6123b116565b611f178686611d5a565b9063ffffffff611f4916565b60000b15611f435760405162461bcd60e51b81526004016103c890612acb565b50505050565b805182516000911015611f5e57506001610c14565b815183511015611f715750600019610c14565b50600092915050565b611f8383611e30565b611f958383611f906117b4565b6123d4565b610ef08383836123d4565b600054610100900460ff1680611fb95750611fb96118ce565b80611fc7575060005460ff16155b611fe35760405162461bcd60e51b81526004016103c890612a1b565b600054610100900460ff161580156109e4576000805460ff1961ff00199091166101001716600117905580156109f6576000805461ff001916905550565b600054610100900460ff168061203a575061203a6118ce565b80612048575060005460ff16155b6120645760405162461bcd60e51b81526004016103c890612a1b565b600054610100900460ff1615801561208f576000805460ff1961ff0019909116610100171660011790555b600061209961120b565b606580546001600160a01b0319166001600160a01b038316908117909155604051919250906000907f8be0079c531659141344cd1fd0a4f28419497f9722a3daafe3b4186f6b6457e0908290a35080156109f6576000805461ff001916905550565b600054610100900460ff168061211457506121146118ce565b80612122575060005460ff16155b61213e5760405162461bcd60e51b81526004016103c890612a1b565b600054610100900460ff16158015612169576000805460ff1961ff0019909116610100171660011790555b60cb805460ff1916600117905580156109f6576000805461ff001916905550565b612192612528565b600061219d84612248565b9050601281106121e2576040805160208101909152806121d76121c784601263ffffffff611dee16565b8690600a0a63ffffffff61236f16565b815250915050610c14565b60408051602081019091528061221261220260128563ffffffff611dee16565b8690600a0a63ffffffff61233516565b9052949350505050565b600081848411156122405760405162461bcd60e51b81526004016103c89190612740565b505050900390565b6001600160a01b038116600090815260fd602052604081205480610c145760408051600481526024810182526020810180516001600160e01b031663313ce56760e01b17905290516000916060916001600160a01b038716916122aa9161264c565b600060405180830381855afa9150503d80600081146122e5576040519150601f19603f3d011682016040523d82523d6000602084013e6122ea565b606091505b50915091508180156122fc5750805115155b6123185760405162461bcd60e51b81526004016103c8906128d1565b8080602001905181019061232c9190612634565b95945050505050565b60008261234457506000610c14565b8282028284828161235157fe5b0414611de75760405162461bcd60e51b81526004016103c890612998565b6000611de783836040518060400160405280601a81526020017f536166654d6174683a206469766973696f6e206279207a65726f0000000000008152506124cc565b6123b9612528565b6123c1612528565b825184516112679163ffffffff61250316565b600060606001600160a01b03851663095ea7b360e01b856123f58887611e7a565b60405160240161240692919061267c565b60408051601f198184030181529181526020820180516001600160e01b03166001600160e01b0319909416939093179092529051612444919061264c565b6000604051808303816000865af19150503d8060008114612481576040519150601f19603f3d011682016040523d82523d6000602084013e612486565b606091505b50915091508180156124b05750805115806124b05750808060200190518101906124b09190612557565b6114f95760405162461bcd60e51b81526004016103c890612a94565b600081836124ed5760405162461bcd60e51b81526004016103c89190612740565b5060008385816124f957fe5b0495945050505050565b600082820183811015611de75760405162461bcd60e51b81526004016103c89061280c565b6040518060200160405280600081525090565b60006020828403121561254c578081fd5b8135611de781612c7e565b600060208284031215612568578081fd5b81518015158114611de7578182fd5b600060208284031215612588578081fd5b8151611de781612c7e565b60008082840360408112156125a6578182fd5b83356125b181612c7e565b92506020601f19820112156125c4578182fd5b506020830190509250929050565b6000602082840312156125e3578081fd5b6125ed6020612c2b565b9135825250919050565b600060208284031215612608578081fd5b6126126020612c2b565b9151825250919050565b60006020828403121561262d578081fd5b5035919050565b600060208284031215612645578081fd5b5051919050565b6000825161265e818460208701612c52565b9190910192915050565b6001600160a01b0391909116815260200190565b6001600160a01b03929092168252602082015260400190565b6020808252825182820181905260009190848201906040850190845b818110156126d65783516001600160a01b0316835292840192918401916001016126b1565b50909695505050505050565b901515815260200190565b6001600160a01b0393841681529190921660208201529051604082015260600190565b6001600160a01b039586168152939094166020840152905160408301525160608201529051608082015260a00190565b600060208252825180602084015261275f816040850160208701612c52565b601f01601f19169190910160400192915050565b6020808252601190820152701d1bdad95b881b9bdd08195e1a5cdd1959607a1b604082015260600190565b6020808252601d908201527f446563696d616c45524332303a207472616e73666572206661696c6564000000604082015260600190565b60208082526019908201527f63616c6c6572206973206e6f742062656e656669636961727900000000000000604082015260600190565b6020808252601b908201527f536166654d6174683a206164646974696f6e206f766572666c6f770000000000604082015260600190565b60208082526027908201527f5065727046694f776e61626c65557067726164653a2073616d652061732063616040820152666e64696461746560c81b606082015260800190565b60208082526027908201527f5065727046694f776e61626c65557067726164653a206e6f7420746865206e656040820152663b9037bbb732b960c91b606082015260800190565b60208082526021908201527f446563696d616c45524332303a2067657420646563696d616c73206661696c656040820152601960fa1b606082015260800190565b6020808252600f908201526e185b5b481b9bdd08195e1a5cdd1959608a1b604082015260600190565b60208082526013908201527222bc31b430b733b29039bbb0b81032b93937b960691b604082015260600190565b602080825260169082015275105cdcd95d081a5cc81b9bdd081cdd5c1c1bdc9d195960521b604082015260600190565b60208082526021908201527f536166654d6174683a206d756c7469706c69636174696f6e206f766572666c6f6040820152607760f81b606082015260800190565b60208082526022908201527f5065727046694f776e61626c65557067726164653a207a65726f206164647265604082015261737360f01b606082015260800190565b6020808252602e908201527f436f6e747261637420696e7374616e63652068617320616c726561647920626560408201526d195b881a5b9a5d1a585b1a5e995960921b606082015260800190565b602080825260119082015270185b5b48185b1c9958591e481859191959607a1b604082015260600190565b6020808252601c908201527f446563696d616c45524332303a20617070726f7665206661696c656400000000604082015260600190565b60208082526022908201527f446563696d616c45524332303a2062616c616e636520696e636f6e73697374656040820152611b9d60f21b606082015260800190565b6020808252602f908201527f5065727046694f776e61626c65557067726164653a2063616e6469646174652060408201526e6973207a65726f206164647265737360881b606082015260800190565b6020808252600f908201526e08ceadcc840dcdee840cadcdeeaced608b1b604082015260600190565b6020808252602d908201527f5065727046694f776e61626c65557067726164653a2063616c6c65722069732060408201526c3737ba103a34329037bbb732b960991b606082015260800190565b60208082526026908201527f5065727046694f776e61626c65557067726164653a2073616d65206173206f726040820152651a59da5b985b60d21b606082015260800190565b9051815260200190565b90815260200190565b60405181810167ffffffffffffffff81118282101715612c4a57600080fd5b604052919050565b60005b83811015612c6d578181015183820152602001612c55565b83811115611f435750506000910152565b6001600160a01b03811681146109f657600080fdfea2646970667358221220354f2b5196154c7bbdf0ff9e7d82537fb0eb4396d02168cf9f5c8bb152b494e564736f6c63430006090033",
  "linkReferences": {},
  "deployedLinkReferences": {}
}