{
  "_format": "hh-sol-artifact-1",
  "contractName": "DecimalFake",
  "sourceName": "src/mock/DecimalFake.sol",
  "abi": [
    {
      "inputs": [],
      "stateMutability": "nonpayable",
      "type": "constructor"
    },
    {
      "inputs": [
        {
          "components": [
            {
              "internalType": "uint256",
              "name": "d",
              "type": "uint256"
            }
          ],
          "internalType": "struct Decimal.decimal",
          "name": "x",
          "type": "tuple"
        },
        {
          "components": [
            {
              "internalType": "uint256",
              "name": "d",
              "type": "uint256"
            }
          ],
          "internalType": "struct Decimal.decimal",
          "name": "y",
          "type": "tuple"
        }
      ],
      "name": "div",
      "outputs": [
        {
          "components": [
            {
              "internalType": "uint256",
              "name": "d",
              "type": "uint256"
            }
          ],
          "internalType": "struct Decimal.decimal",
          "name": "z",
          "type": "tuple"
        }
      ],
      "stateMutability": "pure",
      "type": "function"
    },
    {
      "inputs": [
        {
          "components": [
            {
              "internalType": "uint256",
              "name": "d",
              "type": "uint256"
            }
          ],
          "internalType": "struct Decimal.decimal",
          "name": "x",
          "type": "tuple"
        },
        {
          "internalType": "uint256",
          "name": "y",
          "type": "uint256"
        }
      ],
      "name": "divScalar",
      "outputs": [
        {
          "components": [
            {
              "internalType": "uint256",
              "name": "d",
              "type": "uint256"
            }
          ],
          "internalType": "struct Decimal.decimal",
          "name": "z",
          "type": "tuple"
        }
      ],
      "stateMutability": "pure",
      "type": "function"
    },
    {
      "inputs": [
        {
          "components": [
            {
              "internalType": "uint256",
              "name": "d",
              "type": "uint256"
            }
          ],
          "internalType": "struct Decimal.decimal",
          "name": "x",
          "type": "tuple"
        },
        {
          "components": [
            {
              "internalType": "uint256",
              "name": "d",
              "type": "uint256"
            }
          ],
          "internalType": "struct Decimal.decimal",
          "name": "y",
          "type": "tuple"
        }
      ],
      "name": "mul",
      "outputs": [
        {
          "components": [
            {
              "internalType": "uint256",
              "name": "d",
              "type": "uint256"
            }
          ],
          "internalType": "struct Decimal.decimal",
          "name": "z",
          "type": "tuple"
        }
      ],
      "stateMutability": "pure",
      "type": "function"
    },
    {
      "inputs": [
        {
          "components": [
            {
              "internalType": "uint256",
              "name": "d",
              "type": "uint256"
            }
          ],
          "internalType": "struct Decimal.decimal",
          "name": "x",
          "type": "tuple"
        },
        {
          "internalType": "uint256",
          "name": "y",
          "type": "uint256"
        }
      ],
      "name": "mulScalar",
      "outputs": [
        {
          "components": [
            {
              "internalType": "uint256",
              "name": "d",
              "type": "uint256"
            }
          ],
          "internalType": "struct Decimal.decimal",
          "name": "z",
          "type": "tuple"
        }
      ],
      "stateMutability": "pure",
      "type": "function"
    }
  ],
  "bytecode": "0x608060405234801561001057600080fd5b50610463806100206000396000f3fe608060405234801561001057600080fd5b506004361061004c5760003560e01c806345a5e9d014610051578063b0df7c1d1461007a578063b2eb1a5a1461008d578063c7fcab82146100a0575b600080fd5b61006461005f366004610365565b6100b3565b6040516100719190610423565b60405180910390f35b610064610088366004610331565b6100d2565b61006461009b366004610331565b6100ea565b6100646100ae366004610365565b610102565b6100bb6102e1565b6100cb838363ffffffff61011a16565b9392505050565b6100da6102e1565b6100cb838363ffffffff61014716565b6100f26102e1565b6100cb838363ffffffff61016a16565b61010a6102e1565b6100cb838363ffffffff61018d16565b6101226102e1565b61012a6102e1565b835161013c908463ffffffff6101af16565b815290505b92915050565b61014f6102e1565b6101576102e1565b8251845161013c9163ffffffff6101f216565b6101726102e1565b61017a6102e1565b8251845161013c9163ffffffff61020016565b6101956102e1565b61019d6102e1565b835161013c908463ffffffff61020e16565b6000826101be57506000610141565b828202828482816101cb57fe5b04146100cb5760405162461bcd60e51b81526004016101e9906103e2565b60405180910390fd5b60006100cb83836012610250565b60006100cb83836012610283565b60006100cb83836040518060400160405280601a81526020017f536166654d6174683a206469766973696f6e206279207a65726f0000000000008152506102a1565b600061027b8361026f610262856102d8565b879063ffffffff6101af16565b9063ffffffff61020e16565b949350505050565b600061027b610291836102d8565b61026f868663ffffffff6101af16565b600081836102c25760405162461bcd60e51b81526004016101e9919061038f565b5060008385816102ce57fe5b0495945050505050565b60ff16600a0a90565b6040518060200160405280600081525090565b600060208284031215610305578081fd5b6040516020810181811067ffffffffffffffff82111715610324578283fd5b6040529135825250919050565b60008060408385031215610343578182fd5b61034d84846102f4565b915061035c84602085016102f4565b90509250929050565b60008060408385031215610377578081fd5b61038184846102f4565b946020939093013593505050565b6000602080835283518082850152825b818110156103bb5785810183015185820160400152820161039f565b818111156103cc5783604083870101525b50601f01601f1916929092016040019392505050565b60208082526021908201527f536166654d6174683a206d756c7469706c69636174696f6e206f766572666c6f6040820152607760f81b606082015260800190565b905181526020019056fea26469706673582212206770a9a28d14fd287ec733a8a1a5976f5aaaf4d8a0e82642f0c9f6cc5cec728b64736f6c63430006090033",
  "linkReferences": {},
  "deployedLinkReferences": {}
}