{
  "_format": "hh-sol-artifact-1",
  "contractName": "ERC20Fake",
  "sourceName": "src/mock/ERC20Fake.sol",
  "abi": [
    {
      "anonymous": false,
      "inputs": [
        {
          "indexed": true,
          "internalType": "address",
          "name": "owner",
          "type": "address"
        },
        {
          "indexed": true,
          "internalType": "address",
          "name": "spender",
          "type": "address"
        },
        {
          "indexed": false,
          "internalType": "uint256",
          "name": "value",
          "type": "uint256"
        }
      ],
      "name": "Approval",
      "type": "event"
    },
    {
      "anonymous": false,
      "inputs": [
        {
          "indexed": false,
          "internalType": "address",
          "name": "account",
          "type": "address"
        }
      ],
      "name": "Paused",
      "type": "event"
    },
    {
      "anonymous": false,
      "inputs": [
        {
          "indexed": true,
          "internalType": "bytes32",
          "name": "role",
          "type": "bytes32"
        },
        {
          "indexed": true,
          "internalType": "address",
          "name": "account",
          "type": "address"
        },
        {
          "indexed": true,
          "internalType": "address",
          "name": "sender",
          "type": "address"
        }
      ],
      "name": "RoleGranted",
      "type": "event"
    },
    {
      "anonymous": false,
      "inputs": [
        {
          "indexed": true,
          "internalType": "bytes32",
          "name": "role",
          "type": "bytes32"
        },
        {
          "indexed": true,
          "internalType": "address",
          "name": "account",
          "type": "address"
        },
        {
          "indexed": true,
          "internalType": "address",
          "name": "sender",
          "type": "address"
        }
      ],
      "name": "RoleRevoked",
      "type": "event"
    },
    {
      "anonymous": false,
      "inputs": [
        {
          "indexed": true,
          "internalType": "address",
          "name": "from",
          "type": "address"
        },
        {
          "indexed": true,
          "internalType": "address",
          "name": "to",
          "type": "address"
        },
        {
          "indexed": false,
          "internalType": "uint256",
          "name": "value",
          "type": "uint256"
        }
      ],
      "name": "Transfer",
      "type": "event"
    },
    {
      "anonymous": false,
      "inputs": [
        {
          "indexed": false,
          "internalType": "address",
          "name": "account",
          "type": "address"
        }
      ],
      "name": "Unpaused",
      "type": "event"
    },
    {
      "inputs": [],
      "name": "DEFAULT_ADMIN_ROLE",
      "outputs": [
        {
          "internalType": "bytes32",
          "name": "",
          "type": "bytes32"
        }
      ],
      "stateMutability": "view",
      "type": "function"
    },
    {
      "inputs": [],
      "name": "MINTER_ROLE",
      "outputs": [
        {
          "internalType": "bytes32",
          "name": "",
          "type": "bytes32"
        }
      ],
      "stateMutability": "view",
      "type": "function"
    },
    {
      "inputs": [],
      "name": "PAUSER_ROLE",
      "outputs": [
        {
          "internalType": "bytes32",
          "name": "",
          "type": "bytes32"
        }
      ],
      "stateMutability": "view",
      "type": "function"
    },
    {
      "inputs": [
        {
          "internalType": "address",
          "name": "owner",
          "type": "address"
        },
        {
          "internalType": "address",
          "name": "spender",
          "type": "address"
        }
      ],
      "name": "allowance",
      "outputs": [
        {
          "internalType": "uint256",
          "name": "",
          "type": "uint256"
        }
      ],
      "stateMutability": "view",
      "type": "function"
    },
    {
      "inputs": [
        {
          "internalType": "address",
          "name": "spender",
          "type": "address"
        },
        {
          "internalType": "uint256",
          "name": "amount",
          "type": "uint256"
        }
      ],
      "name": "approve",
      "outputs": [
        {
          "internalType": "bool",
          "name": "",
          "type": "bool"
        }
      ],
      "stateMutability": "nonpayable",
      "type": "function"
    },
    {
      "inputs": [
        {
          "internalType": "address",
          "name": "account",
          "type": "address"
        }
      ],
      "name": "balanceOf",
      "outputs": [
        {
          "internalType": "uint256",
          "name": "",
          "type": "uint256"
        }
      ],
      "stateMutability": "view",
      "type": "function"
    },
    {
      "inputs": [
        {
          "internalType": "uint256",
          "name": "amount",
          "type": "uint256"
        }
      ],
      "name": "burn",
      "outputs": [],
      "stateMutability": "nonpayable",
      "type": "function"
    },
    {
      "inputs": [
        {
          "internalType": "address",
          "name": "account",
          "type": "address"
        },
        {
          "internalType": "uint256",
          "name": "amount",
          "type": "uint256"
        }
      ],
      "name": "burnFrom",
      "outputs": [],
      "stateMutability": "nonpayable",
      "type": "function"
    },
    {
      "inputs": [],
      "name": "decimals",
      "outputs": [
        {
          "internalType": "uint8",
          "name": "",
          "type": "uint8"
        }
      ],
      "stateMutability": "view",
      "type": "function"
    },
    {
      "inputs": [
        {
          "internalType": "address",
          "name": "spender",
          "type": "address"
        },
        {
          "internalType": "uint256",
          "name": "subtractedValue",
          "type": "uint256"
        }
      ],
      "name": "decreaseAllowance",
      "outputs": [
        {
          "internalType": "bool",
          "name": "",
          "type": "bool"
        }
      ],
      "stateMutability": "nonpayable",
      "type": "function"
    },
    {
      "inputs": [
        {
          "internalType": "bytes32",
          "name": "role",
          "type": "bytes32"
        }
      ],
      "name": "getRoleAdmin",
      "outputs": [
        {
          "internalType": "bytes32",
          "name": "",
          "type": "bytes32"
        }
      ],
      "stateMutability": "view",
      "type": "function"
    },
    {
      "inputs": [
        {
          "internalType": "bytes32",
          "name": "role",
          "type": "bytes32"
        },
        {
          "internalType": "uint256",
          "name": "index",
          "type": "uint256"
        }
      ],
      "name": "getRoleMember",
      "outputs": [
        {
          "internalType": "address",
          "name": "",
          "type": "address"
        }
      ],
      "stateMutability": "view",
      "type": "function"
    },
    {
      "inputs": [
        {
          "internalType": "bytes32",
          "name": "role",
          "type": "bytes32"
        }
      ],
      "name": "getRoleMemberCount",
      "outputs": [
        {
          "internalType": "uint256",
          "name": "",
          "type": "uint256"
        }
      ],
      "stateMutability": "view",
      "type": "function"
    },
    {
      "inputs": [
        {
          "internalType": "bytes32",
          "name": "role",
          "type": "bytes32"
        },
        {
          "internalType": "address",
          "name": "account",
          "type": "address"
        }
      ],
      "name": "grantRole",
      "outputs": [],
      "stateMutability": "nonpayable",
      "type": "function"
    },
    {
      "inputs": [
        {
          "internalType": "bytes32",
          "name": "role",
          "type": "bytes32"
        },
        {
          "internalType": "address",
          "name": "account",
          "type": "address"
        }
      ],
      "name": "hasRole",
      "outputs": [
        {
          "internalType": "bool",
          "name": "",
          "type": "bool"
        }
      ],
      "stateMutability": "view",
      "type": "function"
    },
    {
      "inputs": [
        {
          "internalType": "address",
          "name": "spender",
          "type": "address"
        },
        {
          "internalType": "uint256",
          "name": "addedValue",
          "type": "uint256"
        }
      ],
      "name": "increaseAllowance",
      "outputs": [
        {
          "internalType": "bool",
          "name": "",
          "type": "bool"
        }
      ],
      "stateMutability": "nonpayable",
      "type": "function"
    },
    {
      "inputs": [
        {
          "internalType": "string",
          "name": "name",
          "type": "string"
        },
        {
          "internalType": "string",
          "name": "symbol",
          "type": "string"
        }
      ],
      "name": "initialize",
      "outputs": [],
      "stateMutability": "nonpayable",
      "type": "function"
    },
    {
      "inputs": [
        {
          "internalType": "uint256",
          "name": "initialSupply",
          "type": "uint256"
        },
        {
          "internalType": "string",
          "name": "name",
          "type": "string"
        },
        {
          "internalType": "string",
          "name": "symbol",
          "type": "string"
        },
        {
          "internalType": "uint8",
          "name": "decimal",
          "type": "uint8"
        }
      ],
      "name": "initializeERC20Fake",
      "outputs": [],
      "stateMutability": "nonpayable",
      "type": "function"
    },
    {
      "inputs": [
        {
          "internalType": "address",
          "name": "to",
          "type": "address"
        },
        {
          "internalType": "uint256",
          "name": "amount",
          "type": "uint256"
        }
      ],
      "name": "mint",
      "outputs": [],
      "stateMutability": "nonpayable",
      "type": "function"
    },
    {
      "inputs": [],
      "name": "name",
      "outputs": [
        {
          "internalType": "string",
          "name": "",
          "type": "string"
        }
      ],
      "stateMutability": "view",
      "type": "function"
    },
    {
      "inputs": [],
      "name": "pause",
      "outputs": [],
      "stateMutability": "nonpayable",
      "type": "function"
    },
    {
      "inputs": [],
      "name": "paused",
      "outputs": [
        {
          "internalType": "bool",
          "name": "",
          "type": "bool"
        }
      ],
      "stateMutability": "view",
      "type": "function"
    },
    {
      "inputs": [
        {
          "internalType": "bytes32",
          "name": "role",
          "type": "bytes32"
        },
        {
          "internalType": "address",
          "name": "account",
          "type": "address"
        }
      ],
      "name": "renounceRole",
      "outputs": [],
      "stateMutability": "nonpayable",
      "type": "function"
    },
    {
      "inputs": [
        {
          "internalType": "bytes32",
          "name": "role",
          "type": "bytes32"
        },
        {
          "internalType": "address",
          "name": "account",
          "type": "address"
        }
      ],
      "name": "revokeRole",
      "outputs": [],
      "stateMutability": "nonpayable",
      "type": "function"
    },
    {
      "inputs": [],
      "name": "symbol",
      "outputs": [
        {
          "internalType": "string",
          "name": "",
          "type": "string"
        }
      ],
      "stateMutability": "view",
      "type": "function"
    },
    {
      "inputs": [],
      "name": "totalSupply",
      "outputs": [
        {
          "internalType": "uint256",
          "name": "",
          "type": "uint256"
        }
      ],
      "stateMutability": "view",
      "type": "function"
    },
    {
      "inputs": [
        {
          "internalType": "address",
          "name": "recipient",
          "type": "address"
        },
        {
          "internalType": "uint256",
          "name": "amount",
          "type": "uint256"
        }
      ],
      "name": "transfer",
      "outputs": [
        {
          "internalType": "bool",
          "name": "",
          "type": "bool"
        }
      ],
      "stateMutability": "nonpayable",
      "type": "function"
    },
    {
      "inputs": [
        {
          "internalType": "address",
          "name": "sender",
          "type": "address"
        },
        {
          "internalType": "address",
          "name": "recipient",
          "type": "address"
        },
        {
          "internalType": "uint256",
          "name": "amount",
          "type": "uint256"
        }
      ],
      "name": "transferFrom",
      "outputs": [
        {
          "internalType": "bool",
          "name": "",
          "type": "bool"
        }
      ],
      "stateMutability": "nonpayable",
      "type": "function"
    },
    {
      "inputs": [],
      "name": "unpause",
      "outputs": [],
      "stateMutability": "nonpayable",
      "type": "function"
    }
  ],
  "bytecode": "0x608060405234801561001057600080fd5b50611ece806100206000396000f3fe608060405234801561001057600080fd5b50600436106101cf5760003560e01c80636cb9fd5411610104578063a217fddf116100a2578063d539139311610071578063d5391393146103a3578063d547741f146103ab578063dd62ed3e146103be578063e63ab1e9146103d1576101cf565b8063a217fddf14610362578063a457c2d71461036a578063a9059cbb1461037d578063ca15c87314610390576101cf565b80638456cb59116100de5780638456cb591461031f5780639010d07c1461032757806391d148541461034757806395d89b411461035a576101cf565b80636cb9fd54146102e657806370a08231146102f957806379cc67901461030c576101cf565b806336568abe1161017157806340c10f191161014b57806340c10f19146102a557806342966c68146102b85780634cd88b76146102cb5780635c975abb146102de576101cf565b806336568abe14610277578063395093511461028a5780633f4ba83a1461029d576101cf565b806323b872dd116101ad57806323b872dd14610227578063248a9ca31461023a5780632f2ff15d1461024d578063313ce56714610262576101cf565b806306fdde03146101d4578063095ea7b3146101f257806318160ddd14610212575b600080fd5b6101dc6103d9565b6040516101e9919061187c565b60405180910390f35b6102056102003660046116b1565b610470565b6040516101e99190611868565b61021a61048e565b6040516101e99190611873565b610205610235366004611671565b610494565b61021a6102483660046116db565b610521565b61026061025b3660046116f3565b610536565b005b61026a610587565b6040516101e99190611dbc565b6102606102853660046116f3565b610590565b6102056102983660046116b1565b6105d2565b610260610626565b6102606102b33660046116b1565b61066b565b6102606102c63660046116db565b6106a0565b6102606102d9366004611743565b6106b4565b6102056106be565b6102606102f43660046117a4565b6106c7565b61021a610307366004611622565b610772565b61026061031a3660046116b1565b61078d565b6102606107e8565b61033a610335366004611722565b61081b565b6040516101e99190611854565b6102056103553660046116f3565b610840565b6101dc61085e565b61021a6108bf565b6102056103783660046116b1565b6108c4565b61020561038b3660046116b1565b610932565b61021a61039e3660046116db565b610946565b61021a61095d565b6102606103b93660046116f3565b610974565b61021a6103cc36600461163d565b6109ae565b61021a6109d9565b609a8054604080516020601f60026000196101006001881615020190951694909404938401819004810282018101909252828152606093909290918301828280156104655780601f1061043a57610100808354040283529160200191610465565b820191906000526020600020905b81548152906001019060200180831161044857829003601f168201915b505050505090505b90565b600061048461047d6109e5565b84846109e9565b5060015b92915050565b60995490565b60006104a1848484610a9d565b610517846104ad6109e5565b61051285604051806060016040528060288152602001611e28602891396001600160a01b038a166000908152609860205260408120906104eb6109e5565b6001600160a01b03168152602081019190915260400160002054919063ffffffff610bbe16565b6109e9565b5060019392505050565b60009081526065602052604090206002015490565b600082815260656020526040902060020154610554906103556109e5565b6105795760405162461bcd60e51b815260040161057090611954565b60405180910390fd5b6105838282610bea565b5050565b609c5460ff1690565b6105986109e5565b6001600160a01b0316816001600160a01b0316146105c85760405162461bcd60e51b815260040161057090611cec565b6105838282610c59565b60006104846105df6109e5565b8461051285609860006105f06109e5565b6001600160a01b03908116825260208083019390935260409182016000908120918c16815292529020549063ffffffff610cc816565b61064560405161063590611826565b60405180910390206103556109e5565b6106615760405162461bcd60e51b8152600401610570906119d1565b610669610ced565b565b61067a6040516106359061183d565b6106965760405162461bcd60e51b815260040161057090611b21565b6105838282610d59565b6106b16106ab6109e5565b82610e25565b50565b6105838282610f07565b60fb5460ff1690565b600054610100900460ff16806106e057506106e0610fc7565b806106ee575060005460ff16155b61070a5760405162461bcd60e51b815260040161057090611b77565b600054610100900460ff16158015610735576000805460ff1961ff0019909116610100171660011790555b61073f84846106b4565b61074882610fcd565b6107596107536109e5565b86610d59565b801561076b576000805461ff00191690555b5050505050565b6001600160a01b031660009081526097602052604090205490565b60006107c582604051806060016040528060248152602001611e50602491396107b8866103cc6109e5565b919063ffffffff610bbe16565b90506107d9836107d36109e5565b836109e9565b6107e38383610e25565b505050565b6107f760405161063590611826565b6108135760405162461bcd60e51b815260040161057090611c8f565b610669610fe3565b6000828152606560205260408120610839908363ffffffff61103c16565b9392505050565b6000828152606560205260408120610839908363ffffffff61104816565b609b8054604080516020601f60026000196101006001881615020190951694909404938401819004810282018101909252828152606093909290918301828280156104655780601f1061043a57610100808354040283529160200191610465565b600081565b60006104846108d16109e5565b8461051285604051806060016040528060258152602001611e7460259139609860006108fb6109e5565b6001600160a01b03908116825260208083019390935260409182016000908120918d1681529252902054919063ffffffff610bbe16565b600061048461093f6109e5565b8484610a9d565b60008181526065602052604081206104889061105d565b6040516109699061183d565b604051809103902081565b600082815260656020526040902060020154610992906103556109e5565b6105c85760405162461bcd60e51b815260040161057090611aa7565b6001600160a01b03918216600090815260986020908152604080832093909416825291909152205490565b60405161096990611826565b3390565b6001600160a01b038316610a0f5760405162461bcd60e51b815260040161057090611c4b565b6001600160a01b038216610a355760405162461bcd60e51b815260040161057090611a2e565b6001600160a01b0380841660008181526098602090815260408083209487168084529490915290819020849055517f8c5be1e5ebec7d5bd14f71427d1e84f3dd0314c0f7b2291e5b200ac8c7c3b92590610a90908590611873565b60405180910390a3505050565b6001600160a01b038316610ac35760405162461bcd60e51b815260040161057090611c06565b6001600160a01b038216610ae95760405162461bcd60e51b815260040161057090611911565b610af4838383611068565b610b3781604051806060016040528060268152602001611e02602691396001600160a01b038616600090815260976020526040902054919063ffffffff610bbe16565b6001600160a01b038085166000908152609760205260408082209390935590841681522054610b6c908263ffffffff610cc816565b6001600160a01b0380841660008181526097602052604090819020939093559151908516907fddf252ad1be2c89b69c2b068fc378daa952ba7f163c4a11628f55a4df523b3ef90610a90908590611873565b60008184841115610be25760405162461bcd60e51b8152600401610570919061187c565b505050900390565b6000828152606560205260409020610c08908263ffffffff61107316565b1561058357610c156109e5565b6001600160a01b0316816001600160a01b0316837f2f8788117e7eff1d82e926ec794901d17c78024a50270940304540a733656f0d60405160405180910390a45050565b6000828152606560205260409020610c77908263ffffffff61108816565b1561058357610c846109e5565b6001600160a01b0316816001600160a01b0316837ff6391f5c32d9c69d2a47ea670b442974b53935d1edc7fd64eb21e047a839171b60405160405180910390a45050565b6000828201838110156108395760405162461bcd60e51b815260040161057090611a70565b60fb5460ff16610d0f5760405162461bcd60e51b8152600401610570906119a3565b60fb805460ff191690557f5db9ee0a495bf2e6ff9c91a7834c1ba4fdd244a5e8aa4e537bd38aeae4b073aa610d426109e5565b604051610d4f9190611854565b60405180910390a1565b6001600160a01b038216610d7f5760405162461bcd60e51b815260040161057090611d3b565b610d8b60008383611068565b609954610d9e908263ffffffff610cc816565b6099556001600160a01b038216600090815260976020526040902054610dca908263ffffffff610cc816565b6001600160a01b0383166000818152609760205260408082209390935591519091907fddf252ad1be2c89b69c2b068fc378daa952ba7f163c4a11628f55a4df523b3ef90610e19908590611873565b60405180910390a35050565b6001600160a01b038216610e4b5760405162461bcd60e51b815260040161057090611bc5565b610e5782600083611068565b610e9a81604051806060016040528060228152602001611de0602291396001600160a01b038516600090815260976020526040902054919063ffffffff610bbe16565b6001600160a01b038316600090815260976020526040902055609954610ec6908263ffffffff61109d16565b6099556040516000906001600160a01b038416907fddf252ad1be2c89b69c2b068fc378daa952ba7f163c4a11628f55a4df523b3ef90610e19908590611873565b600054610100900460ff1680610f205750610f20610fc7565b80610f2e575060005460ff16155b610f4a5760405162461bcd60e51b815260040161057090611b77565b600054610100900460ff16158015610f75576000805460ff1961ff0019909116610100171660011790555b610f7d6110df565b610f856110df565b610f8f8383611161565b610f976110df565b610f9f61121a565b610fa76110df565b610fb183836112a6565b80156107e3576000805461ff0019169055505050565b303b1590565b609c805460ff191660ff92909216919091179055565b60fb5460ff16156110065760405162461bcd60e51b815260040161057090611af7565b60fb805460ff191660011790557f62e78cea01bee320cd4e420270b5ea74000d11b0c9f74754ebdbfc544b05a258610d426109e5565b60006108398383611354565b6000610839836001600160a01b038416611399565b6000610488826113b1565b6107e38383836113b5565b6000610839836001600160a01b0384166113e5565b6000610839836001600160a01b03841661142f565b600061083983836040518060400160405280601e81526020017f536166654d6174683a207375627472616374696f6e206f766572666c6f770000815250610bbe565b600054610100900460ff16806110f857506110f8610fc7565b80611106575060005460ff16155b6111225760405162461bcd60e51b815260040161057090611b77565b600054610100900460ff1615801561114d576000805460ff1961ff0019909116610100171660011790555b80156106b1576000805461ff001916905550565b600054610100900460ff168061117a575061117a610fc7565b80611188575060005460ff16155b6111a45760405162461bcd60e51b815260040161057090611b77565b600054610100900460ff161580156111cf576000805460ff1961ff0019909116610100171660011790555b82516111e290609a9060208601906114f5565b5081516111f690609b9060208501906114f5565b50609c805460ff1916601217905580156107e3576000805461ff0019169055505050565b600054610100900460ff16806112335750611233610fc7565b80611241575060005460ff16155b61125d5760405162461bcd60e51b815260040161057090611b77565b600054610100900460ff16158015611288576000805460ff1961ff0019909116610100171660011790555b60fb805460ff1916905580156106b1576000805461ff001916905550565b600054610100900460ff16806112bf57506112bf610fc7565b806112cd575060005460ff16155b6112e95760405162461bcd60e51b815260040161057090611b77565b600054610100900460ff16158015611314576000805460ff1961ff0019909116610100171660011790555b61132660006113216109e5565b610579565b6113456040516113359061183d565b60405180910390206113216109e5565b610fb160405161133590611826565b815460009082106113775760405162461bcd60e51b8152600401610570906118cf565b82600001828154811061138657fe5b9060005260206000200154905092915050565b60009081526001919091016020526040902054151590565b5490565b6113c08383836107e3565b6113c86106be565b156107e35760405162461bcd60e51b815260040161057090611d72565b60006113f18383611399565b61142757508154600181810184556000848152602080822090930184905584548482528286019093526040902091909155610488565b506000610488565b600081815260018301602052604081205480156114eb578354600019808301919081019060009087908390811061146257fe5b906000526020600020015490508087600001848154811061147f57fe5b6000918252602080832090910192909255828152600189810190925260409020908401905586548790806114af57fe5b60019003818190600052602060002001600090559055866001016000878152602001908152602001600020600090556001945050505050610488565b6000915050610488565b828054600181600116156101000203166002900490600052602060002090601f016020900481019282601f1061153657805160ff1916838001178555611563565b82800160010185558215611563579182015b82811115611563578251825591602001919060010190611548565b5061156f929150611573565b5090565b61046d91905b8082111561156f5760008155600101611579565b80356001600160a01b038116811461048857600080fd5b600082601f8301126115b4578081fd5b813567ffffffffffffffff808211156115cb578283fd5b604051601f8301601f1916810160200182811182821017156115eb578485fd5b60405282815292508284830160200186101561160657600080fd5b8260208601602083013760006020848301015250505092915050565b600060208284031215611633578081fd5b610839838361158d565b6000806040838503121561164f578081fd5b611659848461158d565b9150611668846020850161158d565b90509250929050565b600080600060608486031215611685578081fd5b833561169081611dca565b925060208401356116a081611dca565b929592945050506040919091013590565b600080604083850312156116c3578182fd5b6116cd848461158d565b946020939093013593505050565b6000602082840312156116ec578081fd5b5035919050565b60008060408385031215611705578182fd5b82359150602083013561171781611dca565b809150509250929050565b60008060408385031215611734578182fd5b50508035926020909101359150565b60008060408385031215611755578182fd5b823567ffffffffffffffff8082111561176c578384fd5b611778868387016115a4565b9350602085013591508082111561178d578283fd5b5061179a858286016115a4565b9150509250929050565b600080600080608085870312156117b9578081fd5b84359350602085013567ffffffffffffffff808211156117d7578283fd5b6117e3888389016115a4565b945060408701359150808211156117f8578283fd5b50611805878288016115a4565b925050606085013560ff8116811461181b578182fd5b939692955090935050565b6a5041555345525f524f4c4560a81b8152600b0190565b6a4d494e5445525f524f4c4560a81b8152600b0190565b6001600160a01b0391909116815260200190565b901515815260200190565b90815260200190565b6000602080835283518082850152825b818110156118a85785810183015185820160400152820161188c565b818111156118b95783604083870101525b50601f01601f1916929092016040019392505050565b60208082526022908201527f456e756d657261626c655365743a20696e646578206f7574206f6620626f756e604082015261647360f01b606082015260800190565b60208082526023908201527f45524332303a207472616e7366657220746f20746865207a65726f206164647260408201526265737360e81b606082015260800190565b6020808252602f908201527f416363657373436f6e74726f6c3a2073656e646572206d75737420626520616e60408201526e0818591b5a5b881d1bc819dc985b9d608a1b606082015260800190565b60208082526014908201527314185d5cd8589b194e881b9bdd081c185d5cd95960621b604082015260600190565b60208082526039908201527f45524332305072657365744d696e7465725061757365723a206d75737420686160408201527f76652070617573657220726f6c6520746f20756e706175736500000000000000606082015260800190565b60208082526022908201527f45524332303a20617070726f766520746f20746865207a65726f206164647265604082015261737360f01b606082015260800190565b6020808252601b908201527f536166654d6174683a206164646974696f6e206f766572666c6f770000000000604082015260600190565b60208082526030908201527f416363657373436f6e74726f6c3a2073656e646572206d75737420626520616e60408201526f2061646d696e20746f207265766f6b6560801b606082015260800190565b60208082526010908201526f14185d5cd8589b194e881c185d5cd95960821b604082015260600190565b60208082526036908201527f45524332305072657365744d696e7465725061757365723a206d7573742068616040820152751d99481b5a5b9d195c881c9bdb19481d1bc81b5a5b9d60521b606082015260800190565b6020808252602e908201527f436f6e747261637420696e7374616e63652068617320616c726561647920626560408201526d195b881a5b9a5d1a585b1a5e995960921b606082015260800190565b60208082526021908201527f45524332303a206275726e2066726f6d20746865207a65726f206164647265736040820152607360f81b606082015260800190565b60208082526025908201527f45524332303a207472616e736665722066726f6d20746865207a65726f206164604082015264647265737360d81b606082015260800190565b60208082526024908201527f45524332303a20617070726f76652066726f6d20746865207a65726f206164646040820152637265737360e01b606082015260800190565b60208082526037908201527f45524332305072657365744d696e7465725061757365723a206d75737420686160408201527f76652070617573657220726f6c6520746f207061757365000000000000000000606082015260800190565b6020808252602f908201527f416363657373436f6e74726f6c3a2063616e206f6e6c792072656e6f756e636560408201526e103937b632b9903337b91039b2b63360891b606082015260800190565b6020808252601f908201527f45524332303a206d696e7420746f20746865207a65726f206164647265737300604082015260600190565b6020808252602a908201527f45524332305061757361626c653a20746f6b656e207472616e736665722077686040820152691a5b19481c185d5cd95960b21b606082015260800190565b60ff91909116815260200190565b6001600160a01b03811681146106b157600080fdfe45524332303a206275726e20616d6f756e7420657863656564732062616c616e636545524332303a207472616e7366657220616d6f756e7420657863656564732062616c616e636545524332303a207472616e7366657220616d6f756e74206578636565647320616c6c6f77616e636545524332303a206275726e20616d6f756e74206578636565647320616c6c6f77616e636545524332303a2064656372656173656420616c6c6f77616e63652062656c6f77207a65726fa26469706673582212201162b717e7e89588c9fa44a282db2084ef6f6a5cd5136fbff8f46cc32256f23164736f6c63430006090033",
  "linkReferences": {},
  "deployedLinkReferences": {}
}