{
  "_format": "hh-sol-artifact-1",
  "contractName": "Amm",
  "sourceName": "src/Amm.sol",
  "abi": [
    {
      "anonymous": false,
      "inputs": [
        {
          "indexed": false,
          "internalType": "uint256",
          "name": "maxHoldingBaseAsset",
          "type": "uint256"
        },
        {
          "indexed": false,
          "internalType": "uint256",
          "name": "openInterestNotionalCap",
          "type": "uint256"
        }
      ],
      "name": "CapChanged",
      "type": "event"
    },
    {
      "anonymous": false,
      "inputs": [
        {
          "indexed": false,
          "internalType": "int256",
          "name": "rate",
          "type": "int256"
        },
        {
          "indexed": false,
          "internalType": "uint256",
          "name": "underlyingPrice",
          "type": "uint256"
        }
      ],
      "name": "FundingRateUpdated",
      "type": "event"
    },
    {
      "anonymous": false,
      "inputs": [
        {
          "indexed": false,
          "internalType": "uint256",
          "name": "quoteReserve",
          "type": "uint256"
        },
        {
          "indexed": false,
          "internalType": "uint256",
          "name": "baseReserve",
          "type": "uint256"
        },
        {
          "indexed": false,
          "internalType": "int256",
          "name": "cumulativeNotional",
          "type": "int256"
        }
      ],
      "name": "LiquidityChanged",
      "type": "event"
    },
    {
      "anonymous": false,
      "inputs": [
        {
          "indexed": true,
          "internalType": "address",
          "name": "previousOwner",
          "type": "address"
        },
        {
          "indexed": true,
          "internalType": "address",
          "name": "newOwner",
          "type": "address"
        }
      ],
      "name": "OwnershipTransferred",
      "type": "event"
    },
    {
      "anonymous": false,
      "inputs": [
        {
          "indexed": false,
          "internalType": "address",
          "name": "priceFeed",
          "type": "address"
        }
      ],
      "name": "PriceFeedUpdated",
      "type": "event"
    },
    {
      "anonymous": false,
      "inputs": [
        {
          "indexed": false,
          "internalType": "uint256",
          "name": "quoteAssetReserve",
          "type": "uint256"
        },
        {
          "indexed": false,
          "internalType": "uint256",
          "name": "baseAssetReserve",
          "type": "uint256"
        },
        {
          "indexed": false,
          "internalType": "uint256",
          "name": "timestamp",
          "type": "uint256"
        }
      ],
      "name": "ReserveSnapshotted",
      "type": "event"
    },
    {
      "anonymous": false,
      "inputs": [
        {
          "indexed": false,
          "internalType": "uint256",
          "name": "settlementPrice",
          "type": "uint256"
        }
      ],
      "name": "Shutdown",
      "type": "event"
    },
    {
      "anonymous": false,
      "inputs": [
        {
          "indexed": false,
          "internalType": "enum IAmm.Dir",
          "name": "dir",
          "type": "uint8"
        },
        {
          "indexed": false,
          "internalType": "uint256",
          "name": "quoteAssetAmount",
          "type": "uint256"
        },
        {
          "indexed": false,
          "internalType": "uint256",
          "name": "baseAssetAmount",
          "type": "uint256"
        }
      ],
      "name": "SwapInput",
      "type": "event"
    },
    {
      "anonymous": false,
      "inputs": [
        {
          "indexed": false,
          "internalType": "enum IAmm.Dir",
          "name": "dir",
          "type": "uint8"
        },
        {
          "indexed": false,
          "internalType": "uint256",
          "name": "quoteAssetAmount",
          "type": "uint256"
        },
        {
          "indexed": false,
          "internalType": "uint256",
          "name": "baseAssetAmount",
          "type": "uint256"
        }
      ],
      "name": "SwapOutput",
      "type": "event"
    },
    {
      "inputs": [],
      "name": "MAX_ORACLE_SPREAD_RATIO",
      "outputs": [
        {
          "internalType": "uint256",
          "name": "",
          "type": "uint256"
        }
      ],
      "stateMutability": "view",
      "type": "function"
    },
    {
      "inputs": [],
      "name": "baseAssetReserve",
      "outputs": [
        {
          "internalType": "uint256",
          "name": "d",
          "type": "uint256"
        }
      ],
      "stateMutability": "view",
      "type": "function"
    },
    {
      "inputs": [
        {
          "components": [
            {
              "internalType": "int256",
              "name": "d",
              "type": "int256"
            }
          ],
          "internalType": "struct SignedDecimal.signedDecimal",
          "name": "_baseAssetAmount",
          "type": "tuple"
        },
        {
          "components": [
            {
              "internalType": "uint256",
              "name": "d",
              "type": "uint256"
            }
          ],
          "internalType": "struct Decimal.decimal",
          "name": "_fromQuoteReserve",
          "type": "tuple"
        },
        {
          "components": [
            {
              "internalType": "uint256",
              "name": "d",
              "type": "uint256"
            }
          ],
          "internalType": "struct Decimal.decimal",
          "name": "_fromBaseReserve",
          "type": "tuple"
        }
      ],
      "name": "calcBaseAssetAfterLiquidityMigration",
      "outputs": [
        {
          "components": [
            {
              "internalType": "int256",
              "name": "d",
              "type": "int256"
            }
          ],
          "internalType": "struct SignedDecimal.signedDecimal",
          "name": "",
          "type": "tuple"
        }
      ],
      "stateMutability": "view",
      "type": "function"
    },
    {
      "inputs": [
        {
          "components": [
            {
              "internalType": "uint256",
              "name": "d",
              "type": "uint256"
            }
          ],
          "internalType": "struct Decimal.decimal",
          "name": "_quoteAssetAmount",
          "type": "tuple"
        }
      ],
      "name": "calcFee",
      "outputs": [
        {
          "components": [
            {
              "internalType": "uint256",
              "name": "d",
              "type": "uint256"
            }
          ],
          "internalType": "struct Decimal.decimal",
          "name": "",
          "type": "tuple"
        },
        {
          "components": [
            {
              "internalType": "uint256",
              "name": "d",
              "type": "uint256"
            }
          ],
          "internalType": "struct Decimal.decimal",
          "name": "",
          "type": "tuple"
        }
      ],
      "stateMutability": "view",
      "type": "function"
    },
    {
      "inputs": [],
      "name": "candidate",
      "outputs": [
        {
          "internalType": "address",
          "name": "",
          "type": "address"
        }
      ],
      "stateMutability": "view",
      "type": "function"
    },
    {
      "inputs": [],
      "name": "fluctuationLimitRatio",
      "outputs": [
        {
          "internalType": "uint256",
          "name": "d",
          "type": "uint256"
        }
      ],
      "stateMutability": "view",
      "type": "function"
    },
    {
      "inputs": [],
      "name": "fundingBufferPeriod",
      "outputs": [
        {
          "internalType": "uint256",
          "name": "",
          "type": "uint256"
        }
      ],
      "stateMutability": "view",
      "type": "function"
    },
    {
      "inputs": [],
      "name": "fundingPeriod",
      "outputs": [
        {
          "internalType": "uint256",
          "name": "",
          "type": "uint256"
        }
      ],
      "stateMutability": "view",
      "type": "function"
    },
    {
      "inputs": [],
      "name": "fundingRate",
      "outputs": [
        {
          "internalType": "int256",
          "name": "d",
          "type": "int256"
        }
      ],
      "stateMutability": "view",
      "type": "function"
    },
    {
      "inputs": [],
      "name": "getBaseAssetDelta",
      "outputs": [
        {
          "components": [
            {
              "internalType": "int256",
              "name": "d",
              "type": "int256"
            }
          ],
          "internalType": "struct SignedDecimal.signedDecimal",
          "name": "",
          "type": "tuple"
        }
      ],
      "stateMutability": "view",
      "type": "function"
    },
    {
      "inputs": [],
      "name": "getBaseAssetDeltaThisFundingPeriod",
      "outputs": [
        {
          "components": [
            {
              "internalType": "int256",
              "name": "d",
              "type": "int256"
            }
          ],
          "internalType": "struct SignedDecimal.signedDecimal",
          "name": "",
          "type": "tuple"
        }
      ],
      "stateMutability": "view",
      "type": "function"
    },
    {
      "inputs": [],
      "name": "getCumulativeNotional",
      "outputs": [
        {
          "components": [
            {
              "internalType": "int256",
              "name": "d",
              "type": "int256"
            }
          ],
          "internalType": "struct SignedDecimal.signedDecimal",
          "name": "",
          "type": "tuple"
        }
      ],
      "stateMutability": "view",
      "type": "function"
    },
    {
      "inputs": [
        {
          "internalType": "enum IAmm.Dir",
          "name": "_dirOfQuote",
          "type": "uint8"
        },
        {
          "components": [
            {
              "internalType": "uint256",
              "name": "d",
              "type": "uint256"
            }
          ],
          "internalType": "struct Decimal.decimal",
          "name": "_quoteAssetAmount",
          "type": "tuple"
        }
      ],
      "name": "getInputPrice",
      "outputs": [
        {
          "components": [
            {
              "internalType": "uint256",
              "name": "d",
              "type": "uint256"
            }
          ],
          "internalType": "struct Decimal.decimal",
          "name": "",
          "type": "tuple"
        }
      ],
      "stateMutability": "view",
      "type": "function"
    },
    {
      "inputs": [
        {
          "internalType": "enum IAmm.Dir",
          "name": "_dirOfQuote",
          "type": "uint8"
        },
        {
          "components": [
            {
              "internalType": "uint256",
              "name": "d",
              "type": "uint256"
            }
          ],
          "internalType": "struct Decimal.decimal",
          "name": "_quoteAssetAmount",
          "type": "tuple"
        },
        {
          "components": [
            {
              "internalType": "uint256",
              "name": "d",
              "type": "uint256"
            }
          ],
          "internalType": "struct Decimal.decimal",
          "name": "_quoteAssetPoolAmount",
          "type": "tuple"
        },
        {
          "components": [
            {
              "internalType": "uint256",
              "name": "d",
              "type": "uint256"
            }
          ],
          "internalType": "struct Decimal.decimal",
          "name": "_baseAssetPoolAmount",
          "type": "tuple"
        }
      ],
      "name": "getInputPriceWithReserves",
      "outputs": [
        {
          "components": [
            {
              "internalType": "uint256",
              "name": "d",
              "type": "uint256"
            }
          ],
          "internalType": "struct Decimal.decimal",
          "name": "",
          "type": "tuple"
        }
      ],
      "stateMutability": "pure",
      "type": "function"
    },
    {
      "inputs": [
        {
          "internalType": "enum IAmm.Dir",
          "name": "_dirOfQuote",
          "type": "uint8"
        },
        {
          "components": [
            {
              "internalType": "uint256",
              "name": "d",
              "type": "uint256"
            }
          ],
          "internalType": "struct Decimal.decimal",
          "name": "_quoteAssetAmount",
          "type": "tuple"
        }
      ],
      "name": "getInputTwap",
      "outputs": [
        {
          "components": [
            {
              "internalType": "uint256",
              "name": "d",
              "type": "uint256"
            }
          ],
          "internalType": "struct Decimal.decimal",
          "name": "",
          "type": "tuple"
        }
      ],
      "stateMutability": "view",
      "type": "function"
    },
    {
      "inputs": [],
      "name": "getLatestLiquidityChangedSnapshots",
      "outputs": [
        {
          "components": [
            {
              "components": [
                {
                  "internalType": "int256",
                  "name": "d",
                  "type": "int256"
                }
              ],
              "internalType": "struct SignedDecimal.signedDecimal",
              "name": "cumulativeNotional",
              "type": "tuple"
            },
            {
              "components": [
                {
                  "internalType": "uint256",
                  "name": "d",
                  "type": "uint256"
                }
              ],
              "internalType": "struct Decimal.decimal",
              "name": "quoteAssetReserve",
              "type": "tuple"
            },
            {
              "components": [
                {
                  "internalType": "uint256",
                  "name": "d",
                  "type": "uint256"
                }
              ],
              "internalType": "struct Decimal.decimal",
              "name": "baseAssetReserve",
              "type": "tuple"
            },
            {
              "components": [
                {
                  "internalType": "int256",
                  "name": "d",
                  "type": "int256"
                }
              ],
              "internalType": "struct SignedDecimal.signedDecimal",
              "name": "totalPositionSize",
              "type": "tuple"
            }
          ],
          "internalType": "struct IAmm.LiquidityChangedSnapshot",
          "name": "",
          "type": "tuple"
        }
      ],
      "stateMutability": "view",
      "type": "function"
    },
    {
      "inputs": [
        {
          "internalType": "uint256",
          "name": "i",
          "type": "uint256"
        }
      ],
      "name": "getLiquidityChangedSnapshots",
      "outputs": [
        {
          "components": [
            {
              "components": [
                {
                  "internalType": "int256",
                  "name": "d",
                  "type": "int256"
                }
              ],
              "internalType": "struct SignedDecimal.signedDecimal",
              "name": "cumulativeNotional",
              "type": "tuple"
            },
            {
              "components": [
                {
                  "internalType": "uint256",
                  "name": "d",
                  "type": "uint256"
                }
              ],
              "internalType": "struct Decimal.decimal",
              "name": "quoteAssetReserve",
              "type": "tuple"
            },
            {
              "components": [
                {
                  "internalType": "uint256",
                  "name": "d",
                  "type": "uint256"
                }
              ],
              "internalType": "struct Decimal.decimal",
              "name": "baseAssetReserve",
              "type": "tuple"
            },
            {
              "components": [
                {
                  "internalType": "int256",
                  "name": "d",
                  "type": "int256"
                }
              ],
              "internalType": "struct SignedDecimal.signedDecimal",
              "name": "totalPositionSize",
              "type": "tuple"
            }
          ],
          "internalType": "struct IAmm.LiquidityChangedSnapshot",
          "name": "",
          "type": "tuple"
        }
      ],
      "stateMutability": "view",
      "type": "function"
    },
    {
      "inputs": [],
      "name": "getLiquidityHistoryLength",
      "outputs": [
        {
          "internalType": "uint256",
          "name": "",
          "type": "uint256"
        }
      ],
      "stateMutability": "view",
      "type": "function"
    },
    {
      "inputs": [],
      "name": "getMaxHoldingBaseAsset",
      "outputs": [
        {
          "components": [
            {
              "internalType": "uint256",
              "name": "d",
              "type": "uint256"
            }
          ],
          "internalType": "struct Decimal.decimal",
          "name": "",
          "type": "tuple"
        }
      ],
      "stateMutability": "view",
      "type": "function"
    },
    {
      "inputs": [],
      "name": "getOpenInterestNotionalCap",
      "outputs": [
        {
          "components": [
            {
              "internalType": "uint256",
              "name": "d",
              "type": "uint256"
            }
          ],
          "internalType": "struct Decimal.decimal",
          "name": "",
          "type": "tuple"
        }
      ],
      "stateMutability": "view",
      "type": "function"
    },
    {
      "inputs": [
        {
          "internalType": "enum IAmm.Dir",
          "name": "_dirOfBase",
          "type": "uint8"
        },
        {
          "components": [
            {
              "internalType": "uint256",
              "name": "d",
              "type": "uint256"
            }
          ],
          "internalType": "struct Decimal.decimal",
          "name": "_baseAssetAmount",
          "type": "tuple"
        }
      ],
      "name": "getOutputPrice",
      "outputs": [
        {
          "components": [
            {
              "internalType": "uint256",
              "name": "d",
              "type": "uint256"
            }
          ],
          "internalType": "struct Decimal.decimal",
          "name": "",
          "type": "tuple"
        }
      ],
      "stateMutability": "view",
      "type": "function"
    },
    {
      "inputs": [
        {
          "internalType": "enum IAmm.Dir",
          "name": "_dirOfBase",
          "type": "uint8"
        },
        {
          "components": [
            {
              "internalType": "uint256",
              "name": "d",
              "type": "uint256"
            }
          ],
          "internalType": "struct Decimal.decimal",
          "name": "_baseAssetAmount",
          "type": "tuple"
        },
        {
          "components": [
            {
              "internalType": "uint256",
              "name": "d",
              "type": "uint256"
            }
          ],
          "internalType": "struct Decimal.decimal",
          "name": "_quoteAssetPoolAmount",
          "type": "tuple"
        },
        {
          "components": [
            {
              "internalType": "uint256",
              "name": "d",
              "type": "uint256"
            }
          ],
          "internalType": "struct Decimal.decimal",
          "name": "_baseAssetPoolAmount",
          "type": "tuple"
        }
      ],
      "name": "getOutputPriceWithReserves",
      "outputs": [
        {
          "components": [
            {
              "internalType": "uint256",
              "name": "d",
              "type": "uint256"
            }
          ],
          "internalType": "struct Decimal.decimal",
          "name": "",
          "type": "tuple"
        }
      ],
      "stateMutability": "pure",
      "type": "function"
    },
    {
      "inputs": [
        {
          "internalType": "enum IAmm.Dir",
          "name": "_dirOfBase",
          "type": "uint8"
        },
        {
          "components": [
            {
              "internalType": "uint256",
              "name": "d",
              "type": "uint256"
            }
          ],
          "internalType": "struct Decimal.decimal",
          "name": "_baseAssetAmount",
          "type": "tuple"
        }
      ],
      "name": "getOutputTwap",
      "outputs": [
        {
          "components": [
            {
              "internalType": "uint256",
              "name": "d",
              "type": "uint256"
            }
          ],
          "internalType": "struct Decimal.decimal",
          "name": "",
          "type": "tuple"
        }
      ],
      "stateMutability": "view",
      "type": "function"
    },
    {
      "inputs": [],
      "name": "getReserve",
      "outputs": [
        {
          "components": [
            {
              "internalType": "uint256",
              "name": "d",
              "type": "uint256"
            }
          ],
          "internalType": "struct Decimal.decimal",
          "name": "",
          "type": "tuple"
        },
        {
          "components": [
            {
              "internalType": "uint256",
              "name": "d",
              "type": "uint256"
            }
          ],
          "internalType": "struct Decimal.decimal",
          "name": "",
          "type": "tuple"
        }
      ],
      "stateMutability": "view",
      "type": "function"
    },
    {
      "inputs": [],
      "name": "getSettlementPrice",
      "outputs": [
        {
          "components": [
            {
              "internalType": "uint256",
              "name": "d",
              "type": "uint256"
            }
          ],
          "internalType": "struct Decimal.decimal",
          "name": "",
          "type": "tuple"
        }
      ],
      "stateMutability": "view",
      "type": "function"
    },
    {
      "inputs": [],
      "name": "getSnapshotLen",
      "outputs": [
        {
          "internalType": "uint256",
          "name": "",
          "type": "uint256"
        }
      ],
      "stateMutability": "view",
      "type": "function"
    },
    {
      "inputs": [],
      "name": "getSpotPrice",
      "outputs": [
        {
          "components": [
            {
              "internalType": "uint256",
              "name": "d",
              "type": "uint256"
            }
          ],
          "internalType": "struct Decimal.decimal",
          "name": "",
          "type": "tuple"
        }
      ],
      "stateMutability": "view",
      "type": "function"
    },
    {
      "inputs": [
        {
          "internalType": "uint256",
          "name": "_intervalInSeconds",
          "type": "uint256"
        }
      ],
      "name": "getTwapPrice",
      "outputs": [
        {
          "components": [
            {
              "internalType": "uint256",
              "name": "d",
              "type": "uint256"
            }
          ],
          "internalType": "struct Decimal.decimal",
          "name": "",
          "type": "tuple"
        }
      ],
      "stateMutability": "view",
      "type": "function"
    },
    {
      "inputs": [],
      "name": "getUnderlyingPrice",
      "outputs": [
        {
          "components": [
            {
              "internalType": "uint256",
              "name": "d",
              "type": "uint256"
            }
          ],
          "internalType": "struct Decimal.decimal",
          "name": "",
          "type": "tuple"
        }
      ],
      "stateMutability": "view",
      "type": "function"
    },
    {
      "inputs": [
        {
          "internalType": "uint256",
          "name": "_intervalInSeconds",
          "type": "uint256"
        }
      ],
      "name": "getUnderlyingTwapPrice",
      "outputs": [
        {
          "components": [
            {
              "internalType": "uint256",
              "name": "d",
              "type": "uint256"
            }
          ],
          "internalType": "struct Decimal.decimal",
          "name": "",
          "type": "tuple"
        }
      ],
      "stateMutability": "view",
      "type": "function"
    },
    {
      "inputs": [],
      "name": "globalShutdown",
      "outputs": [
        {
          "internalType": "address",
          "name": "",
          "type": "address"
        }
      ],
      "stateMutability": "view",
      "type": "function"
    },
    {
      "inputs": [
        {
          "internalType": "uint256",
          "name": "_quoteAssetReserve",
          "type": "uint256"
        },
        {
          "internalType": "uint256",
          "name": "_baseAssetReserve",
          "type": "uint256"
        },
        {
          "internalType": "uint256",
          "name": "_tradeLimitRatio",
          "type": "uint256"
        },
        {
          "internalType": "uint256",
          "name": "_fundingPeriod",
          "type": "uint256"
        },
        {
          "internalType": "contract IPriceFeed",
          "name": "_priceFeed",
          "type": "address"
        },
        {
          "internalType": "bytes32",
          "name": "_priceFeedKey",
          "type": "bytes32"
        },
        {
          "internalType": "address",
          "name": "_quoteAsset",
          "type": "address"
        },
        {
          "internalType": "uint256",
          "name": "_fluctuationLimitRatio",
          "type": "uint256"
        },
        {
          "internalType": "uint256",
          "name": "_tollRatio",
          "type": "uint256"
        },
        {
          "internalType": "uint256",
          "name": "_spreadRatio",
          "type": "uint256"
        }
      ],
      "name": "initialize",
      "outputs": [],
      "stateMutability": "nonpayable",
      "type": "function"
    },
    {
      "inputs": [
        {
          "internalType": "enum IAmm.Dir",
          "name": "_dirOfBase",
          "type": "uint8"
        },
        {
          "components": [
            {
              "internalType": "uint256",
              "name": "d",
              "type": "uint256"
            }
          ],
          "internalType": "struct Decimal.decimal",
          "name": "_baseAssetAmount",
          "type": "tuple"
        }
      ],
      "name": "isOverFluctuationLimit",
      "outputs": [
        {
          "internalType": "bool",
          "name": "",
          "type": "bool"
        }
      ],
      "stateMutability": "view",
      "type": "function"
    },
    {
      "inputs": [],
      "name": "isOverSpreadLimit",
      "outputs": [
        {
          "internalType": "bool",
          "name": "",
          "type": "bool"
        }
      ],
      "stateMutability": "view",
      "type": "function"
    },
    {
      "inputs": [],
      "name": "nextFundingTime",
      "outputs": [
        {
          "internalType": "uint256",
          "name": "",
          "type": "uint256"
        }
      ],
      "stateMutability": "view",
      "type": "function"
    },
    {
      "inputs": [],
      "name": "open",
      "outputs": [
        {
          "internalType": "bool",
          "name": "",
          "type": "bool"
        }
      ],
      "stateMutability": "view",
      "type": "function"
    },
    {
      "inputs": [],
      "name": "owner",
      "outputs": [
        {
          "internalType": "address",
          "name": "",
          "type": "address"
        }
      ],
      "stateMutability": "view",
      "type": "function"
    },
    {
      "inputs": [],
      "name": "priceFeed",
      "outputs": [
        {
          "internalType": "contract IPriceFeed",
          "name": "",
          "type": "address"
        }
      ],
      "stateMutability": "view",
      "type": "function"
    },
    {
      "inputs": [],
      "name": "priceFeedKey",
      "outputs": [
        {
          "internalType": "bytes32",
          "name": "",
          "type": "bytes32"
        }
      ],
      "stateMutability": "view",
      "type": "function"
    },
    {
      "inputs": [],
      "name": "quoteAsset",
      "outputs": [
        {
          "internalType": "contract IERC20",
          "name": "",
          "type": "address"
        }
      ],
      "stateMutability": "view",
      "type": "function"
    },
    {
      "inputs": [],
      "name": "quoteAssetReserve",
      "outputs": [
        {
          "internalType": "uint256",
          "name": "d",
          "type": "uint256"
        }
      ],
      "stateMutability": "view",
      "type": "function"
    },
    {
      "inputs": [],
      "name": "renounceOwnership",
      "outputs": [],
      "stateMutability": "nonpayable",
      "type": "function"
    },
    {
      "inputs": [
        {
          "internalType": "uint256",
          "name": "",
          "type": "uint256"
        }
      ],
      "name": "reserveSnapshots",
      "outputs": [
        {
          "components": [
            {
              "internalType": "uint256",
              "name": "d",
              "type": "uint256"
            }
          ],
          "internalType": "struct Decimal.decimal",
          "name": "quoteAssetReserve",
          "type": "tuple"
        },
        {
          "components": [
            {
              "internalType": "uint256",
              "name": "d",
              "type": "uint256"
            }
          ],
          "internalType": "struct Decimal.decimal",
          "name": "baseAssetReserve",
          "type": "tuple"
        },
        {
          "internalType": "uint256",
          "name": "timestamp",
          "type": "uint256"
        },
        {
          "internalType": "uint256",
          "name": "blockNumber",
          "type": "uint256"
        }
      ],
      "stateMutability": "view",
      "type": "function"
    },
    {
      "inputs": [
        {
          "components": [
            {
              "internalType": "uint256",
              "name": "d",
              "type": "uint256"
            }
          ],
          "internalType": "struct Decimal.decimal",
          "name": "_maxHoldingBaseAsset",
          "type": "tuple"
        },
        {
          "components": [
            {
              "internalType": "uint256",
              "name": "d",
              "type": "uint256"
            }
          ],
          "internalType": "struct Decimal.decimal",
          "name": "_openInterestNotionalCap",
          "type": "tuple"
        }
      ],
      "name": "setCap",
      "outputs": [],
      "stateMutability": "nonpayable",
      "type": "function"
    },
    {
      "inputs": [
        {
          "internalType": "address",
          "name": "_counterParty",
          "type": "address"
        }
      ],
      "name": "setCounterParty",
      "outputs": [],
      "stateMutability": "nonpayable",
      "type": "function"
    },
    {
      "inputs": [
        {
          "components": [
            {
              "internalType": "uint256",
              "name": "d",
              "type": "uint256"
            }
          ],
          "internalType": "struct Decimal.decimal",
          "name": "_fluctuationLimitRatio",
          "type": "tuple"
        }
      ],
      "name": "setFluctuationLimitRatio",
      "outputs": [],
      "stateMutability": "nonpayable",
      "type": "function"
    },
    {
      "inputs": [
        {
          "internalType": "address",
          "name": "_globalShutdown",
          "type": "address"
        }
      ],
      "name": "setGlobalShutdown",
      "outputs": [],
      "stateMutability": "nonpayable",
      "type": "function"
    },
    {
      "inputs": [
        {
          "internalType": "bool",
          "name": "_open",
          "type": "bool"
        }
      ],
      "name": "setOpen",
      "outputs": [],
      "stateMutability": "nonpayable",
      "type": "function"
    },
    {
      "inputs": [
        {
          "internalType": "address",
          "name": "newOwner",
          "type": "address"
        }
      ],
      "name": "setOwner",
      "outputs": [],
      "stateMutability": "nonpayable",
      "type": "function"
    },
    {
      "inputs": [
        {
          "internalType": "contract IPriceFeed",
          "name": "_priceFeed",
          "type": "address"
        }
      ],
      "name": "setPriceFeed",
      "outputs": [],
      "stateMutability": "nonpayable",
      "type": "function"
    },
    {
      "inputs": [
        {
          "internalType": "uint256",
          "name": "_interval",
          "type": "uint256"
        }
      ],
      "name": "setSpotPriceTwapInterval",
      "outputs": [],
      "stateMutability": "nonpayable",
      "type": "function"
    },
    {
      "inputs": [
        {
          "components": [
            {
              "internalType": "uint256",
              "name": "d",
              "type": "uint256"
            }
          ],
          "internalType": "struct Decimal.decimal",
          "name": "_spreadRatio",
          "type": "tuple"
        }
      ],
      "name": "setSpreadRatio",
      "outputs": [],
      "stateMutability": "nonpayable",
      "type": "function"
    },
    {
      "inputs": [
        {
          "components": [
            {
              "internalType": "uint256",
              "name": "d",
              "type": "uint256"
            }
          ],
          "internalType": "struct Decimal.decimal",
          "name": "_tollRatio",
          "type": "tuple"
        }
      ],
      "name": "setTollRatio",
      "outputs": [],
      "stateMutability": "nonpayable",
      "type": "function"
    },
    {
      "inputs": [],
      "name": "settleFunding",
      "outputs": [
        {
          "components": [
            {
              "internalType": "int256",
              "name": "d",
              "type": "int256"
            }
          ],
          "internalType": "struct SignedDecimal.signedDecimal",
          "name": "",
          "type": "tuple"
        }
      ],
      "stateMutability": "nonpayable",
      "type": "function"
    },
    {
      "inputs": [],
      "name": "shutdown",
      "outputs": [],
      "stateMutability": "nonpayable",
      "type": "function"
    },
    {
      "inputs": [],
      "name": "spotPriceTwapInterval",
      "outputs": [
        {
          "internalType": "uint256",
          "name": "",
          "type": "uint256"
        }
      ],
      "stateMutability": "view",
      "type": "function"
    },
    {
      "inputs": [],
      "name": "spreadRatio",
      "outputs": [
        {
          "internalType": "uint256",
          "name": "d",
          "type": "uint256"
        }
      ],
      "stateMutability": "view",
      "type": "function"
    },
    {
      "inputs": [
        {
          "internalType": "enum IAmm.Dir",
          "name": "_dirOfQuote",
          "type": "uint8"
        },
        {
          "components": [
            {
              "internalType": "uint256",
              "name": "d",
              "type": "uint256"
            }
          ],
          "internalType": "struct Decimal.decimal",
          "name": "_quoteAssetAmount",
          "type": "tuple"
        },
        {
          "components": [
            {
              "internalType": "uint256",
              "name": "d",
              "type": "uint256"
            }
          ],
          "internalType": "struct Decimal.decimal",
          "name": "_baseAssetAmountLimit",
          "type": "tuple"
        },
        {
          "internalType": "bool",
          "name": "_canOverFluctuationLimit",
          "type": "bool"
        }
      ],
      "name": "swapInput",
      "outputs": [
        {
          "components": [
            {
              "internalType": "uint256",
              "name": "d",
              "type": "uint256"
            }
          ],
          "internalType": "struct Decimal.decimal",
          "name": "",
          "type": "tuple"
        }
      ],
      "stateMutability": "nonpayable",
      "type": "function"
    },
    {
      "inputs": [
        {
          "internalType": "enum IAmm.Dir",
          "name": "_dirOfBase",
          "type": "uint8"
        },
        {
          "components": [
            {
              "internalType": "uint256",
              "name": "d",
              "type": "uint256"
            }
          ],
          "internalType": "struct Decimal.decimal",
          "name": "_baseAssetAmount",
          "type": "tuple"
        },
        {
          "components": [
            {
              "internalType": "uint256",
              "name": "d",
              "type": "uint256"
            }
          ],
          "internalType": "struct Decimal.decimal",
          "name": "_quoteAssetAmountLimit",
          "type": "tuple"
        }
      ],
      "name": "swapOutput",
      "outputs": [
        {
          "components": [
            {
              "internalType": "uint256",
              "name": "d",
              "type": "uint256"
            }
          ],
          "internalType": "struct Decimal.decimal",
          "name": "",
          "type": "tuple"
        }
      ],
      "stateMutability": "nonpayable",
      "type": "function"
    },
    {
      "inputs": [],
      "name": "tollAmount",
      "outputs": [
        {
          "internalType": "uint256",
          "name": "d",
          "type": "uint256"
        }
      ],
      "stateMutability": "view",
      "type": "function"
    },
    {
      "inputs": [],
      "name": "tollRatio",
      "outputs": [
        {
          "internalType": "uint256",
          "name": "d",
          "type": "uint256"
        }
      ],
      "stateMutability": "view",
      "type": "function"
    },
    {
      "inputs": [],
      "name": "totalPositionSize",
      "outputs": [
        {
          "internalType": "int256",
          "name": "d",
          "type": "int256"
        }
      ],
      "stateMutability": "view",
      "type": "function"
    },
    {
      "inputs": [],
      "name": "tradeLimitRatio",
      "outputs": [
        {
          "internalType": "uint256",
          "name": "d",
          "type": "uint256"
        }
      ],
      "stateMutability": "view",
      "type": "function"
    },
    {
      "inputs": [],
      "name": "updateOwner",
      "outputs": [],
      "stateMutability": "nonpayable",
      "type": "function"
    }
  ],
  "bytecode": "0x608060405234801561001057600080fd5b5061450e806100206000396000f3fe608060405234801561001057600080fd5b50600436106103d05760003560e01c80636fa42ede116101ff578063bc5920ba1161011a578063e4bc2eb9116100ad578063f1b5df861161007c578063f1b5df8614610732578063fc0e74d114610745578063fcfff16f1461074d578063fdf262b714610755576103d0565b8063e4bc2eb914610712578063e805d6fc1461071a578063ec2c0e6314610722578063ed83d79c1461072a576103d0565b8063da0c5927116100e9578063da0c5927146106dc578063dc76fabc146106ef578063e0037a6c146106f7578063e1f1027f146106ff576103d0565b8063bc5920ba146106b1578063c2de442f146106b9578063c9566fcc146106c1578063d71ec2ad146106c9576103d0565b80637ec3246d116101925780639e010362116101615780639e010362146106705780639ece77c814610678578063a8f8be4e1461068b578063b2ed32c71461069e576103d0565b80637ec3246d1461063a5780638da5cb5b1461064d5780638f40d932146106555780639bf5d1d41461065d576103d0565b8063724e78da116101ce578063724e78da14610604578063741bef1a1461061757806374d7c62b1461061f57806375df638914610627576103d0565b80636fa42ede146105ce5780636fdca5e0146105e15780636febdd50146105f4578063715018a6146105fc576103d0565b806341d3c84c116102ef57806358a4c3dc116102825780636226795511610251578063622679551461059857806362e7a176146105ab5780636baccaba146105be5780636c8381f8146105c6576103d0565b806358a4c3dc1461055f57806359bf5d39146105675780635f1ba1fd1461057d578063620be06714610585576103d0565b80634cb876f2116102be5780634cb876f21461052957806350799c8114610531578063524f15a1146105445780635254541014610557576103d0565b806341d3c84c146104fe57806342b3198b14610506578063468f02d21461050e5780634894d18314610516576103d0565b80631d3acb44116103675780632d666e38116103365780632d666e38146104c85780632f848859146104d057806334953249146104d857806340d71cd9146104eb576103d0565b80631d3acb441461048257806321e009851461048a578063237f17ee146104ad57806329f9b17b146104c0576103d0565b806311377394116103a35780631137739414610425578063130234cf1461043a57806313af40351461045a5780631b584d6c1461046d576103d0565b80630244accf146103d557806305172a25146103f35780630d451c8f146104085780630dd68c7014610410575b600080fd5b6103dd61075d565b6040516103ea9190613ba2565b60405180910390f35b6103fb61076c565b6040516103ea9190613bc1565b6103fb610778565b61042361041e366004613a80565b61077e565b005b61042d610834565b6040516103ea9190614403565b61044d6104483660046139bd565b610850565b6040516103ea9190613bb6565b6104236104683660046138e3565b6109b5565b610475610a8e565b6040516103ea91906143d4565b6103fb610b1c565b61049d610498366004613aeb565b610b22565b6040516103ea949392919061441d565b6104756104bb366004613aeb565b610b70565b61042d610c10565b6103fb610c2c565b61042d610c32565b61042d6104e6366004613aeb565b610c4e565b61042d6104f9366004613a9c565b610ced565b6103fb610da9565b6103fb610daf565b61042d610db5565b61042d6105243660046139bd565b610e52565b6103fb610e69565b61042d61053f3660046139f2565b610e6f565b610423610552366004613a65565b610fe0565b61042d61101b565b6103fb611037565b61056f61103d565b6040516103ea92919061440d565b6103fb61106f565b610423610593366004613b1b565b611075565b61056f6105a6366004613a4a565b6113b4565b6104236105b9366004613aeb565b61144f565b6103fb6114a6565b6103dd6114ac565b61042d6105dc3660046139bd565b6114bb565b6104236105ef3660046138ff565b6114d2565b6103fb61158c565b610423611592565b6104236106123660046138e3565b611611565b6103dd6116c8565b6103fb6116d7565b61042d610635366004613964565b6116dd565b610423610648366004613a65565b61190b565b6103dd611946565b6103fb611955565b61042d61066b3660046139f2565b61195b565b61044d611a39565b6104236106863660046138e3565b611ae7565b610423610699366004613a65565b611b3e565b6104236106ac3660046138e3565b611b79565b610423611bd0565b6103fb611c93565b6103fb611c99565b61042d6106d736600461391b565b611c9f565b61042d6106ea3660046139bd565b611d2c565b61042d611d5e565b6103fb611d98565b61042d61070d3660046139bd565b611d9e565b6103fb611dd0565b61042d611dd6565b61042d611df2565b61042d611e0e565b61042d610740366004613aeb565b611f6b565b610423611f7c565b61044d611fea565b6103dd611ffa565b60e2546001600160a01b031681565b67016345785d8a000081565b60e05490565b610786612009565b6065546001600160a01b039081169116146107bc5760405162461bcd60e51b81526004016107b39061430c565b60405180910390fd5b815160d7819055815160d85560408051602081019091529081527f7338f3784ceb8f9456bac0c4a69f1c6354dc325fa6455e3e3f6a8a9bf9249a7c906108019061200d565b604080516020810190915260d854815261081a9061200d565b604051610828929190613bca565b60405180910390a15050565b61083c6137dd565b50604080516020810190915260d754815290565b604080516020810190915260d354815260009061086c9061200d565b610878575060006109af565b6108806137dd565b6108886137dd565b610890612011565b9150915061089c6137dd565b6108a68686611d2c565b90506108b06137dd565b60018760018111156108be57fe5b1461091857604080516020810190915260d2548152610913906108e7908863ffffffff6121de16565b604080516020810190915260d1548152610907908563ffffffff61220a16565b9063ffffffff61222d16565b61095c565b604080516020810190915260d254815261095c9061093c908863ffffffff61220a16565b604080516020810190915260d1548152610907908563ffffffff6121de16565b90506000610970828663ffffffff61225016565b60000b131580156109945750600061098e828563ffffffff61225016565b60000b12155b156109a65760009450505050506109af565b60019450505050505b92915050565b6109bd612009565b6065546001600160a01b039081169116146109ea5760405162461bcd60e51b81526004016107b39061430c565b6001600160a01b038116610a105760405162461bcd60e51b81526004016107b39061406f565b6065546001600160a01b0382811691161415610a3e5760405162461bcd60e51b81526004016107b39061438e565b6066546001600160a01b0382811691161415610a6c5760405162461bcd60e51b81526004016107b390613d96565b606680546001600160a01b0319166001600160a01b0392909216919091179055565b610a966137f0565b60da8054610aab90600163ffffffff61228116565b81548110610ab557fe5b60009182526020918290206040805160a0810182526004909302909101805460808401908152835281518085018352600182015481528385015281518085018352600282015481528383015281519384019091526003015482526060810191909152905090565b60d35481565b60e08181548110610b2f57fe5b600091825260209182902060408051808501825260049093029091018054835281519384019091526001810154835260028101546003909101549193509084565b610b786137f0565b60da548210610b995760405162461bcd60e51b81526004016107b390613e91565b60da8281548110610ba657fe5b60009182526020918290206040805160a081018252600490930290910180546080840190815283528151808501835260018201548152838501528151808501835260028201548152838301528151938401909152600301548252606081019190915290505b919050565b610c186137dd565b50604080516020810190915260ce54815290565b60d65481565b610c3a6137dd565b50604080516020810190915260cc54815290565b610c566137dd565b60408051602081019182905260e45460df54632885cf7d60e21b909352909182916001600160a01b03169063a2173df490610c95908760248601613bca565b60206040518083038186803b158015610cad57600080fd5b505afa158015610cc1573d6000803e3d6000fd5b505050506040513d601f19601f82011682018060405250810190610ce59190613b03565b905292915050565b610cf56137dd565b610cfe846122c3565b610d09575082610da2565b600080610d158661200d565b13610d21576000610d24565b60015b9050610d2e6137dd565b610d5082610d3d576001610d40565b60005b610d49886122d5565b878761195b565b9050610d5a6137dd565b610d7a610d7584610d6c576000610d6f565b60015b84611d9e565b612303565b9050610d9c83610d8c57600019610d8f565b60015b829063ffffffff61236716565b93505050505b9392505050565b60cd5481565b60da5490565b610dbd6137dd565b60408051602081019182905260e45460df546331d98b3f60e01b909352909182916001600160a01b0316906331d98b3f90610dfb9060248501613bc1565b60206040518083038186803b158015610e1357600080fd5b505afa158015610e27573d6000803e3d6000fd5b505050506040513d601f19601f82011682018060405250810190610e4b9190613b03565b9052905090565b610e5a6137dd565b610da283836000610384612389565b60cc5481565b610e776137dd565b610e808461200d565b610e9357610e8c61240f565b9050610fd8565b600080866001811115610ea257fe5b149050610ead6137dd565b610ec0610d75868663ffffffff61242a16565b9050610eca6137dd565b610ed26137dd565b610eda6137dd565b8415610ef757610ef0888a63ffffffff6121de16565b9150610f0a565b610f07888a63ffffffff61220a16565b91505b610f138261200d565b610f2f5760405162461bcd60e51b81526004016107b3906141eb565b610f3f848363ffffffff61244d16565b9250610f59610f54848963ffffffff6124c716565b6122d5565b9050610f7c610f7783610f6b876122d5565b9063ffffffff61253c16565b61200d565b15610fd1578415610fae57604080516020810190915260018152610fa790829063ffffffff61220a16565b9050610fd1565b604080516020810190915260018152610fce90829063ffffffff6121de16565b90505b9450505050505b949350505050565b610fe8612009565b6065546001600160a01b039081169116146110155760405162461bcd60e51b81526004016107b39061430c565b5160d555565b6110236137dd565b50604080516020810190915260d854815290565b60df5481565b6110456137dd565b61104d6137dd565b5050604080516020808201835260d1548252825190810190925260d254825291565b60db5481565b600054610100900460ff168061108e575061108e612580565b8061109c575060005460ff16155b6110b85760405162461bcd60e51b81526004016107b3906140b1565b600054610100900460ff161580156110e3576000805460ff1961ff0019909116610100171660011790555b8a158015906110f157508815155b80156110fc57508915155b801561110757508715155b801561111b57506001600160a01b03871615155b801561112f57506001600160a01b03851615155b61114b5760405162461bcd60e51b81526004016107b390614252565b611153612586565b6040805160208082018352908d905260d18d9055815180820183528c905260d28c9055815180820183528b905260d08b90558151808201835285905260d48590558151808201835284905260d5849055815190810190915284905260d384905560dc8890556111c988600263ffffffff61261816565b60dd55610e1060db5560df86905560e380546001600160a01b038088166001600160a01b03199283161790925560e48054928a169290911691909117905561120f61265a565b5160d955604080516080810190915260da908061122a61240f565b8152604080516020818101835260d1548252808401919091528151908101825260d25481529082015260600161125e61240f565b9052815460018181018455600093845260209384902083515160049093020191825583830151519082015560408083015151600283015560609092015151600390910155805160a08101825260d1546080820190815281528151808401835260d25481529281019290925260e0919081016112d7612677565b81526020016112e461267b565b9052815460018181018455600093845260209384902083515160049093020191825583830151519082015560408083015160028301556060909201516003909101558051918201905260d15481527f3a3348362552c3897fd1f06a3233519ebd8bd76ad6e99a418a9741155fe905159061135d9061200d565b604080516020810190915260d25481526113769061200d565b61137e612677565b60405161138d93929190614438565b60405180910390a180156113a7576000805461ff00191690555b5050505050505050505050565b6113bc6137dd565b6113c46137dd565b6113d6610f7736859003850185613a65565b6113f3576113e261240f565b6113ea61240f565b9150915061144a565b604080516020810190915260d45481526114229061141636869003860186613a65565b9063ffffffff61242a16565b604080516020810190915260d55481526114459061141636879003870187613a65565b915091505b915091565b611457612009565b6065546001600160a01b039081169116146114845760405162461bcd60e51b81526004016107b39061430c565b806114a15760405162461bcd60e51b81526004016107b390613d28565b60db55565b60d45481565b6066546001600160a01b031690565b6114c36137dd565b610da283836001610384612389565b6114da612009565b6065546001600160a01b039081169116146115075760405162461bcd60e51b81526004016107b39061430c565b60e45460ff600160a01b909104161515811515141561152557611589565b60e4805482158015600160a01b0260ff60a01b199092169190911790915561158957611585610e10611579610e1061156d60dc54611561612677565b9063ffffffff61267f16565b9063ffffffff61261816565b9063ffffffff6126a416565b60de555b50565b60d55481565b61159a612009565b6065546001600160a01b039081169116146115c75760405162461bcd60e51b81526004016107b39061430c565b6065546040516000916001600160a01b0316907f8be0079c531659141344cd1fd0a4f28419497f9722a3daafe3b4186f6b6457e0908390a3606580546001600160a01b0319169055565b611619612009565b6065546001600160a01b039081169116146116465760405162461bcd60e51b81526004016107b39061430c565b6001600160a01b03811661166c5760405162461bcd60e51b81526004016107b390614146565b60e480546001600160a01b0319166001600160a01b0383811691909117918290556040517fe5b20b8497e4f3e2435ef9c20e2e26b47497ee13745ce1c681ad6640653119e6926116bd921690613ba2565b60405180910390a150565b60e4546001600160a01b031681565b60dc5481565b6116e56137dd565b60e454600160a01b900460ff1661170e5760405162461bcd60e51b81526004016107b390613f98565b611716612009565b60e1546001600160a01b039081169116146117435760405162461bcd60e51b81526004016107b390613d5f565b611755610f7736869003860186613a65565b61176157610e8c61240f565b600185600181111561176f57fe5b14156117d557611787610f7736869003860186613a65565b604080516020808201835260d0548252825190810190925260d15482526117b791610f779163ffffffff61242a16565b10156117d55760405162461bcd60e51b81526004016107b390613e1e565b6117dd6137dd565b6117f08661070d36889003880188613a65565b9050611804610f7736869003860186613a65565b1561189457600086600181111561181757fe5b141561185b5761182f610f7736869003860186613a65565b6118388261200d565b10156118565760405162461bcd60e51b81526004016107b390614038565b611894565b61186d610f7736869003860186613a65565b6118768261200d565b11156118945760405162461bcd60e51b81526004016107b3906141b4565b6118ae866118a736889003880188613a65565b83866126de565b7fae6a2b946841d9afc0e1e19a94ae4af26f01125b87b5095bbfb177a9741a2ede866118e2610f7736899003890189613a65565b6118eb8461200d565b6040516118fa93929190613bd8565b60405180910390a195945050505050565b611913612009565b6065546001600160a01b039081169116146119405760405162461bcd60e51b81526004016107b39061430c565b5160d455565b6065546001600160a01b031690565b60d05481565b6119636137dd565b61196c8461200d565b61197857610e8c61240f565b60008086600181111561198757fe5b1490506119926137dd565b6119a5610d75868663ffffffff61242a16565b90506119af6137dd565b6119b76137dd565b6119bf6137dd565b84156119dc576119d5878a63ffffffff6121de16565b91506119ef565b6119ec878a63ffffffff61220a16565b91505b6119f88261200d565b611a145760405162461bcd60e51b81526004016107b390613c4d565b611a24848363ffffffff61244d16565b9250610f59610f54848a63ffffffff6124c716565b6000611a436137dd565b611a4b610db5565b90506000611a588261200d565b11611a755760405162461bcd60e51b81526004016107b390613eba565b611a7d6137dd565b611a85611d5e565b9050611a8f6137dd565b611abb610f5484611aaf86611aa387612303565b9063ffffffff6124c716565b9063ffffffff61244d16565b905067016345785d8a0000611acf8261200d565b1015611adc576000611adf565b60015b935050505090565b611aef612009565b6065546001600160a01b03908116911614611b1c5760405162461bcd60e51b81526004016107b39061430c565b60e180546001600160a01b0319166001600160a01b0392909216919091179055565b611b46612009565b6065546001600160a01b03908116911614611b735760405162461bcd60e51b81526004016107b39061430c565b5160d355565b611b81612009565b6065546001600160a01b03908116911614611bae5760405162461bcd60e51b81526004016107b39061430c565b60e280546001600160a01b0319166001600160a01b0392909216919091179055565b6066546001600160a01b0316611bf85760405162461bcd60e51b81526004016107b3906142bd565b611c00612009565b6066546001600160a01b03908116911614611c2d5760405162461bcd60e51b81526004016107b390613e4a565b6066546065546040516001600160a01b0392831692909116907f8be0079c531659141344cd1fd0a4f28419497f9722a3daafe3b4186f6b6457e090600090a360668054606580546001600160a01b03199081166001600160a01b03841617909155169055565b60dd5481565b60d25481565b611ca76137dd565b60e454600160a01b900460ff16611cd05760405162461bcd60e51b81526004016107b390613f98565b611cd8612009565b60e1546001600160a01b03908116911614611d055760405162461bcd60e51b81526004016107b390613d5f565b610fd884611d1836869003860186613a65565b611d2736869003860186613a65565b61287a565b611d346137dd565b604080516020808201835260d1548252825190810190925260d2548252610da2918591859161195b565b611d666137dd565b604080516020808201835260d2548252825190810190925260d1548252611d93919063ffffffff61222d16565b905090565b60de5481565b611da66137dd565b604080516020808201835260d1548252825190810190925260d2548252610da29185918591610e6f565b60d15481565b611dde6137dd565b50604080516020810190915260cb54815290565b611dfa6137dd565b50604080516020810190915260cf54815290565b611e166137dd565b60e454600160a01b900460ff16611e3f5760405162461bcd60e51b81526004016107b390613f98565b611e47612009565b60e1546001600160a01b03908116911614611e745760405162461bcd60e51b81526004016107b390613d5f565b60de54611e7f612677565b1015611e9d5760405162461bcd60e51b81526004016107b39061421b565b611ea56137dd565b611eb060db54610c4e565b9050611eba6137dd565b611ecc82611aa3610d7560db54611f6b565b9050611ed66137dd565b611efe62015180611ef260dc5485612a2590919063ffffffff16565b9063ffffffff612a8816565b9050611f0a8184612aaa565b6000611f1a60dd54611561612677565b90506000611f41610e10611579610e1061156d60dc5460de5461267f90919063ffffffff16565b9050818111611f505781611f52565b805b60de55611f5d61240f565b5160cb555090935050505090565b611f736137dd565b6109af82612b02565b611f84611946565b6001600160a01b0316611f95612009565b6001600160a01b03161480611fc4575060e2546001600160a01b0316611fb9612009565b6001600160a01b0316145b611fe05760405162461bcd60e51b81526004016107b390614001565b611fe8612b33565b565b60e454600160a01b900460ff1681565b60e3546001600160a01b031681565b3390565b5190565b6120196137dd565b6120216137dd565b60e05461202c61382f565b60e061203f83600163ffffffff61228116565b8154811061204957fe5b60009182526020918290206040805160a08101825260049093029091018054608084019081528352815180850183526001820154815293830193909352600283015490820152600390910154606082015290506120a461267b565b81606001511480156120b65750600182115b1561212c5760e06120ce83600263ffffffff61228116565b815481106120d857fe5b60009182526020918290206040805160a08101825260049093029091018054608084019081528352815180850183526001820154815293830193909352600283015490820152600390910154606082015290505b6121346137dd565b6020820151825161214a9163ffffffff61222d16565b90506121546137dd565b604080516020810190915260d354815261218d906121809061217461265a565b9063ffffffff6121de16565b839063ffffffff61242a16565b90506121976137dd565b604080516020810190915260d35481526121d0906121c3906121b761265a565b9063ffffffff61220a16565b849063ffffffff61242a16565b919650909450505050509091565b6121e66137dd565b6121ee6137dd565b825184516122019163ffffffff61267f16565b81529392505050565b6122126137dd565b61221a6137dd565b825184516122019163ffffffff61228116565b6122356137dd565b61223d6137dd565b825184516122019163ffffffff612c8b16565b805182516000911015612265575060016109af565b81518351101561227857506000196109af565b50600092915050565b6000610da283836040518060400160405280601e81526020017f536166654d6174683a207375627472616374696f6e206f766572666c6f770000815250612c99565b60006122ce826122d5565b5192915050565b6122dd6137dd565b6122e56137dd565b8251600013156122fb57825160000381526109af565b915182525090565b61230b6137dd565b8180600001516001600160ff1b0310156040518060600160405280603381526020016144a660339139906123525760405162461bcd60e51b81526004016107b39190613bfa565b50506040805160208101909152915182525090565b61236f6137dd565b6123776137dd565b8351612201908463ffffffff612cc516565b6123916137dd565b612399613863565b600180825260e0546123aa91612281565b602082015260408101518660018111156123c057fe5b908160018111156123cd57fe5b9052506040808201805160200187905251018460018111156123eb57fe5b908160018111156123f857fe5b9052506124058184612d30565b9695505050505050565b6124176137dd565b5060408051602081019091526000815290565b6124326137dd565b61243a6137dd565b825184516122019163ffffffff612f9d16565b6124556137dd565b8180600001516001600160ff1b0310156040518060600160405280603381526020016144a6603391399061249c5760405162461bcd60e51b81526004016107b39190613bfa565b506124a56137dd565b6124be6124b185612303565b869063ffffffff612fab16565b95945050505050565b6124cf6137dd565b8180600001516001600160ff1b0310156040518060600160405280603381526020016144a660339139906125165760405162461bcd60e51b81526004016107b39190613bfa565b5061251f6137dd565b835185516125329163ffffffff612fce16565b8152949350505050565b6125446137dd565b6040518060200160405280836000015161256f6125616012613014565b87519063ffffffff6126a416565b8161257657fe5b0690529392505050565b303b1590565b600054610100900460ff168061259f575061259f612580565b806125ad575060005460ff16155b6125c95760405162461bcd60e51b81526004016107b3906140b1565b600054610100900460ff161580156125f4576000805460ff1961ff0019909116610100171660011790555b6125fc61301d565b61260461309e565b8015611589576000805461ff001916905550565b6000610da283836040518060400160405280601a81526020017f536166654d6174683a206469766973696f6e206279207a65726f000000000000815250613178565b6126626137dd565b6040518060200160405280610e4b6012613014565b4290565b4390565b600082820183811015610da25760405162461bcd60e51b81526004016107b390613cf1565b6000826126b3575060006109af565b828202828482816126c057fe5b0414610da25760405162461bcd60e51b81526004016107b390613fc0565b6126ea848484846131af565b60008460018111156126f857fe5b14156127b757604080516020810190915260d154815261271e908463ffffffff6121de16565b5160d155604080516020810190915260d2548152612742908363ffffffff61220a16565b5160d255604080516020810190915260cb548152612766908363ffffffff6124c716565b5160cb55604080516020810190915260cc54815261278a908363ffffffff61337816565b5160cc55604080516020810190915260ce5481526127ae908463ffffffff61337816565b5160ce5561286c565b604080516020810190915260d15481526127d7908463ffffffff61220a16565b5160d155604080516020810190915260d25481526127fb908363ffffffff6121de16565b5160d255604080516020810190915260cb54815261281f908363ffffffff61337816565b5160cb55604080516020810190915260cc548152612843908363ffffffff6124c716565b5160cc55604080516020810190915260ce548152612867908463ffffffff6124c716565b5160ce555b6128746133e3565b50505050565b6128826137dd565b61288b8361200d565b61289e5761289761240f565b9050610da2565b60018460018111156128ac57fe5b1415612909576128bb8361200d565b604080516020808201835260d0548252825190810190925260d25482526128eb91610f779163ffffffff61242a16565b10156129095760405162461bcd60e51b81526004016107b390613e1e565b6129116137dd565b61291b8585611d2c565b905060008086600181111561292c57fe5b1461293857600061293b565b60015b90506129468461200d565b156129c457600181600181111561295957fe5b1415612994576129688461200d565b6129718361200d565b101561298f5760405162461bcd60e51b81526004016107b390613f61565b6129c4565b61299d8461200d565b6129a68361200d565b11156129c45760405162461bcd60e51b81526004016107b39061417d565b6129d181838760016126de565b7f0dd4066b1a6ce97fb670c3e4201e908c644193f38cbdaffd0229d7e26da3e533866129fc8461200d565b612a058861200d565b604051612a1493929190613bd8565b60405180910390a150949350505050565b612a2d6137dd565b816001600160ff1b0310156040518060600160405280603381526020016144a66033913990612a6f5760405162461bcd60e51b81526004016107b39190613bfa565b50612a786137dd565b610fd8848463ffffffff61236716565b612a906137dd565b612a986137dd565b8351612201908463ffffffff61351b16565b612aba828263ffffffff61244d16565b5160cd81905560408051602081019091529081527fd2805fe76d30598332a67c1061cee82e2e102b0f59f5457b1729bce028a054a090612af99061200d565b61081a8361200d565b612b0a6137dd565b612b12613863565b6000815260e054612b24906001612281565b6020820152610da28184612d30565b612b3b6137f0565b612b43610a8e565b9050612b4d6137dd565b60208201516040830151612b669163ffffffff61242a16565b9050612b706137dd565b60408301516060840151612b899163ffffffff61337816565b9050612b936137dd565b612bac82612ba085612303565b9063ffffffff612fab16565b9050612bb66137dd565b604080516020810190915260d1548152612bd790839063ffffffff6124c716565b604080516020810190915260cc548152909150606490612bf6906122c3565b1115612c2757604080516020810190915260cc548152612c2290612c19906122d5565b610907836122d5565b5160cf555b60e4805460ff60a01b19169055604080516020810190915260cf5481527f574214b195bf5273a95bb4498e35cf1fde0ce327c727a95ec2ab359f7ba4e11a90612c6f9061200d565b604051612c7c9190613bc1565b60405180910390a15050505050565b6000610da28383601261357f565b60008184841115612cbd5760405162461bcd60e51b81526004016107b39190613bfa565b505050900390565b600082612cd4575060006109af565b82600019148015612ce85750600160ff1b82145b15612d055760405162461bcd60e51b81526004016107b3906140ff565b82820282848281612d1257fe5b0514610da25760405162461bcd60e51b81526004016107b3906140ff565b612d386137dd565b612d406137dd565b612d498461359e565b905082612d575790506109af565b6000612d7184612d65612677565b9063ffffffff61228116565b9050612d7b61382f565b60e0866020015181548110612d8c57fe5b60009182526020918290206040805160a081018252600490930290910180546080840190815283528151808501835260018083015482529484015260028101549183019190915260030154606082015260e0549092501480612df2575081816040015111155b15612e02578293505050506109af565b60408101516000612e1582612d65612677565b9050612e1f6137dd565b612e2f868363ffffffff6136fc16565b90505b6020890151612e5857612e4b818363ffffffff61371e16565b96505050505050506109af565b6020890151612e6e90600163ffffffff61228116565b60208a0181905260e080549091908110612e8457fe5b60009182526020918290206040805160a0810182526004909302909101805460808401908152835281518085018352600182015481529383019390935260028301549082015260039091015460608201529350612ee08961359e565b955084846040015111612f2457612f1d612f10612f03858863ffffffff61228116565b889063ffffffff6136fc16565b829063ffffffff6121de16565b9050612f80565b6000612f3d85604001518561228190919063ffffffff16565b9050612f5f612f52888363ffffffff6136fc16565b839063ffffffff6121de16565b9150612f71838263ffffffff61267f16565b92508460400151935050612e32565b612f90818963ffffffff61371e16565b9998505050505050505050565b6000610da283836012613740565b612fb36137dd565b612fbb6137dd565b825184516122019163ffffffff61375e16565b6000818303818312801590612fe35750838113155b80612ff85750600083128015612ff857508381135b610da25760405162461bcd60e51b81526004016107b390614279565b60ff16600a0a90565b600054610100900460ff16806130365750613036612580565b80613044575060005460ff16155b6130605760405162461bcd60e51b81526004016107b3906140b1565b600054610100900460ff16158015612604576000805460ff1961ff0019909116610100171660011790558015611589576000805461ff001916905550565b600054610100900460ff16806130b757506130b7612580565b806130c5575060005460ff16155b6130e15760405162461bcd60e51b81526004016107b3906140b1565b600054610100900460ff1615801561310c576000805460ff1961ff0019909116610100171660011790555b6000613116612009565b606580546001600160a01b0319166001600160a01b038316908117909155604051919250906000907f8be0079c531659141344cd1fd0a4f28419497f9722a3daafe3b4186f6b6457e0908290a3508015611589576000805461ff001916905550565b600081836131995760405162461bcd60e51b81526004016107b39190613bfa565b5060008385816131a557fe5b0495945050505050565b604080516020810190915260d35481526131c89061200d565b6131d157612874565b6131d96137dd565b6131e16137dd565b6131e9612011565b915091506131f56137dd565b604080516020808201835260d2548252825190810190925260d1548252613222919063ffffffff61222d16565b90506000613236828563ffffffff61225016565b60000b1315801561325a57506000613254828463ffffffff61225016565b60000b12155b6132765760405162461bcd60e51b81526004016107b390613c7c565b8361336f57600087600181111561328957fe5b146132d757604080516020810190915260d25481526132d2906132b2908763ffffffff6121de16565b604080516020810190915260d1548152610907908963ffffffff61220a16565b61331b565b604080516020810190915260d254815261331b906132fb908763ffffffff61220a16565b604080516020810190915260d1548152610907908963ffffffff6121de16565b9050600061332f828563ffffffff61225016565b60000b131580156133535750600061334d828463ffffffff61225016565b60000b12155b61336f5760405162461bcd60e51b81526004016107b390613ee9565b50505050505050565b6133806137dd565b8180600001516001600160ff1b0310156040518060600160405280603381526020016144a660339139906133c75760405162461bcd60e51b81526004016107b39190613bfa565b506133d06137dd565b835185516125329163ffffffff61376c16565b60006133ed61267b565b60e08054919250600091600019810190811061340557fe5b9060005260206000209060040201905080600301548214156134335760d154815560d25460018201556134b0565b6040805160a08101825260d15460808201908152815281516020818101845260d254825282015260e0918101613467612677565b8152602090810185905282546001818101855560009485529382902083515160049092020190815590820151519281019290925560408101516002830155606001516003909101555b604080516020810190915260d15481527f3a3348362552c3897fd1f06a3233519ebd8bd76ad6e99a418a9741155fe90515906134eb9061200d565b604080516020810190915260d25481526135049061200d565b61350c612677565b60405161082893929190614438565b60008161353a5760405162461bcd60e51b81526004016107b390614359565b8160001914801561354e5750600160ff1b83145b1561356b5760405162461bcd60e51b81526004016107b390613f20565b600082848161357657fe5b05949350505050565b6000610fd88361156d61359185613014565b879063ffffffff6126a416565b6135a66137dd565b6135ae61382f565b60e08360200151815481106135bf57fe5b600091825260208083206040805160a0810182526004909402909101805460808501908152845281518084018352600182015481529284019290925260028201549083015260030154606082015291508351600181111561361c57fe5b141561364057602081015181516136389163ffffffff61222d16565b915050610c0b565b60018351600181111561364f57fe5b14156136e45761366683604001516020015161200d565b6136725761363861240f565b6000836040015160400151600181111561368857fe5b14156136ab57604083015180516020918201518351928401516136389390610e6f565b600183604001516040015160018111156136c157fe5b14156136e45760408301518051602091820151835192840151613638939061195b565b60405162461bcd60e51b81526004016107b390613cc3565b6137046137dd565b61370c6137dd565b8351612201908463ffffffff6126a416565b6137266137dd565b61372e6137dd565b8351612201908463ffffffff61261816565b6000610fd861374e83613014565b61156d868663ffffffff6126a416565b6000610da2838360126137b2565b60008282018183128015906137815750838112155b80613796575060008312801561379657508381125b610da25760405162461bcd60e51b81526004016107b390613ddd565b6000610fd8836137d16137c485613014565b879063ffffffff612cc516565b9063ffffffff61351b16565b6040518060200160405280600081525090565b60405180608001604052806138036137dd565b81526020016138106137dd565b815260200161381d6137dd565b815260200161382a6137dd565b905290565b60405180608001604052806138426137dd565b815260200161384f6137dd565b815260200160008152602001600081525090565b604080516060810190915280600081526020016000815260200161382a6040805160608101909152806000815260200161389b6137dd565b8152602001600061382a565b6000602082840312156138b8578081fd5b50919050565b6000602082840312156138cf578081fd5b6138d9602061444e565b9135825250919050565b6000602082840312156138f4578081fd5b8135610da281614475565b600060208284031215613910578081fd5b8135610da28161448a565b60008060006060848603121561392f578182fd5b83356002811061393d578283fd5b925061394c85602086016138a7565b915061395b85604086016138a7565b90509250925092565b60008060008060808587031215613979578081fd5b843561398481614498565b935061399386602087016138a7565b92506139a286604087016138a7565b915060608501356139b28161448a565b939692955090935050565b600080604083850312156139cf578182fd5b82356139da81614498565b91506139e984602085016138be565b90509250929050565b60008060008060808587031215613a07578384fd5b8435613a1281614498565b9350613a2186602087016138be565b9250613a3086604087016138be565b9150613a3f86606087016138be565b905092959194509250565b600060208284031215613a5b578081fd5b610da283836138a7565b600060208284031215613a76578081fd5b610da283836138be565b60008060408385031215613a92578182fd5b6139da84846138be565b60008060008385036060811215613ab1578384fd5b6020811215613abe578384fd5b50613ac9602061444e565b843581529250613adc85602086016138be565b915061395b85604086016138be565b600060208284031215613afc578081fd5b5035919050565b600060208284031215613b14578081fd5b5051919050565b6000806000806000806000806000806101408b8d031215613b3a578788fd5b8a35995060208b0135985060408b0135975060608b0135965060808b0135613b6181614475565b955060a08b0135945060c08b0135613b7881614475565b8094505060e08b013592506101008b013591506101208b013590509295989b9194979a5092959850565b6001600160a01b0391909116815260200190565b901515815260200190565b90815260200190565b918252602082015260400190565b6060810160028510613be657fe5b938152602081019290925260409091015290565b6000602080835283518082850152825b81811015613c2657858101830151858201604001528201613c0a565b81811115613c375783604083870101525b50601f01601f1916929092016040019392505050565b602080825260159082015274062617365206173736574206166746572206973203605c1b604082015260600190565b60208082526027908201527f707269636520697320616c7265616479206f76657220666c756374756174696f6040820152661b881b1a5b5a5d60ca1b606082015260800190565b6020808252601490820152733737ba1039bab83837b93a32b21037b83a34b7b760611b604082015260600190565b6020808252601b908201527f536166654d6174683a206164646974696f6e206f766572666c6f770000000000604082015260600190565b60208082526019908201527f63616e206e6f742073657420696e74657276616c20746f203000000000000000604082015260600190565b6020808252601a908201527f63616c6c6572206973206e6f7420636f756e7465725061727479000000000000604082015260600190565b60208082526027908201527f5065727046694f776e61626c65557067726164653a2073616d652061732063616040820152666e64696461746560c81b606082015260800190565b60208082526021908201527f5369676e6564536166654d6174683a206164646974696f6e206f766572666c6f6040820152607760f81b606082015260800190565b6020808252601290820152711bdd995c881d1c98591a5b99c81b1a5b5a5d60721b604082015260600190565b60208082526027908201527f5065727046694f776e61626c65557067726164653a206e6f7420746865206e656040820152663b9037bbb732b960c91b606082015260800190565b6020808252600f908201526e0d2dcc6dee4e4cac6e840d2dcc8caf608b1b604082015260600190565b6020808252601590820152740756e6465726c79696e67207072696365206973203605c1b604082015260600190565b6020808252601f908201527f7072696365206973206f76657220666c756374756174696f6e206c696d697400604082015260600190565b60208082526021908201527f5369676e6564536166654d6174683a206469766973696f6e206f766572666c6f6040820152607760f81b606082015260800190565b6020808252601d908201527f4c657373207468616e206d696e696d616c2071756f746520746f6b656e000000604082015260600190565b6020808252600e908201526d185b5b481dd85cc818db1bdcd95960921b604082015260600190565b60208082526021908201527f536166654d6174683a206d756c7469706c69636174696f6e206f766572666c6f6040820152607760f81b606082015260800190565b6020808252601c908201527f6e6f74206f776e6572206e6f7220676c6f62616c53687574646f776e00000000604082015260600190565b6020808252601c908201527f4c657373207468616e206d696e696d616c206261736520746f6b656e00000000604082015260600190565b60208082526022908201527f5065727046694f776e61626c65557067726164653a207a65726f206164647265604082015261737360f01b606082015260800190565b6020808252602e908201527f436f6e747261637420696e7374616e63652068617320616c726561647920626560408201526d195b881a5b9a5d1a585b1a5e995960921b606082015260800190565b60208082526027908201527f5369676e6564536166654d6174683a206d756c7469706c69636174696f6e206f604082015266766572666c6f7760c81b606082015260800190565b60208082526019908201527f696e76616c696420507269636546656564206164647265737300000000000000604082015260600190565b6020808252601d908201527f4d6f7265207468616e206d6178696d616c2071756f746520746f6b656e000000604082015260600190565b6020808252601c908201527f4d6f7265207468616e206d6178696d616c206261736520746f6b656e00000000604082015260600190565b602080825260169082015275071756f746520617373657420616674657220697320360541b604082015260600190565b60208082526018908201527f736574746c652066756e64696e6720746f6f206561726c790000000000000000604082015260600190565b6020808252600d908201526c1a5b9d985b1a59081a5b9c1d5d609a1b604082015260600190565b60208082526024908201527f5369676e6564536166654d6174683a207375627472616374696f6e206f766572604082015263666c6f7760e01b606082015260800190565b6020808252602f908201527f5065727046694f776e61626c65557067726164653a2063616e6469646174652060408201526e6973207a65726f206164647265737360881b606082015260800190565b6020808252602d908201527f5065727046694f776e61626c65557067726164653a2063616c6c65722069732060408201526c3737ba103a34329037bbb732b960991b606082015260800190565b6020808252818101527f5369676e6564536166654d6174683a206469766973696f6e206279207a65726f604082015260600190565b60208082526026908201527f5065727046694f776e61626c65557067726164653a2073616d65206173206f726040820152651a59da5b985b60d21b606082015260800190565b815151815260208083015151908201526040808301515190820152606091820151519181019190915260800190565b9051815260200190565b9151825251602082015260400190565b93518452915160208401526040830152606082015260800190565b9283526020830191909152604082015260600190565b60405181810167ffffffffffffffff8111828210171561446d57600080fd5b604052919050565b6001600160a01b038116811461158957600080fd5b801515811461158957600080fd5b6002811061158957600080fdfe4d69786564446563696d616c3a2075696e742076616c756520697320626967676572207468616e205f494e543235365f4d4158a2646970667358221220cf3dd38e9f01107489b4005ce294f5bcb65a8daf1cf5955785168905813e092c64736f6c63430006090033",
  "linkReferences": {},
  "deployedLinkReferences": {}
}