{
  "_format": "hh-sol-artifact-1",
  "contractName": "L2PriceFeed",
  "sourceName": "src/L2PriceFeed.sol",
  "abi": [
    {
      "anonymous": false,
      "inputs": [
        {
          "indexed": true,
          "internalType": "address",
          "name": "previousOwner",
          "type": "address"
        },
        {
          "indexed": true,
          "internalType": "address",
          "name": "newOwner",
          "type": "address"
        }
      ],
      "name": "OwnershipTransferred",
      "type": "event"
    },
    {
      "anonymous": false,
      "inputs": [
        {
          "indexed": false,
          "internalType": "bytes32",
          "name": "key",
          "type": "bytes32"
        },
        {
          "indexed": false,
          "internalType": "uint256",
          "name": "price",
          "type": "uint256"
        },
        {
          "indexed": false,
          "internalType": "uint256",
          "name": "timestamp",
          "type": "uint256"
        },
        {
          "indexed": false,
          "internalType": "uint256",
          "name": "roundId",
          "type": "uint256"
        }
      ],
      "name": "PriceFeedDataSet",
      "type": "event"
    },
    {
      "inputs": [
        {
          "internalType": "bytes32",
          "name": "_priceFeedKey",
          "type": "bytes32"
        }
      ],
      "name": "addAggregator",
      "outputs": [],
      "stateMutability": "nonpayable",
      "type": "function"
    },
    {
      "inputs": [],
      "name": "ambBridge",
      "outputs": [
        {
          "internalType": "address",
          "name": "",
          "type": "address"
        }
      ],
      "stateMutability": "view",
      "type": "function"
    },
    {
      "inputs": [],
      "name": "candidate",
      "outputs": [
        {
          "internalType": "address",
          "name": "",
          "type": "address"
        }
      ],
      "stateMutability": "view",
      "type": "function"
    },
    {
      "inputs": [
        {
          "internalType": "bytes32",
          "name": "_priceFeedKey",
          "type": "bytes32"
        }
      ],
      "name": "getLatestTimestamp",
      "outputs": [
        {
          "internalType": "uint256",
          "name": "",
          "type": "uint256"
        }
      ],
      "stateMutability": "view",
      "type": "function"
    },
    {
      "inputs": [
        {
          "internalType": "bytes32",
          "name": "_priceFeedKey",
          "type": "bytes32"
        },
        {
          "internalType": "uint256",
          "name": "_numOfRoundBack",
          "type": "uint256"
        }
      ],
      "name": "getPreviousPrice",
      "outputs": [
        {
          "internalType": "uint256",
          "name": "",
          "type": "uint256"
        }
      ],
      "stateMutability": "view",
      "type": "function"
    },
    {
      "inputs": [
        {
          "internalType": "bytes32",
          "name": "_priceFeedKey",
          "type": "bytes32"
        },
        {
          "internalType": "uint256",
          "name": "_numOfRoundBack",
          "type": "uint256"
        }
      ],
      "name": "getPreviousTimestamp",
      "outputs": [
        {
          "internalType": "uint256",
          "name": "",
          "type": "uint256"
        }
      ],
      "stateMutability": "view",
      "type": "function"
    },
    {
      "inputs": [
        {
          "internalType": "bytes32",
          "name": "_priceFeedKey",
          "type": "bytes32"
        }
      ],
      "name": "getPrice",
      "outputs": [
        {
          "internalType": "uint256",
          "name": "",
          "type": "uint256"
        }
      ],
      "stateMutability": "view",
      "type": "function"
    },
    {
      "inputs": [
        {
          "internalType": "bytes32",
          "name": "_priceFeedKey",
          "type": "bytes32"
        }
      ],
      "name": "getPriceFeedLength",
      "outputs": [
        {
          "internalType": "uint256",
          "name": "length",
          "type": "uint256"
        }
      ],
      "stateMutability": "view",
      "type": "function"
    },
    {
      "inputs": [
        {
          "internalType": "bytes32",
          "name": "_priceFeedKey",
          "type": "bytes32"
        },
        {
          "internalType": "uint256",
          "name": "_interval",
          "type": "uint256"
        }
      ],
      "name": "getTwapPrice",
      "outputs": [
        {
          "internalType": "uint256",
          "name": "",
          "type": "uint256"
        }
      ],
      "stateMutability": "view",
      "type": "function"
    },
    {
      "inputs": [
        {
          "internalType": "address",
          "name": "_ambBridge",
          "type": "address"
        },
        {
          "internalType": "address",
          "name": "_rootBridge",
          "type": "address"
        }
      ],
      "name": "initialize",
      "outputs": [],
      "stateMutability": "nonpayable",
      "type": "function"
    },
    {
      "inputs": [],
      "name": "owner",
      "outputs": [
        {
          "internalType": "address",
          "name": "",
          "type": "address"
        }
      ],
      "stateMutability": "view",
      "type": "function"
    },
    {
      "inputs": [
        {
          "internalType": "uint256",
          "name": "",
          "type": "uint256"
        }
      ],
      "name": "priceFeedKeys",
      "outputs": [
        {
          "internalType": "bytes32",
          "name": "",
          "type": "bytes32"
        }
      ],
      "stateMutability": "view",
      "type": "function"
    },
    {
      "inputs": [
        {
          "internalType": "bytes32",
          "name": "",
          "type": "bytes32"
        }
      ],
      "name": "priceFeedMap",
      "outputs": [
        {
          "internalType": "bool",
          "name": "registered",
          "type": "bool"
        }
      ],
      "stateMutability": "view",
      "type": "function"
    },
    {
      "inputs": [
        {
          "internalType": "bytes32",
          "name": "_priceFeedKey",
          "type": "bytes32"
        }
      ],
      "name": "removeAggregator",
      "outputs": [],
      "stateMutability": "nonpayable",
      "type": "function"
    },
    {
      "inputs": [],
      "name": "renounceOwnership",
      "outputs": [],
      "stateMutability": "nonpayable",
      "type": "function"
    },
    {
      "inputs": [],
      "name": "rootBridge",
      "outputs": [
        {
          "internalType": "address",
          "name": "",
          "type": "address"
        }
      ],
      "stateMutability": "view",
      "type": "function"
    },
    {
      "inputs": [
        {
          "internalType": "bytes32",
          "name": "_priceFeedKey",
          "type": "bytes32"
        },
        {
          "internalType": "uint256",
          "name": "_price",
          "type": "uint256"
        },
        {
          "internalType": "uint256",
          "name": "_timestamp",
          "type": "uint256"
        },
        {
          "internalType": "uint256",
          "name": "_roundId",
          "type": "uint256"
        }
      ],
      "name": "setLatestData",
      "outputs": [],
      "stateMutability": "nonpayable",
      "type": "function"
    },
    {
      "inputs": [
        {
          "internalType": "address",
          "name": "newOwner",
          "type": "address"
        }
      ],
      "name": "setOwner",
      "outputs": [],
      "stateMutability": "nonpayable",
      "type": "function"
    },
    {
      "inputs": [
        {
          "internalType": "address",
          "name": "_rootBridge",
          "type": "address"
        }
      ],
      "name": "setRootBridge",
      "outputs": [],
      "stateMutability": "nonpayable",
      "type": "function"
    },
    {
      "inputs": [],
      "name": "updateOwner",
      "outputs": [],
      "stateMutability": "nonpayable",
      "type": "function"
    }
  ],
  "bytecode": "0x608060405234801561001057600080fd5b50611a1b806100206000396000f3fe608060405234801561001057600080fd5b506004361061012c5760003560e01c80636c8381f8116100ad578063914b14c511610071578063914b14c514610306578063a2173df414610329578063a7596ff81461034c578063bc5920ba14610372578063cdea7c701461037a5761012c565b80636c8381f8146102b4578063715018a6146102bc578063744aca14146102c45780637ad22632146102e15780638da5cb5b146102fe5761012c565b80632bed9e0c116100f45780632bed9e0c1461020c57806331d98b3f14610229578063485cc9551461024657806359bb180e1461027457806359d684cf146102975761012c565b8063031d64bd146101315780630ba54df61461016257806313af403514610186578063250742cc146101ac5780632a0ab1dd146101dd575b600080fd5b6101606004803603608081101561014757600080fd5b5080359060208101359060408101359060600135610382565b005b61016a6105b2565b604080516001600160a01b039092168252519081900360200190f35b6101606004803603602081101561019c57600080fd5b50356001600160a01b03166105c1565b6101c9600480360360208110156101c257600080fd5b5035610716565b604080519115158252519081900360200190f35b6101fa600480360360208110156101f357600080fd5b503561072b565b60408051918252519081900360200190f35b6101606004803603602081101561022257600080fd5b5035610749565b6101fa6004803603602081101561023f57600080fd5b5035610862565b6101606004803603604081101561025c57600080fd5b506001600160a01b038135811691602001351661093e565b6101fa6004803603604081101561028a57600080fd5b5080359060200135610a19565b610160600480360360208110156102ad57600080fd5b5035610b08565b61016a610bb4565b610160610bc4565b6101fa600480360360208110156102da57600080fd5b5035610c62565b6101fa600480360360208110156102f757600080fd5b5035610c77565b61016a610d1c565b6101fa6004803603604081101561031c57600080fd5b5080359060200135610d2b565b6101fa6004803603604081101561033f57600080fd5b5080359060200135610e19565b6101606004803603602081101561036257600080fd5b50356001600160a01b031661111f565b6101606111e0565b61016a6112e1565b60cb546001600160a01b03166103966112f0565b6001600160a01b0316146103de576040805162461bcd60e51b815260206004820152600a60248201526921616d6242726964676560b01b604482015290519081900360640190fd5b60cc5460cb546040805163d67bdd2560e01b815290516001600160a01b03938416939092169163d67bdd2591600480820192602092909190829003018186803b15801561042a57600080fd5b505afa15801561043e573d6000803e3d6000fd5b505050506040513d602081101561045457600080fd5b50516001600160a01b0316146104a9576040805162461bcd60e51b815260206004820152601560248201527473656e646572206e6f7420526f6f7442726964676560581b604482015290519081900360640190fd5b6104b48460016112f4565b6104bd84610c77565b8211610506576040805162461bcd60e51b81526020600482015260136024820152720696e636f72726563742074696d657374616d7606c1b604482015290519081900360640190fd5b61050e61183c565b506040805160608082018352838252602080830187815283850187815260008a815260cd8452868120600190810180548083018255908352918590208751600390930201918255925192810192909255516002909101558351888152908101879052808401869052908101849052915190917fb3b3d4e42c62d694318e0149f90ed0f2e7be9757332da15fd55ae5a01d41722c919081900360800190a15050505050565b60cb546001600160a01b031681565b6105c96112f0565b6065546001600160a01b039081169116146106155760405162461bcd60e51b815260040180806020018281038252602d815260200180611993602d913960400191505060405180910390fd5b6001600160a01b03811661065a5760405162461bcd60e51b81526004018080602001828103825260228152602001806119146022913960400191505060405180910390fd5b6065546001600160a01b03828116911614156106a75760405162461bcd60e51b81526004018080602001828103825260268152602001806119c06026913960400191505060405180910390fd5b6066546001600160a01b03828116911614156106f45760405162461bcd60e51b81526004018080602001828103825260278152602001806118a56027913960400191505060405180910390fd5b606680546001600160a01b0319166001600160a01b0392909216919091179055565b60cd6020526000908152604090205460ff1681565b60ce818154811061073857fe5b600091825260209091200154905081565b6107516112f0565b6065546001600160a01b0390811691161461079d5760405162461bcd60e51b815260040180806020018281038252602d815260200180611993602d913960400191505060405180910390fd5b6107a88160016112f4565b600081815260cd60205260408120805460ff19168155906107cc600183018261185d565b505060ce5460005b8181101561085d578260ce82815481106107ea57fe5b906000526020600020015414156108555760ce600183038154811061080b57fe5b906000526020600020015460ce828154811061082357fe5b60009182526020909120015560ce80548061083a57fe5b6001900381819060005260206000200160009055905561085d565b6001016107d4565b505050565b600061086d82611398565b6108b0576040805162461bcd60e51b815260206004820152600f60248201526e1ad95e481b9bdd08195e1a5cdd1959608a1b604482015290519081900360640190fd5b60006108bb83610c62565b905060008111610902576040805162461bcd60e51b815260206004820152600d60248201526c6e6f207072696365206461746160981b604482015290519081900360640190fd5b600083815260cd602052604090206001018054600019830190811061092357fe5b9060005260206000209060030201600101549150505b919050565b600054610100900460ff168061095757506109576113ad565b80610965575060005460ff16155b6109a05760405162461bcd60e51b815260040180806020018281038252602e815260200180611936602e913960400191505060405180910390fd5b600054610100900460ff161580156109cb576000805460ff1961ff0019909116610100171660011790555b6109d36113b3565b60cb80546001600160a01b038086166001600160a01b03199283161790925560cc805492851692909116919091179055801561085d576000805461ff0019169055505050565b6000610a2483611398565b610a67576040805162461bcd60e51b815260206004820152600f60248201526e1ad95e481b9bdd08195e1a5cdd1959608a1b604482015290519081900360640190fd5b6000610a7284610c62565b9050600081118015610a8357508083105b610ac9576040805162461bcd60e51b81526020600482015260126024820152714e6f7420656e6f75676820686973746f727960701b604482015290519081900360640190fd5b600084815260cd60205260409020600101805460001985840301908110610aec57fe5b9060005260206000209060030201600201549150505b92915050565b610b106112f0565b6065546001600160a01b03908116911614610b5c5760405162461bcd60e51b815260040180806020018281038252602d815260200180611993602d913960400191505060405180910390fd5b610b678160006112f4565b600081815260cd60205260408120805460ff1916600190811790915560ce805491820181559091527fd36cd1c74ef8d7326d8021b776c18fb5a5724b7f7bc93c2f42e43e10ef27d12a0155565b6066546001600160a01b03165b90565b610bcc6112f0565b6065546001600160a01b03908116911614610c185760405162461bcd60e51b815260040180806020018281038252602d815260200180611993602d913960400191505060405180910390fd5b6065546040516000916001600160a01b0316907f8be0079c531659141344cd1fd0a4f28419497f9722a3daafe3b4186f6b6457e0908390a3606580546001600160a01b0319169055565b600090815260cd602052604090206001015490565b6000610c8282611398565b610cc5576040805162461bcd60e51b815260206004820152600f60248201526e1ad95e481b9bdd08195e1a5cdd1959608a1b604482015290519081900360640190fd5b6000610cd083610c62565b905080610ce1576000915050610939565b600083815260cd6020526040902060010180546000198301908110610d0257fe5b906000526020600020906003020160020154915050919050565b6065546001600160a01b031690565b6000610d3683611398565b610d79576040805162461bcd60e51b815260206004820152600f60248201526e1ad95e481b9bdd08195e1a5cdd1959608a1b604482015290519081900360640190fd5b6000610d8484610c62565b9050600081118015610d9557508083105b610ddb576040805162461bcd60e51b81526020600482015260126024820152714e6f7420656e6f75676820686973746f727960701b604482015290519081900360640190fd5b600084815260cd60205260409020600101805460001985840301908110610dfe57fe5b90600052602060002090600302016001015491505092915050565b6000610e2483611398565b610e67576040805162461bcd60e51b815260206004820152600f60248201526e1ad95e481b9bdd08195e1a5cdd1959608a1b604482015290519081900360640190fd5b81610eaf576040805162461bcd60e51b81526020600482015260136024820152720696e74657276616c2063616e2774206265203606c1b604482015290519081900360640190fd5b6000610eba84610c62565b905060008111610f06576040805162461bcd60e51b81526020600482015260126024820152714e6f7420656e6f75676820686973746f727960701b604482015290519081900360640190fd5b6000198101610f1361183c565b600086815260cd60205260409020600101805483908110610f3057fe5b9060005260206000209060030201604051806060016040529081600082015481526020016001820154815260200160028201548152505090506000816040015190506000610f8c87610f80611465565b9063ffffffff61146916565b905080821080610f9a575083155b15610faf575050602001519250610b02915050565b6000610fbd83610f80611465565b60208501519091508390600090610fda908463ffffffff6114b216565b90505b8661100157610ff2818463ffffffff61150b16565b98505050505050505050610b02565b61101287600163ffffffff61146916565b60008c815260cd602052604090206001018054919850908890811061103357fe5b600091825260209182902060408051606081018252600390930290910180548352600181015493830184905260020154908201819052909750908582116110ad576110a461109761108a868963ffffffff61146916565b839063ffffffff6114b216565b849063ffffffff61154d16565b92505050611100565b60006110bf858463ffffffff61146916565b90506110e16110d4838363ffffffff6114b216565b859063ffffffff61154d16565b93506110f3868263ffffffff61154d16565b9550829450505050610fdd565b611110818b63ffffffff61150b16565b9b9a5050505050505050505050565b6111276112f0565b6065546001600160a01b039081169116146111735760405162461bcd60e51b815260040180806020018281038252602d815260200180611993602d913960400191505060405180910390fd5b6001600160a01b0381166111be576040805162461bcd60e51b815260206004820152600d60248201526c6164647220697320656d70747960981b604482015290519081900360640190fd5b60cc80546001600160a01b0319166001600160a01b0392909216919091179055565b6066546001600160a01b03166112275760405162461bcd60e51b815260040180806020018281038252602f815260200180611964602f913960400191505060405180910390fd5b61122f6112f0565b6066546001600160a01b0390811691161461127b5760405162461bcd60e51b81526004018080602001828103825260278152602001806118cc6027913960400191505060405180910390fd5b6066546065546040516001600160a01b0392831692909116907f8be0079c531659141344cd1fd0a4f28419497f9722a3daafe3b4186f6b6457e090600090a360668054606580546001600160a01b03199081166001600160a01b03841617909155169055565b60cc546001600160a01b031681565b3390565b801561134b5761130382611398565b611346576040805162461bcd60e51b815260206004820152600f60248201526e1ad95e481b9bdd08195e1a5cdd1959608a1b604482015290519081900360640190fd5b611394565b61135482611398565b15611394576040805162461bcd60e51b815260206004820152600b60248201526a1ad95e48195e1a5cdd195960aa1b604482015290519081900360640190fd5b5050565b600090815260cd602052604090205460ff1690565b303b1590565b600054610100900460ff16806113cc57506113cc6113ad565b806113da575060005460ff16155b6114155760405162461bcd60e51b815260040180806020018281038252602e815260200180611936602e913960400191505060405180910390fd5b600054610100900460ff16158015611440576000805460ff1961ff0019909116610100171660011790555b6114486115a7565b611450611647565b8015611462576000805461ff00191690555b50565b4290565b60006114ab83836040518060400160405280601e81526020017f536166654d6174683a207375627472616374696f6e206f766572666c6f770000815250611740565b9392505050565b6000826114c157506000610b02565b828202828482816114ce57fe5b04146114ab5760405162461bcd60e51b81526004018080602001828103825260218152602001806118f36021913960400191505060405180910390fd5b60006114ab83836040518060400160405280601a81526020017f536166654d6174683a206469766973696f6e206279207a65726f0000000000008152506117d7565b6000828201838110156114ab576040805162461bcd60e51b815260206004820152601b60248201527f536166654d6174683a206164646974696f6e206f766572666c6f770000000000604482015290519081900360640190fd5b600054610100900460ff16806115c057506115c06113ad565b806115ce575060005460ff16155b6116095760405162461bcd60e51b815260040180806020018281038252602e815260200180611936602e913960400191505060405180910390fd5b600054610100900460ff16158015611450576000805460ff1961ff0019909116610100171660011790558015611462576000805461ff001916905550565b600054610100900460ff168061166057506116606113ad565b8061166e575060005460ff16155b6116a95760405162461bcd60e51b815260040180806020018281038252602e815260200180611936602e913960400191505060405180910390fd5b600054610100900460ff161580156116d4576000805460ff1961ff0019909116610100171660011790555b60006116de6112f0565b606580546001600160a01b0319166001600160a01b038316908117909155604051919250906000907f8be0079c531659141344cd1fd0a4f28419497f9722a3daafe3b4186f6b6457e0908290a3508015611462576000805461ff001916905550565b600081848411156117cf5760405162461bcd60e51b81526004018080602001828103825283818151815260200191508051906020019080838360005b8381101561179457818101518382015260200161177c565b50505050905090810190601f1680156117c15780820380516001836020036101000a031916815260200191505b509250505060405180910390fd5b505050900390565b600081836118265760405162461bcd60e51b815260206004820181815283516024840152835190928392604490910191908501908083836000831561179457818101518382015260200161177c565b50600083858161183257fe5b0495945050505050565b60405180606001604052806000815260200160008152602001600081525090565b50805460008255600302906000526020600020908101906114629190610bc191905b808211156118a057600080825560018201819055600282015560030161187f565b509056fe5065727046694f776e61626c65557067726164653a2073616d652061732063616e6469646174655065727046694f776e61626c65557067726164653a206e6f7420746865206e6577206f776e6572536166654d6174683a206d756c7469706c69636174696f6e206f766572666c6f775065727046694f776e61626c65557067726164653a207a65726f2061646472657373436f6e747261637420696e7374616e63652068617320616c7265616479206265656e20696e697469616c697a65645065727046694f776e61626c65557067726164653a2063616e646964617465206973207a65726f20616464726573735065727046694f776e61626c65557067726164653a2063616c6c6572206973206e6f7420746865206f776e65725065727046694f776e61626c65557067726164653a2073616d65206173206f726967696e616ca264697066735822122065735c16075954326f276fd8fb20c4c4ddd8dc247de685295d18d8f0eb4f477164736f6c63430006090033",
  "linkReferences": {},
  "deployedLinkReferences": {}
}