{
  "_format": "hh-sol-artifact-1",
  "contractName": "ChainlinkPriceFeedFake",
  "sourceName": "src/mock/ChainlinkPriceFeedFake.sol",
  "abi": [
    {
      "anonymous": false,
      "inputs": [
        {
          "indexed": true,
          "internalType": "address",
          "name": "previousOwner",
          "type": "address"
        },
        {
          "indexed": true,
          "internalType": "address",
          "name": "newOwner",
          "type": "address"
        }
      ],
      "name": "OwnershipTransferred",
      "type": "event"
    },
    {
      "inputs": [
        {
          "internalType": "bytes32",
          "name": "_priceFeedKey",
          "type": "bytes32"
        },
        {
          "internalType": "address",
          "name": "_aggregator",
          "type": "address"
        }
      ],
      "name": "addAggregator",
      "outputs": [],
      "stateMutability": "nonpayable",
      "type": "function"
    },
    {
      "inputs": [],
      "name": "candidate",
      "outputs": [
        {
          "internalType": "address",
          "name": "",
          "type": "address"
        }
      ],
      "stateMutability": "view",
      "type": "function"
    },
    {
      "inputs": [
        {
          "internalType": "bytes32",
          "name": "_priceFeedKey",
          "type": "bytes32"
        }
      ],
      "name": "getAggregator",
      "outputs": [
        {
          "internalType": "contract AggregatorV3Interface",
          "name": "",
          "type": "address"
        }
      ],
      "stateMutability": "view",
      "type": "function"
    },
    {
      "inputs": [
        {
          "internalType": "bytes32",
          "name": "_priceFeedKey",
          "type": "bytes32"
        }
      ],
      "name": "getLatestTimestamp",
      "outputs": [
        {
          "internalType": "uint256",
          "name": "",
          "type": "uint256"
        }
      ],
      "stateMutability": "view",
      "type": "function"
    },
    {
      "inputs": [
        {
          "internalType": "bytes32",
          "name": "_priceFeedKey",
          "type": "bytes32"
        },
        {
          "internalType": "uint256",
          "name": "_numOfRoundBack",
          "type": "uint256"
        }
      ],
      "name": "getPreviousPrice",
      "outputs": [
        {
          "internalType": "uint256",
          "name": "",
          "type": "uint256"
        }
      ],
      "stateMutability": "view",
      "type": "function"
    },
    {
      "inputs": [
        {
          "internalType": "bytes32",
          "name": "_priceFeedKey",
          "type": "bytes32"
        },
        {
          "internalType": "uint256",
          "name": "_numOfRoundBack",
          "type": "uint256"
        }
      ],
      "name": "getPreviousTimestamp",
      "outputs": [
        {
          "internalType": "uint256",
          "name": "",
          "type": "uint256"
        }
      ],
      "stateMutability": "view",
      "type": "function"
    },
    {
      "inputs": [
        {
          "internalType": "bytes32",
          "name": "_priceFeedKey",
          "type": "bytes32"
        }
      ],
      "name": "getPrice",
      "outputs": [
        {
          "internalType": "uint256",
          "name": "",
          "type": "uint256"
        }
      ],
      "stateMutability": "view",
      "type": "function"
    },
    {
      "inputs": [
        {
          "internalType": "bytes32",
          "name": "_priceFeedKey",
          "type": "bytes32"
        },
        {
          "internalType": "uint256",
          "name": "_interval",
          "type": "uint256"
        }
      ],
      "name": "getTwapPrice",
      "outputs": [
        {
          "internalType": "uint256",
          "name": "",
          "type": "uint256"
        }
      ],
      "stateMutability": "view",
      "type": "function"
    },
    {
      "inputs": [],
      "name": "initialize",
      "outputs": [],
      "stateMutability": "nonpayable",
      "type": "function"
    },
    {
      "inputs": [],
      "name": "mock_getCurrentBlockNumber",
      "outputs": [
        {
          "internalType": "uint256",
          "name": "",
          "type": "uint256"
        }
      ],
      "stateMutability": "view",
      "type": "function"
    },
    {
      "inputs": [],
      "name": "mock_getCurrentTimestamp",
      "outputs": [
        {
          "internalType": "uint256",
          "name": "",
          "type": "uint256"
        }
      ],
      "stateMutability": "view",
      "type": "function"
    },
    {
      "inputs": [
        {
          "internalType": "uint256",
          "name": "_number",
          "type": "uint256"
        }
      ],
      "name": "mock_setBlockNumber",
      "outputs": [],
      "stateMutability": "nonpayable",
      "type": "function"
    },
    {
      "inputs": [
        {
          "internalType": "uint256",
          "name": "_timestamp",
          "type": "uint256"
        }
      ],
      "name": "mock_setBlockTimestamp",
      "outputs": [],
      "stateMutability": "nonpayable",
      "type": "function"
    },
    {
      "inputs": [],
      "name": "owner",
      "outputs": [
        {
          "internalType": "address",
          "name": "",
          "type": "address"
        }
      ],
      "stateMutability": "view",
      "type": "function"
    },
    {
      "inputs": [
        {
          "internalType": "bytes32",
          "name": "",
          "type": "bytes32"
        }
      ],
      "name": "priceFeedDecimalMap",
      "outputs": [
        {
          "internalType": "uint8",
          "name": "",
          "type": "uint8"
        }
      ],
      "stateMutability": "view",
      "type": "function"
    },
    {
      "inputs": [
        {
          "internalType": "uint256",
          "name": "",
          "type": "uint256"
        }
      ],
      "name": "priceFeedKeys",
      "outputs": [
        {
          "internalType": "bytes32",
          "name": "",
          "type": "bytes32"
        }
      ],
      "stateMutability": "view",
      "type": "function"
    },
    {
      "inputs": [
        {
          "internalType": "bytes32",
          "name": "",
          "type": "bytes32"
        }
      ],
      "name": "priceFeedMap",
      "outputs": [
        {
          "internalType": "contract AggregatorV3Interface",
          "name": "",
          "type": "address"
        }
      ],
      "stateMutability": "view",
      "type": "function"
    },
    {
      "inputs": [
        {
          "internalType": "bytes32",
          "name": "_priceFeedKey",
          "type": "bytes32"
        }
      ],
      "name": "removeAggregator",
      "outputs": [],
      "stateMutability": "nonpayable",
      "type": "function"
    },
    {
      "inputs": [],
      "name": "renounceOwnership",
      "outputs": [],
      "stateMutability": "nonpayable",
      "type": "function"
    },
    {
      "inputs": [
        {
          "internalType": "bytes32",
          "name": "_priceFeedKey",
          "type": "bytes32"
        },
        {
          "internalType": "uint256",
          "name": "_price",
          "type": "uint256"
        },
        {
          "internalType": "uint256",
          "name": "_timestamp",
          "type": "uint256"
        },
        {
          "internalType": "uint256",
          "name": "_roundId",
          "type": "uint256"
        }
      ],
      "name": "setLatestData",
      "outputs": [],
      "stateMutability": "nonpayable",
      "type": "function"
    },
    {
      "inputs": [
        {
          "internalType": "address",
          "name": "newOwner",
          "type": "address"
        }
      ],
      "name": "setOwner",
      "outputs": [],
      "stateMutability": "nonpayable",
      "type": "function"
    },
    {
      "inputs": [],
      "name": "updateOwner",
      "outputs": [],
      "stateMutability": "nonpayable",
      "type": "function"
    }
  ],
  "bytecode": "0x6080604052635611c230610100556127116101015534801561002057600080fd5b50611986806100306000396000f3fe608060405234801561001057600080fd5b50600436106101415760003560e01c80636c8381f8116100b85780638da5cb5b1161007c5780638da5cb5b14610338578063914b14c5146103405780639432665a14610363578063a2173df414610380578063bc5920ba146103a3578063c77f7c61146103ab57610141565b80636c8381f8146102d05780636d4b8585146102d8578063715018a61461030b5780637ad22632146103135780638129fc1c1461033057610141565b80632a0ab1dd1161010a5780632a0ab1dd1461020d5780632bed9e0c1461022a57806331d98b3f14610247578063331b1816146102645780633f0e084f1461028157806359bb180e146102ad57610141565b8062c141b614610146578063031d64bd14610165578063093383831461019457806313af4035146101ae578063250742cc146101d4575b600080fd5b6101636004803603602081101561015c57600080fd5b50356103b3565b005b6101636004803603608081101561017b57600080fd5b50803590602081013590604081013590606001356103b9565b61019c6103f4565b60408051918252519081900360200190f35b610163600480360360208110156101c457600080fd5b50356001600160a01b0316610403565b6101f1600480360360208110156101ea57600080fd5b5035610558565b604080516001600160a01b039092168252519081900360200190f35b61019c6004803603602081101561022357600080fd5b5035610573565b6101636004803603602081101561024057600080fd5b5035610591565b61019c6004803603602081101561025d57600080fd5b50356106c2565b6101f16004803603602081101561027a57600080fd5b503561070e565b6101636004803603604081101561029757600080fd5b50803590602001356001600160a01b0316610729565b61019c600480360360408110156102c357600080fd5b5080359060200135610888565b6101f1610a1a565b6102f5600480360360208110156102ee57600080fd5b5035610a29565b6040805160ff9092168252519081900360200190f35b610163610a3e565b61019c6004803603602081101561032957600080fd5b5035610adc565b610163610b08565b6101f1610bb2565b61019c6004803603604081101561035657600080fd5b5080359060200135610bc1565b6101636004803603602081101561037957600080fd5b5035610d59565b61019c6004803603604081101561039657600080fd5b5080359060200135610d5f565b610163610f5a565b61019c61105b565b61010155565b6040805162461bcd60e51b815260206004820152600b60248201526a1b9bdd081cdd5c1c1bdc9d60aa1b604482015290519081900360640190fd5b60006103fe611065565b905090565b61040b61106c565b6065546001600160a01b039081169116146104575760405162461bcd60e51b815260040180806020018281038252602d8152602001806118fe602d913960400191505060405180910390fd5b6001600160a01b03811661049c5760405162461bcd60e51b815260040180806020018281038252602281526020018061187f6022913960400191505060405180910390fd5b6065546001600160a01b03828116911614156104e95760405162461bcd60e51b815260040180806020018281038252602681526020018061192b6026913960400191505060405180910390fd5b6066546001600160a01b03828116911614156105365760405162461bcd60e51b81526004018080602001828103825260278152602001806118106027913960400191505060405180910390fd5b606680546001600160a01b0319166001600160a01b0392909216919091179055565b60cb602052600090815260409020546001600160a01b031681565b60cc818154811061058057fe5b600091825260209091200154905081565b61059961106c565b6065546001600160a01b039081169116146105e55760405162461bcd60e51b815260040180806020018281038252602d8152602001806118fe602d913960400191505060405180910390fd5b6105f66105f18261070e565b611070565b600081815260cb6020908152604080832080546001600160a01b031916905560cd9091528120805460ff1916905560cc54905b818110156106bd578260cc828154811061063f57fe5b906000526020600020015414156106b55760018203811461068f5760cc600183038154811061066a57fe5b906000526020600020015460cc828154811061068257fe5b6000918252602090912001555b60cc80548061069a57fe5b600190038181906000526020600020016000905590556106bd565b600101610629565b505050565b6000806106ce8361070e565b90506106d981611070565b60006106e4826110bb565b50600086815260cd60205260409020549092506107069150829060ff16611173565b949350505050565b600090815260cb60205260409020546001600160a01b031690565b61073161106c565b6065546001600160a01b0390811691161461077d5760405162461bcd60e51b815260040180806020018281038252602d8152602001806118fe602d913960400191505060405180910390fd5b61078681611070565b600082815260cb60205260409020546001600160a01b03166107d85760cc80546001810182556000919091527f47197230e1e4b29fc0bd84d7d78966c0925452aff72a2a121538b102457e9ebe018290555b600082815260cb602090815260409182902080546001600160a01b0319166001600160a01b038516908117909155825163313ce56760e01b81529251909263313ce567926004808301939192829003018186803b15801561083857600080fd5b505afa15801561084c573d6000803e3d6000fd5b505050506040513d602081101561086257600080fd5b5051600092835260cd6020526040909220805460ff191660ff9093169290921790915550565b6000806108948461070e565b905061089f81611070565b6000816001600160a01b031663feaf968c6040518163ffffffff1660e01b815260040160a06040518083038186803b1580156108da57600080fd5b505afa1580156108ee573d6000803e3d6000fd5b505050506040513d60a081101561090457600080fd5b505190506001600160501b03811615801590610929575083816001600160501b031610155b61096f576040805162461bcd60e51b81526020600482015260126024820152714e6f7420656e6f75676820686973746f727960701b604482015290519081900360640190fd5b600080836001600160a01b0316639a6fc8f58785036040518263ffffffff1660e01b815260040180826001600160501b03166001600160501b0316815260200191505060a06040518083038186803b1580156109ca57600080fd5b505afa1580156109de573d6000803e3d6000fd5b505050506040513d60a08110156109f457600080fd5b5060208101516060909101519092509050610a0e826111aa565b93505050505b92915050565b6066546001600160a01b031690565b60cd6020526000908152604090205460ff1681565b610a4661106c565b6065546001600160a01b03908116911614610a925760405162461bcd60e51b815260040180806020018281038252602d8152602001806118fe602d913960400191505060405180910390fd5b6065546040516000916001600160a01b0316907f8be0079c531659141344cd1fd0a4f28419497f9722a3daafe3b4186f6b6457e0908390a3606580546001600160a01b0319169055565b600080610ae88361070e565b9050610af381611070565b6000610afe826110bb565b9695505050505050565b600054610100900460ff1680610b215750610b216111f0565b80610b2f575060005460ff16155b610b6a5760405162461bcd60e51b815260040180806020018281038252602e8152602001806118a1602e913960400191505060405180910390fd5b600054610100900460ff16158015610b95576000805460ff1961ff0019909116610100171660011790555b610b9d6111f6565b8015610baf576000805461ff00191690555b50565b6065546001600160a01b031690565b600080610bcd8461070e565b9050610bd881611070565b6000816001600160a01b031663feaf968c6040518163ffffffff1660e01b815260040160a06040518083038186803b158015610c1357600080fd5b505afa158015610c27573d6000803e3d6000fd5b505050506040513d60a0811015610c3d57600080fd5b505190506001600160501b03811615801590610c62575083816001600160501b031610155b610ca8576040805162461bcd60e51b81526020600482015260126024820152714e6f7420656e6f75676820686973746f727960701b604482015290519081900360640190fd5b6000826001600160a01b0316639a6fc8f58684036040518263ffffffff1660e01b815260040180826001600160501b03166001600160501b0316815260200191505060a06040518083038186803b158015610d0257600080fd5b505afa158015610d16573d6000803e3d6000fd5b505050506040513d60a0811015610d2c57600080fd5b50602001519050610d3c816111aa565b600086815260cd6020526040902054610a0e90829060ff16611173565b61010055565b600080610d6b8461070e565b9050610d7681611070565b82610dbe576040805162461bcd60e51b81526020600482015260136024820152720696e74657276616c2063616e2774206265203606c1b604482015290519081900360640190fd5b600084815260cd602052604081205460ff16908080610ddc856110bb565b9250925092506000610dfc88610df0611293565b9063ffffffff61129a16565b905080821080610e1357506001600160501b038416155b15610e2f57610e228386611173565b9650505050505050610a14565b816000610e3e82610df0611293565b90506000610e52868363ffffffff6112dc16565b90505b6001600160501b038716610e8c57610e7c610e76828463ffffffff61133516565b89611173565b9950505050505050505050610a14565b600187039650600080610e9f8b8a611377565b9250925050858111610ee457610edb610ece610ec1878963ffffffff61129a16565b849063ffffffff6112dc16565b849063ffffffff6114cd16565b92505050610f37565b6000610ef6868363ffffffff61129a16565b9050610f18610f0b848363ffffffff6112dc16565b859063ffffffff6114cd16565b9350610f2a858263ffffffff6114cd16565b9450819550505050610e55565b610f4a610e76828d63ffffffff61133516565b9c9b505050505050505050505050565b6066546001600160a01b0316610fa15760405162461bcd60e51b815260040180806020018281038252602f8152602001806118cf602f913960400191505060405180910390fd5b610fa961106c565b6066546001600160a01b03908116911614610ff55760405162461bcd60e51b81526004018080602001828103825260278152602001806118376027913960400191505060405180910390fd5b6066546065546040516001600160a01b0392831692909116907f8be0079c531659141344cd1fd0a4f28419497f9722a3daafe3b4186f6b6457e090600090a360668054606580546001600160a01b03199081166001600160a01b03841617909155169055565b60006103fe611293565b6101015490565b3390565b6001600160a01b038116610baf576040805162461bcd60e51b815260206004820152600d60248201526c656d707479206164647265737360981b604482015290519081900360640190fd5b600080600080600080866001600160a01b031663feaf968c6040518163ffffffff1660e01b815260040160a06040518083038186803b1580156110fd57600080fd5b505afa158015611111573d6000803e3d6000fd5b505050506040513d60a081101561112757600080fd5b50805160208201516060909201519196509350859250905060008212156111675761115183611527565b61115e8760018503611377565b90965090935090505b91969395509093505050565b60006111a360ff8316600a0a61119785670de0b6b3a764000063ffffffff6112dc16565b9063ffffffff61133516565b9392505050565b60008113610baf576040805162461bcd60e51b815260206004820152600e60248201526d4e6567617469766520707269636560901b604482015290519081900360640190fd5b303b1590565b600054610100900460ff168061120f575061120f6111f0565b8061121d575060005460ff16155b6112585760405162461bcd60e51b815260040180806020018281038252602e8152602001806118a1602e913960400191505060405180910390fd5b600054610100900460ff16158015611283576000805460ff1961ff0019909116610100171660011790555b61128b61157a565b610b9d61161a565b6101005490565b60006111a383836040518060400160405280601e81526020017f536166654d6174683a207375627472616374696f6e206f766572666c6f770000815250611713565b6000826112eb57506000610a14565b828202828482816112f857fe5b04146111a35760405162461bcd60e51b815260040180806020018281038252602181526020018061185e6021913960400191505060405180910390fd5b60006111a383836040518060400160405280601a81526020017f536166654d6174683a206469766973696f6e206279207a65726f0000000000008152506117aa565b600080600080600080876001600160a01b0316639a6fc8f5886040518263ffffffff1660e01b815260040180826001600160501b03166001600160501b0316815260200191505060a06040518083038186803b1580156113d657600080fd5b505afa1580156113ea573d6000803e3d6000fd5b505050506040513d60a081101561140057600080fd5b508051602082015160609092015190945090925090505b60008212156114bf5761142983611527565b60408051639a6fc8f560e01b81526001600160501b03600019909501948516600482015290516001600160a01b038a1691639a6fc8f59160248083019260a0929190829003018186803b15801561147f57600080fd5b505afa158015611493573d6000803e3d6000fd5b505050506040513d60a08110156114a957600080fd5b5060208101516060909101519092509050611417565b919450925090509250925092565b6000828201838110156111a3576040805162461bcd60e51b815260206004820152601b60248201527f536166654d6174683a206164646974696f6e206f766572666c6f770000000000604482015290519081900360640190fd5b6000816001600160501b031611610baf576040805162461bcd60e51b81526020600482015260126024820152714e6f7420656e6f75676820686973746f727960701b604482015290519081900360640190fd5b600054610100900460ff168061159357506115936111f0565b806115a1575060005460ff16155b6115dc5760405162461bcd60e51b815260040180806020018281038252602e8152602001806118a1602e913960400191505060405180910390fd5b600054610100900460ff16158015610b9d576000805460ff1961ff0019909116610100171660011790558015610baf576000805461ff001916905550565b600054610100900460ff168061163357506116336111f0565b80611641575060005460ff16155b61167c5760405162461bcd60e51b815260040180806020018281038252602e8152602001806118a1602e913960400191505060405180910390fd5b600054610100900460ff161580156116a7576000805460ff1961ff0019909116610100171660011790555b60006116b161106c565b606580546001600160a01b0319166001600160a01b038316908117909155604051919250906000907f8be0079c531659141344cd1fd0a4f28419497f9722a3daafe3b4186f6b6457e0908290a3508015610baf576000805461ff001916905550565b600081848411156117a25760405162461bcd60e51b81526004018080602001828103825283818151815260200191508051906020019080838360005b8381101561176757818101518382015260200161174f565b50505050905090810190601f1680156117945780820380516001836020036101000a031916815260200191505b509250505060405180910390fd5b505050900390565b600081836117f95760405162461bcd60e51b815260206004820181815283516024840152835190928392604490910191908501908083836000831561176757818101518382015260200161174f565b50600083858161180557fe5b049594505050505056fe5065727046694f776e61626c65557067726164653a2073616d652061732063616e6469646174655065727046694f776e61626c65557067726164653a206e6f7420746865206e6577206f776e6572536166654d6174683a206d756c7469706c69636174696f6e206f766572666c6f775065727046694f776e61626c65557067726164653a207a65726f2061646472657373436f6e747261637420696e7374616e63652068617320616c7265616479206265656e20696e697469616c697a65645065727046694f776e61626c65557067726164653a2063616e646964617465206973207a65726f20616464726573735065727046694f776e61626c65557067726164653a2063616c6c6572206973206e6f7420746865206f776e65725065727046694f776e61626c65557067726164653a2073616d65206173206f726967696e616ca26469706673582212201c064dbc73f372ea08c5a8d7b4dc1adae1b53f1a1721de9adf85e0d4bd8db32064736f6c63430006090033",
  "linkReferences": {},
  "deployedLinkReferences": {}
}