{
  "_format": "hh-sol-artifact-1",
  "contractName": "ClientBridge",
  "sourceName": "src/bridge/xDai/ClientBridge.sol",
  "abi": [
    {
      "anonymous": false,
      "inputs": [
        {
          "indexed": false,
          "internalType": "address",
          "name": "bridge",
          "type": "address"
        }
      ],
      "name": "BridgeChanged",
      "type": "event"
    },
    {
      "anonymous": false,
      "inputs": [
        {
          "indexed": false,
          "internalType": "address",
          "name": "mediator",
          "type": "address"
        }
      ],
      "name": "MultiTokenMediatorChanged",
      "type": "event"
    },
    {
      "anonymous": false,
      "inputs": [
        {
          "indexed": true,
          "internalType": "address",
          "name": "previousOwner",
          "type": "address"
        },
        {
          "indexed": true,
          "internalType": "address",
          "name": "newOwner",
          "type": "address"
        }
      ],
      "name": "OwnershipTransferred",
      "type": "event"
    },
    {
      "anonymous": false,
      "inputs": [
        {
          "indexed": false,
          "internalType": "address",
          "name": "token",
          "type": "address"
        },
        {
          "indexed": false,
          "internalType": "address",
          "name": "receiver",
          "type": "address"
        },
        {
          "indexed": false,
          "internalType": "uint256",
          "name": "amount",
          "type": "uint256"
        }
      ],
      "name": "Relayed",
      "type": "event"
    },
    {
      "inputs": [],
      "name": "ambBridge",
      "outputs": [
        {
          "internalType": "contract IAMB",
          "name": "",
          "type": "address"
        }
      ],
      "stateMutability": "view",
      "type": "function"
    },
    {
      "inputs": [],
      "name": "candidate",
      "outputs": [
        {
          "internalType": "address",
          "name": "",
          "type": "address"
        }
      ],
      "stateMutability": "view",
      "type": "function"
    },
    {
      "inputs": [
        {
          "internalType": "contract IERC20",
          "name": "_token",
          "type": "address"
        },
        {
          "internalType": "address",
          "name": "_receiver",
          "type": "address"
        },
        {
          "components": [
            {
              "internalType": "uint256",
              "name": "d",
              "type": "uint256"
            }
          ],
          "internalType": "struct Decimal.decimal",
          "name": "_amount",
          "type": "tuple"
        }
      ],
      "name": "erc20Transfer",
      "outputs": [],
      "stateMutability": "nonpayable",
      "type": "function"
    },
    {
      "inputs": [
        {
          "internalType": "contract IAMB",
          "name": "_ambBridge",
          "type": "address"
        },
        {
          "internalType": "contract IMultiTokenMediator",
          "name": "_multiTokenMediator",
          "type": "address"
        },
        {
          "internalType": "address",
          "name": "_trustedForwarder",
          "type": "address"
        }
      ],
      "name": "initialize",
      "outputs": [],
      "stateMutability": "nonpayable",
      "type": "function"
    },
    {
      "inputs": [
        {
          "internalType": "address",
          "name": "forwarder",
          "type": "address"
        }
      ],
      "name": "isTrustedForwarder",
      "outputs": [
        {
          "internalType": "bool",
          "name": "",
          "type": "bool"
        }
      ],
      "stateMutability": "view",
      "type": "function"
    },
    {
      "inputs": [
        {
          "internalType": "contract IERC20",
          "name": "",
          "type": "address"
        }
      ],
      "name": "minWithdrawalAmountMap",
      "outputs": [
        {
          "internalType": "uint256",
          "name": "d",
          "type": "uint256"
        }
      ],
      "stateMutability": "view",
      "type": "function"
    },
    {
      "inputs": [],
      "name": "multiTokenMediator",
      "outputs": [
        {
          "internalType": "contract IMultiTokenMediator",
          "name": "",
          "type": "address"
        }
      ],
      "stateMutability": "view",
      "type": "function"
    },
    {
      "inputs": [],
      "name": "owner",
      "outputs": [
        {
          "internalType": "address",
          "name": "",
          "type": "address"
        }
      ],
      "stateMutability": "view",
      "type": "function"
    },
    {
      "inputs": [],
      "name": "renounceOwnership",
      "outputs": [],
      "stateMutability": "nonpayable",
      "type": "function"
    },
    {
      "inputs": [
        {
          "internalType": "contract IAMB",
          "name": "_ambBridge",
          "type": "address"
        }
      ],
      "name": "setAMBBridge",
      "outputs": [],
      "stateMutability": "nonpayable",
      "type": "function"
    },
    {
      "inputs": [
        {
          "internalType": "contract IERC20",
          "name": "_token",
          "type": "address"
        },
        {
          "components": [
            {
              "internalType": "uint256",
              "name": "d",
              "type": "uint256"
            }
          ],
          "internalType": "struct Decimal.decimal",
          "name": "_amount",
          "type": "tuple"
        }
      ],
      "name": "setMinWithdrawalAmount",
      "outputs": [],
      "stateMutability": "nonpayable",
      "type": "function"
    },
    {
      "inputs": [
        {
          "internalType": "contract IMultiTokenMediator",
          "name": "_multiTokenMediator",
          "type": "address"
        }
      ],
      "name": "setMultiTokenMediator",
      "outputs": [],
      "stateMutability": "nonpayable",
      "type": "function"
    },
    {
      "inputs": [
        {
          "internalType": "address",
          "name": "newOwner",
          "type": "address"
        }
      ],
      "name": "setOwner",
      "outputs": [],
      "stateMutability": "nonpayable",
      "type": "function"
    },
    {
      "inputs": [],
      "name": "trustedForwarder",
      "outputs": [
        {
          "internalType": "address",
          "name": "",
          "type": "address"
        }
      ],
      "stateMutability": "view",
      "type": "function"
    },
    {
      "inputs": [],
      "name": "updateOwner",
      "outputs": [],
      "stateMutability": "nonpayable",
      "type": "function"
    },
    {
      "inputs": [],
      "name": "versionRecipient",
      "outputs": [
        {
          "internalType": "string",
          "name": "",
          "type": "string"
        }
      ],
      "stateMutability": "view",
      "type": "function"
    }
  ],
  "bytecode": "0x608060405234801561001057600080fd5b50611baa806100206000396000f3fe608060405234801561001057600080fd5b50600436106101005760003560e01c80637da0a87711610097578063bc5920ba11610066578063bc5920ba146101ce578063c0c53b8b146101d6578063e9eac3d8146101e9578063f14cedb51461020957610100565b80637da0a877146101985780638da5cb5b146101a057806399906bb8146101a8578063ba99309e146101bb57610100565b8063572b6c05116100d3578063572b6c051461016057806368981a3a146101805780636c8381f814610188578063715018a61461019057610100565b80630ba54df61461010557806313af40351461012357806328e593b314610138578063486ff0cd1461014b575b600080fd5b61010d61021c565b60405161011a9190611664565b60405180910390f35b610136610131366004611509565b61022b565b005b610136610146366004611509565b61030d565b6101536103be565b60405161011a91906116da565b61017361016e366004611509565b61044d565b60405161011a91906116cf565b61010d610462565b61010d610471565b610136610481565b61010d610500565b61010d610510565b6101366101b6366004611509565b61051f565b6101366101c93660046115e0565b6105c5565b61013661061a565b6101366101e4366004611545565b6106dd565b6101fc6101f7366004611509565b6107b7565b60405161011a9190611b2a565b61013661021736600461158f565b6107ca565b60cc546001600160a01b031681565b61023361081e565b6065546001600160a01b039081169116146102695760405162461bcd60e51b815260040161026090611a97565b60405180910390fd5b6001600160a01b03811661028f5760405162461bcd60e51b815260040161026090611915565b6065546001600160a01b03828116911614156102bd5760405162461bcd60e51b815260040161026090611ae4565b6066546001600160a01b03828116911614156102eb5760405162461bcd60e51b81526004016102609061176c565b606680546001600160a01b0319166001600160a01b0392909216919091179055565b61031561081e565b6065546001600160a01b039081169116146103425760405162461bcd60e51b815260040161026090611a97565b6001600160a01b0381166103685760405162461bcd60e51b815260040161026090611a1e565b60cd80546001600160a01b0319166001600160a01b0383161790556040517f1a2cd2eddd780a8ee5c9e81ca85d720eaea5593ae88725bf85d06a13651076da906103b3908390611664565b60405180910390a150565b610101805460408051602060026001851615610100026000190190941693909304601f810184900484028201840190925281815292918301828280156104455780601f1061041a57610100808354040283529160200191610445565b820191906000526020600020905b81548152906001019060200180831161042857829003601f168201915b505050505081565b610100546001600160a01b0390811691161490565b60cd546001600160a01b031681565b6066546001600160a01b03165b90565b61048961081e565b6065546001600160a01b039081169116146104b65760405162461bcd60e51b815260040161026090611a97565b6065546040516000916001600160a01b0316907f8be0079c531659141344cd1fd0a4f28419497f9722a3daafe3b4186f6b6457e0908390a3606580546001600160a01b0319169055565b610100546001600160a01b031681565b6065546001600160a01b031690565b61052761081e565b6065546001600160a01b039081169116146105545760405162461bcd60e51b815260040161026090611a97565b6001600160a01b03811661057a5760405162461bcd60e51b815260040161026090611a1e565b60cc80546001600160a01b0319166001600160a01b0383161790556040517f9775531310b2880b61484ed85cbb0b491c8fde3a07f289c63b92551782794497906103b3908390611664565b6105cd61081e565b6065546001600160a01b039081169116146105fa5760405162461bcd60e51b815260040161026090611a97565b6001600160a01b0390911660009081526101346020526040902090519055565b6066546001600160a01b03166106425760405162461bcd60e51b815260040161026090611a48565b61064a61081e565b6066546001600160a01b039081169116146106775760405162461bcd60e51b8152600401610260906117e0565b6066546065546040516001600160a01b0392831692909116907f8be0079c531659141344cd1fd0a4f28419497f9722a3daafe3b4186f6b6457e090600090a360668054606580546001600160a01b03199081166001600160a01b03841617909155169055565b600054610100900460ff16806106f657506106f661082d565b80610704575060005460ff16155b6107205760405162461bcd60e51b815260040161026090611957565b600054610100900460ff1615801561074b576000805460ff1961ff0019909116610100171660011790555b6107558484610833565b61010080546001600160a01b0319166001600160a01b038416179055604080518082019091526005808252640312e302e360dc1b602090920191825261079e9161010191611421565b5080156107b1576000805461ff00191690555b50505050565b6101346020526000908152604090205481565b60006107e36107de36849003840184611615565b6108d1565b116108005760405162461bcd60e51b81526004016102609061170d565b610819838361081436859003850185611615565b6108d5565b505050565b6000610828610939565b905090565b303b1590565b600054610100900460ff168061084c575061084c61082d565b8061085a575060005460ff16155b6108765760405162461bcd60e51b815260040161026090611957565b600054610100900460ff161580156108a1576000805460ff1961ff0019909116610100171660011790555b6108a961096b565b6108b28361051f565b6108bb8261030d565b8015610819576000805461ff0019169055505050565b5190565b6001600160a01b038316600090815261013460209081526040808320815192830190915254815261090d90839063ffffffff6109fe16565b60000b121561092e5760405162461bcd60e51b8152600401610260906117b3565b610819838383610a30565b60006018361080159061095057506109503361044d565b15610964575060131936013560601c61047e565b503361047e565b600054610100900460ff1680610984575061098461082d565b80610992575060005460ff16155b6109ae5760405162461bcd60e51b815260040161026090611957565b600054610100900460ff161580156109d9576000805460ff1961ff0019909116610100171660011790555b6109e1610b27565b6109e9610ba8565b80156109fb576000805461ff00191690555b50565b805182516000911015610a1357506001610a2a565b815183511015610a265750600019610a2a565b5060005b92915050565b6001600160a01b038216610a565760405162461bcd60e51b8152600401610260906118a9565b610a6983610a6261081e565b3084610c82565b610a7283610db4565b60cd546001600160a01b031663ad58bdd18484610a8f8286610e04565b6040518463ffffffff1660e01b8152600401610aad93929190611692565b600060405180830381600087803b158015610ac757600080fd5b505af1158015610adb573d6000803e3d6000fd5b505050507fe73f30d9b99f199332a0afe04f29e59839c1538ebcf0d632c0e8c4c07f319c908383610b0b846108d1565b604051610b1a93929190611692565b60405180910390a1505050565b600054610100900460ff1680610b405750610b4061082d565b80610b4e575060005460ff16155b610b6a5760405162461bcd60e51b815260040161026090611957565b600054610100900460ff161580156109e9576000805460ff1961ff00199091166101001716600117905580156109fb576000805461ff001916905550565b600054610100900460ff1680610bc15750610bc161082d565b80610bcf575060005460ff16155b610beb5760405162461bcd60e51b815260040161026090611957565b600054610100900460ff16158015610c16576000805460ff1961ff0019909116610100171660011790555b6000610c2061081e565b606580546001600160a01b0319166001600160a01b038316908117909155604051919250906000907f8be0079c531659141344cd1fd0a4f28419497f9722a3daafe3b4186f6b6457e0908290a35080156109fb576000805461ff001916905550565b610c8b84610e82565b610c9361149f565b610c9d8584610ecf565b90506000610cab8684610e04565b905060006060876001600160a01b03166323b872dd60e01b888886604051602401610cd893929190611692565b60408051601f198184030181529181526020820180516001600160e01b03166001600160e01b0319909416939093179092529051610d169190611648565b6000604051808303816000865af19150503d8060008114610d53576040519150601f19603f3d011682016040523d82523d6000602084013e610d58565b606091505b5091509150818015610d82575080511580610d82575080806020019051810190610d829190611525565b610d9e5760405162461bcd60e51b815260040161026090611868565b610daa88878587610f63565b5050505050505050565b60cd5460001990610dd5906107de90849030906001600160a01b0316610fb6565b146109fb5760cd54604080516020810190915260001981526109fb9183916001600160a01b0390911690610ff0565b600080610e1084611016565b905060128110610e4e57610e46610e2e82601263ffffffff61110316565b600a0a610e3a856108d1565b9063ffffffff61114516565b915050610a2a565b610e7a610e6260128363ffffffff61110316565b600a0a610e6e856108d1565b9063ffffffff61117f16565b949350505050565b6000610e8d82611016565b6001600160a01b0383166000908152609960205260409020549091508114610ecb576001600160a01b03821660009081526099602052604090208190555b5050565b610ed761149f565b610f5c83846001600160a01b03166370a08231856040518263ffffffff1660e01b8152600401610f079190611664565b60206040518083038186803b158015610f1f57600080fd5b505afa158015610f33573d6000803e3d6000fd5b505050506040513d601f19601f82011682018060405250810190610f579190611630565b6111c1565b9392505050565b610f96610f80610f7386856111c1565b839063ffffffff61125316565b610f8a8686610ecf565b9063ffffffff6109fe16565b60000b156107b15760405162461bcd60e51b8152600401610260906119dc565b610fbe61149f565b610e7a84856001600160a01b031663dd62ed3e86866040518363ffffffff1660e01b8152600401610f07929190611678565b610ff983610e82565b61100b838361100661127f565b61129a565b61081983838361129a565b6001600160a01b03811660009081526099602052604081205480610a2a5760408051600481526024810182526020810180516001600160e01b031663313ce56760e01b17905290516000916060916001600160a01b0387169161107891611648565b600060405180830381855afa9150503d80600081146110b3576040519150601f19603f3d011682016040523d82523d6000602084013e6110b8565b606091505b50915091508180156110ca5750805115155b6110e65760405162461bcd60e51b815260040161026090611827565b808060200190518101906110fa9190611630565b95945050505050565b6000610f5c83836040518060400160405280601e81526020017f536166654d6174683a207375627472616374696f6e206f766572666c6f770000815250611399565b60008261115457506000610a2a565b8282028284828161116157fe5b0414610f5c5760405162461bcd60e51b8152600401610260906118d4565b6000610f5c83836040518060400160405280601a81526020017f536166654d6174683a206469766973696f6e206279207a65726f0000000000008152506113c5565b6111c961149f565b60006111d484611016565b9050601281106112195760408051602081019091528061120e6111fe84601263ffffffff61110316565b8690600a0a63ffffffff61117f16565b815250915050610a2a565b60408051602081019091528061124961123960128563ffffffff61110316565b8690600a0a63ffffffff61114516565b9052949350505050565b61125b61149f565b61126361149f565b825184516112769163ffffffff6113fc16565b81529392505050565b61128761149f565b5060408051602081019091526000815290565b600060606001600160a01b03851663095ea7b360e01b856112bb8887610e04565b6040516024016112cc9291906116b6565b60408051601f198184030181529181526020820180516001600160e01b03166001600160e01b031990941693909317909252905161130a9190611648565b6000604051808303816000865af19150503d8060008114611347576040519150601f19603f3d011682016040523d82523d6000602084013e61134c565b606091505b50915091508180156113765750805115806113765750808060200190518101906113769190611525565b6113925760405162461bcd60e51b8152600401610260906119a5565b5050505050565b600081848411156113bd5760405162461bcd60e51b815260040161026091906116da565b505050900390565b600081836113e65760405162461bcd60e51b815260040161026091906116da565b5060008385816113f257fe5b0495945050505050565b600082820183811015610f5c5760405162461bcd60e51b815260040161026090611735565b828054600181600116156101000203166002900490600052602060002090601f016020900481019282601f1061146257805160ff191683800117855561148f565b8280016001018555821561148f579182015b8281111561148f578251825591602001919060010190611474565b5061149b9291506114b2565b5090565b6040518060200160405280600081525090565b61047e91905b8082111561149b57600081556001016114b8565b6000602082840312156114dd578081fd5b6040516020810181811067ffffffffffffffff821117156114fc578283fd5b6040529135825250919050565b60006020828403121561151a578081fd5b8135610f5c81611b5f565b600060208284031215611536578081fd5b81518015158114610f5c578182fd5b600080600060608486031215611559578182fd5b833561156481611b5f565b9250602084013561157481611b5f565b9150604084013561158481611b5f565b809150509250925092565b600080600083850360608112156115a4578384fd5b84356115af81611b5f565b935060208501356115bf81611b5f565b92506020603f19820112156115d2578182fd5b506040840190509250925092565b600080604083850312156115f2578182fd5b82356115fd81611b5f565b915061160c84602085016114cc565b90509250929050565b600060208284031215611626578081fd5b610f5c83836114cc565b600060208284031215611641578081fd5b5051919050565b6000825161165a818460208701611b33565b9190910192915050565b6001600160a01b0391909116815260200190565b6001600160a01b0392831681529116602082015260400190565b6001600160a01b039384168152919092166020820152604081019190915260600190565b6001600160a01b03929092168252602082015260400190565b901515815260200190565b60006020825282518060208401526116f9816040850160208701611b33565b601f01601f19169190910160400192915050565b6020808252600e908201526d616d6f756e74206973207a65726f60901b604082015260600190565b6020808252601b908201527f536166654d6174683a206164646974696f6e206f766572666c6f770000000000604082015260600190565b60208082526027908201527f5065727046694f776e61626c65557067726164653a2073616d652061732063616040820152666e64696461746560c81b606082015260800190565b602080825260139082015272185b5bdd5b9d081a5cc81d1bdbc81cdb585b1b606a1b604082015260600190565b60208082526027908201527f5065727046694f776e61626c65557067726164653a206e6f7420746865206e656040820152663b9037bbb732b960c91b606082015260800190565b60208082526021908201527f446563696d616c45524332303a2067657420646563696d616c73206661696c656040820152601960fa1b606082015260800190565b60208082526021908201527f446563696d616c45524332303a207472616e7366657246726f6d206661696c656040820152601960fa1b606082015260800190565b602080825260119082015270726563656976657220697320656d70747960781b604082015260600190565b60208082526021908201527f536166654d6174683a206d756c7469706c69636174696f6e206f766572666c6f6040820152607760f81b606082015260800190565b60208082526022908201527f5065727046694f776e61626c65557067726164653a207a65726f206164647265604082015261737360f01b606082015260800190565b6020808252602e908201527f436f6e747261637420696e7374616e63652068617320616c726561647920626560408201526d195b881a5b9a5d1a585b1a5e995960921b606082015260800190565b6020808252601c908201527f446563696d616c45524332303a20617070726f7665206661696c656400000000604082015260600190565b60208082526022908201527f446563696d616c45524332303a2062616c616e636520696e636f6e73697374656040820152611b9d60f21b606082015260800190565b60208082526010908201526f6164647265737320697320656d70747960801b604082015260600190565b6020808252602f908201527f5065727046694f776e61626c65557067726164653a2063616e6469646174652060408201526e6973207a65726f206164647265737360881b606082015260800190565b6020808252602d908201527f5065727046694f776e61626c65557067726164653a2063616c6c65722069732060408201526c3737ba103a34329037bbb732b960991b606082015260800190565b60208082526026908201527f5065727046694f776e61626c65557067726164653a2073616d65206173206f726040820152651a59da5b985b60d21b606082015260800190565b90815260200190565b60005b83811015611b4e578181015183820152602001611b36565b838111156107b15750506000910152565b6001600160a01b03811681146109fb57600080fdfea2646970667358221220705ddc565fc5a8638a652bde0dd0f80e882168a9c6ecf2a8028f34150493531d64736f6c63430006090033",
  "linkReferences": {},
  "deployedLinkReferences": {}
}