{
  "_format": "hh-sol-artifact-1",
  "contractName": "Ownable",
  "sourceName": "src/mock/TetherToken.sol",
  "abi": [
    {
      "inputs": [],
      "stateMutability": "nonpayable",
      "type": "constructor"
    },
    {
      "inputs": [],
      "name": "owner",
      "outputs": [
        {
          "internalType": "address",
          "name": "",
          "type": "address"
        }
      ],
      "stateMutability": "view",
      "type": "function"
    },
    {
      "inputs": [
        {
          "internalType": "address",
          "name": "newOwner",
          "type": "address"
        }
      ],
      "name": "transferOwnership",
      "outputs": [],
      "stateMutability": "nonpayable",
      "type": "function"
    }
  ],
  "bytecode": "0x608060405234801561001057600080fd5b50600080546001600160a01b0319163317905561012a806100326000396000f3fe6080604052348015600f57600080fd5b506004361060325760003560e01c80638da5cb5b146037578063f2fde38b146051575b600080fd5b603d6062565b6040516048919060e0565b60405180910390f35b6060605c36600460b4565b6071565b005b6000546001600160a01b031681565b6000546001600160a01b03163314608757600080fd5b6001600160a01b0381161560b157600080546001600160a01b0319166001600160a01b0383161790555b50565b60006020828403121560c4578081fd5b81356001600160a01b038116811460d9578182fd5b9392505050565b6001600160a01b039190911681526020019056fea2646970667358221220ce293bebff5dce968a35dead50c2292897176d060e37fa199d8a7494d775215c64736f6c63430006090033",
  "linkReferences": {},
  "deployedLinkReferences": {}
}