{
  "_format": "hh-sol-artifact-1",
  "contractName": "Pausable",
  "sourceName": "src/mock/TetherToken.sol",
  "abi": [
    {
      "anonymous": false,
      "inputs": [],
      "name": "Pause",
      "type": "event"
    },
    {
      "anonymous": false,
      "inputs": [],
      "name": "Unpause",
      "type": "event"
    },
    {
      "inputs": [],
      "name": "owner",
      "outputs": [
        {
          "internalType": "address",
          "name": "",
          "type": "address"
        }
      ],
      "stateMutability": "view",
      "type": "function"
    },
    {
      "inputs": [],
      "name": "pause",
      "outputs": [],
      "stateMutability": "nonpayable",
      "type": "function"
    },
    {
      "inputs": [],
      "name": "paused",
      "outputs": [
        {
          "internalType": "bool",
          "name": "",
          "type": "bool"
        }
      ],
      "stateMutability": "view",
      "type": "function"
    },
    {
      "inputs": [
        {
          "internalType": "address",
          "name": "newOwner",
          "type": "address"
        }
      ],
      "name": "transferOwnership",
      "outputs": [],
      "stateMutability": "nonpayable",
      "type": "function"
    },
    {
      "inputs": [],
      "name": "unpause",
      "outputs": [],
      "stateMutability": "nonpayable",
      "type": "function"
    }
  ],
  "bytecode": "0x60806040526000805460ff60a01b1916905534801561001d57600080fd5b50600080546001600160a01b031916331790556102688061003f6000396000f3fe608060405234801561001057600080fd5b50600436106100575760003560e01c80633f4ba83a1461005c5780635c975abb146100665780638456cb59146100845780638da5cb5b1461008c578063f2fde38b146100a1575b600080fd5b6100646100b4565b005b61006e610117565b60405161007b9190610227565b60405180910390f35b610064610127565b610094610191565b60405161007b9190610213565b6100646100af3660046101e5565b6101a0565b6000546001600160a01b031633146100cb57600080fd5b600054600160a01b900460ff166100e157600080fd5b6000805460ff60a01b191681556040517f7805862f689e2f13df9f062ff482ad3ad112aca9e0847911ed832e158c525b339190a1565b600054600160a01b900460ff1681565b6000546001600160a01b0316331461013e57600080fd5b600054600160a01b900460ff161561015557600080fd5b6000805460ff60a01b1916600160a01b1781556040517f6985a02210a168e66602d3235cb6db0e70f92b3ba4d376a33c0f3d9434bff6259190a1565b6000546001600160a01b031681565b6000546001600160a01b031633146101b757600080fd5b6001600160a01b038116156101e257600080546001600160a01b0319166001600160a01b0383161790555b50565b6000602082840312156101f6578081fd5b81356001600160a01b038116811461020c578182fd5b9392505050565b6001600160a01b0391909116815260200190565b90151581526020019056fea2646970667358221220e103198d1c5226144efd6a797f9ea9d40aacfbfb6a997c77283b5013b6dbd24b64736f6c63430006090033",
  "linkReferences": {},
  "deployedLinkReferences": {}
}