{
  "_format": "hh-sol-artifact-1",
  "contractName": "StakedPerpTokenFake",
  "sourceName": "src/mock/StakedPerpTokenFake.sol",
  "abi": [
    {
      "anonymous": false,
      "inputs": [
        {
          "indexed": true,
          "internalType": "address",
          "name": "owner",
          "type": "address"
        },
        {
          "indexed": true,
          "internalType": "address",
          "name": "spender",
          "type": "address"
        },
        {
          "indexed": false,
          "internalType": "uint256",
          "name": "value",
          "type": "uint256"
        }
      ],
      "name": "Approval",
      "type": "event"
    },
    {
      "anonymous": false,
      "inputs": [
        {
          "indexed": true,
          "internalType": "address",
          "name": "previousOwner",
          "type": "address"
        },
        {
          "indexed": true,
          "internalType": "address",
          "name": "newOwner",
          "type": "address"
        }
      ],
      "name": "OwnershipTransferred",
      "type": "event"
    },
    {
      "anonymous": false,
      "inputs": [
        {
          "indexed": false,
          "internalType": "address",
          "name": "stakedModule",
          "type": "address"
        }
      ],
      "name": "StakeModuleAdded",
      "type": "event"
    },
    {
      "anonymous": false,
      "inputs": [
        {
          "indexed": false,
          "internalType": "address",
          "name": "stakedModule",
          "type": "address"
        }
      ],
      "name": "StakeModuleRemoved",
      "type": "event"
    },
    {
      "anonymous": false,
      "inputs": [
        {
          "indexed": false,
          "internalType": "address",
          "name": "staker",
          "type": "address"
        },
        {
          "indexed": false,
          "internalType": "uint256",
          "name": "amount",
          "type": "uint256"
        }
      ],
      "name": "Staked",
      "type": "event"
    },
    {
      "anonymous": false,
      "inputs": [
        {
          "indexed": true,
          "internalType": "address",
          "name": "from",
          "type": "address"
        },
        {
          "indexed": true,
          "internalType": "address",
          "name": "to",
          "type": "address"
        },
        {
          "indexed": false,
          "internalType": "uint256",
          "name": "value",
          "type": "uint256"
        }
      ],
      "name": "Transfer",
      "type": "event"
    },
    {
      "anonymous": false,
      "inputs": [
        {
          "indexed": false,
          "internalType": "address",
          "name": "staker",
          "type": "address"
        },
        {
          "indexed": false,
          "internalType": "uint256",
          "name": "amount",
          "type": "uint256"
        }
      ],
      "name": "Unstaked",
      "type": "event"
    },
    {
      "anonymous": false,
      "inputs": [
        {
          "indexed": false,
          "internalType": "address",
          "name": "staker",
          "type": "address"
        },
        {
          "indexed": false,
          "internalType": "uint256",
          "name": "amount",
          "type": "uint256"
        }
      ],
      "name": "Withdrawn",
      "type": "event"
    },
    {
      "inputs": [],
      "name": "TOKEN_AMOUNT_LIMIT",
      "outputs": [
        {
          "internalType": "uint256",
          "name": "",
          "type": "uint256"
        }
      ],
      "stateMutability": "view",
      "type": "function"
    },
    {
      "inputs": [
        {
          "internalType": "contract IStakeModule",
          "name": "_stakeModule",
          "type": "address"
        }
      ],
      "name": "addStakeModule",
      "outputs": [],
      "stateMutability": "nonpayable",
      "type": "function"
    },
    {
      "inputs": [
        {
          "internalType": "address",
          "name": "",
          "type": "address"
        },
        {
          "internalType": "address",
          "name": "",
          "type": "address"
        }
      ],
      "name": "allowance",
      "outputs": [
        {
          "internalType": "uint256",
          "name": "",
          "type": "uint256"
        }
      ],
      "stateMutability": "view",
      "type": "function"
    },
    {
      "inputs": [
        {
          "internalType": "address",
          "name": "",
          "type": "address"
        },
        {
          "internalType": "uint256",
          "name": "",
          "type": "uint256"
        }
      ],
      "name": "approve",
      "outputs": [
        {
          "internalType": "bool",
          "name": "",
          "type": "bool"
        }
      ],
      "stateMutability": "nonpayable",
      "type": "function"
    },
    {
      "inputs": [
        {
          "internalType": "address",
          "name": "_owner",
          "type": "address"
        }
      ],
      "name": "balanceOf",
      "outputs": [
        {
          "internalType": "uint256",
          "name": "",
          "type": "uint256"
        }
      ],
      "stateMutability": "view",
      "type": "function"
    },
    {
      "inputs": [
        {
          "internalType": "address",
          "name": "_owner",
          "type": "address"
        },
        {
          "internalType": "uint256",
          "name": "__blockNumber",
          "type": "uint256"
        }
      ],
      "name": "balanceOfAt",
      "outputs": [
        {
          "internalType": "uint256",
          "name": "",
          "type": "uint256"
        }
      ],
      "stateMutability": "view",
      "type": "function"
    },
    {
      "inputs": [],
      "name": "candidate",
      "outputs": [
        {
          "internalType": "address",
          "name": "",
          "type": "address"
        }
      ],
      "stateMutability": "view",
      "type": "function"
    },
    {
      "inputs": [],
      "name": "cooldownPeriod",
      "outputs": [
        {
          "internalType": "uint256",
          "name": "",
          "type": "uint256"
        }
      ],
      "stateMutability": "view",
      "type": "function"
    },
    {
      "inputs": [],
      "name": "decimals",
      "outputs": [
        {
          "internalType": "uint8",
          "name": "",
          "type": "uint8"
        }
      ],
      "stateMutability": "view",
      "type": "function"
    },
    {
      "inputs": [],
      "name": "getStakeModuleLength",
      "outputs": [
        {
          "internalType": "uint256",
          "name": "",
          "type": "uint256"
        }
      ],
      "stateMutability": "view",
      "type": "function"
    },
    {
      "inputs": [
        {
          "internalType": "contract IERC20",
          "name": "_perpToken",
          "type": "address"
        },
        {
          "internalType": "uint256",
          "name": "_cooldownPeriod",
          "type": "uint256"
        }
      ],
      "name": "initialize",
      "outputs": [],
      "stateMutability": "nonpayable",
      "type": "function"
    },
    {
      "inputs": [
        {
          "internalType": "contract IStakeModule",
          "name": "_stakeModule",
          "type": "address"
        }
      ],
      "name": "isStakeModuleExisted",
      "outputs": [
        {
          "internalType": "bool",
          "name": "",
          "type": "bool"
        }
      ],
      "stateMutability": "view",
      "type": "function"
    },
    {
      "inputs": [],
      "name": "mock_getCurrentBlockNumber",
      "outputs": [
        {
          "internalType": "uint256",
          "name": "",
          "type": "uint256"
        }
      ],
      "stateMutability": "view",
      "type": "function"
    },
    {
      "inputs": [],
      "name": "mock_getCurrentTimestamp",
      "outputs": [
        {
          "internalType": "uint256",
          "name": "",
          "type": "uint256"
        }
      ],
      "stateMutability": "view",
      "type": "function"
    },
    {
      "inputs": [
        {
          "internalType": "uint256",
          "name": "_number",
          "type": "uint256"
        }
      ],
      "name": "mock_setBlockNumber",
      "outputs": [],
      "stateMutability": "nonpayable",
      "type": "function"
    },
    {
      "inputs": [
        {
          "internalType": "uint256",
          "name": "_timestamp",
          "type": "uint256"
        }
      ],
      "name": "mock_setBlockTimestamp",
      "outputs": [],
      "stateMutability": "nonpayable",
      "type": "function"
    },
    {
      "inputs": [],
      "name": "name",
      "outputs": [
        {
          "internalType": "string",
          "name": "",
          "type": "string"
        }
      ],
      "stateMutability": "view",
      "type": "function"
    },
    {
      "inputs": [],
      "name": "owner",
      "outputs": [
        {
          "internalType": "address",
          "name": "",
          "type": "address"
        }
      ],
      "stateMutability": "view",
      "type": "function"
    },
    {
      "inputs": [],
      "name": "perpToken",
      "outputs": [
        {
          "internalType": "contract IERC20",
          "name": "",
          "type": "address"
        }
      ],
      "stateMutability": "view",
      "type": "function"
    },
    {
      "inputs": [
        {
          "internalType": "contract IStakeModule",
          "name": "_stakeModule",
          "type": "address"
        }
      ],
      "name": "removeStakeModule",
      "outputs": [],
      "stateMutability": "nonpayable",
      "type": "function"
    },
    {
      "inputs": [],
      "name": "renounceOwnership",
      "outputs": [],
      "stateMutability": "nonpayable",
      "type": "function"
    },
    {
      "inputs": [
        {
          "internalType": "address",
          "name": "newOwner",
          "type": "address"
        }
      ],
      "name": "setOwner",
      "outputs": [],
      "stateMutability": "nonpayable",
      "type": "function"
    },
    {
      "inputs": [
        {
          "components": [
            {
              "internalType": "uint256",
              "name": "d",
              "type": "uint256"
            }
          ],
          "internalType": "struct Decimal.decimal",
          "name": "_amount",
          "type": "tuple"
        }
      ],
      "name": "stake",
      "outputs": [],
      "stateMutability": "nonpayable",
      "type": "function"
    },
    {
      "inputs": [
        {
          "internalType": "uint256",
          "name": "",
          "type": "uint256"
        }
      ],
      "name": "stakeModules",
      "outputs": [
        {
          "internalType": "address",
          "name": "",
          "type": "address"
        }
      ],
      "stateMutability": "view",
      "type": "function"
    },
    {
      "inputs": [
        {
          "internalType": "address",
          "name": "",
          "type": "address"
        }
      ],
      "name": "stakerCooldown",
      "outputs": [
        {
          "internalType": "uint256",
          "name": "",
          "type": "uint256"
        }
      ],
      "stateMutability": "view",
      "type": "function"
    },
    {
      "inputs": [
        {
          "internalType": "address",
          "name": "",
          "type": "address"
        }
      ],
      "name": "stakerWithdrawPendingBalance",
      "outputs": [
        {
          "internalType": "uint256",
          "name": "d",
          "type": "uint256"
        }
      ],
      "stateMutability": "view",
      "type": "function"
    },
    {
      "inputs": [],
      "name": "symbol",
      "outputs": [
        {
          "internalType": "string",
          "name": "",
          "type": "string"
        }
      ],
      "stateMutability": "view",
      "type": "function"
    },
    {
      "inputs": [],
      "name": "totalSupply",
      "outputs": [
        {
          "internalType": "uint256",
          "name": "",
          "type": "uint256"
        }
      ],
      "stateMutability": "view",
      "type": "function"
    },
    {
      "inputs": [
        {
          "internalType": "uint256",
          "name": "__blockNumber",
          "type": "uint256"
        }
      ],
      "name": "totalSupplyAt",
      "outputs": [
        {
          "internalType": "uint256",
          "name": "",
          "type": "uint256"
        }
      ],
      "stateMutability": "view",
      "type": "function"
    },
    {
      "inputs": [
        {
          "internalType": "address",
          "name": "",
          "type": "address"
        },
        {
          "internalType": "uint256",
          "name": "",
          "type": "uint256"
        }
      ],
      "name": "transfer",
      "outputs": [
        {
          "internalType": "bool",
          "name": "",
          "type": "bool"
        }
      ],
      "stateMutability": "nonpayable",
      "type": "function"
    },
    {
      "inputs": [
        {
          "internalType": "address",
          "name": "",
          "type": "address"
        },
        {
          "internalType": "address",
          "name": "",
          "type": "address"
        },
        {
          "internalType": "uint256",
          "name": "",
          "type": "uint256"
        }
      ],
      "name": "transferFrom",
      "outputs": [
        {
          "internalType": "bool",
          "name": "",
          "type": "bool"
        }
      ],
      "stateMutability": "nonpayable",
      "type": "function"
    },
    {
      "inputs": [],
      "name": "unstake",
      "outputs": [],
      "stateMutability": "nonpayable",
      "type": "function"
    },
    {
      "inputs": [],
      "name": "updateOwner",
      "outputs": [],
      "stateMutability": "nonpayable",
      "type": "function"
    },
    {
      "inputs": [],
      "name": "withdraw",
      "outputs": [],
      "stateMutability": "nonpayable",
      "type": "function"
    }
  ],
  "bytecode": "0x6080604052635611c23061013a556391ac8c3061013b5534801561002257600080fd5b50612d07806100326000396000f3fe608060405234801561001057600080fd5b50600436106102055760003560e01c80638da5cb5b1161011a578063bc5920ba116100ad578063d5f8fcfa1161007c578063d5f8fcfa146103d8578063dd62ed3e146103eb578063de114190146103fe578063f0a10b1a14610406578063fae7d15c1461041957610205565b8063bc5920ba146103a2578063c1bbe0de146103aa578063c77f7c61146103bd578063cd6dc687146103c557610205565b8063981b24d0116100e9578063981b24d0146103615780639cadb3a014610374578063a9059cbb1461037c578063ac04f2431461038f57610205565b80638da5cb5b1461032b57806390c95b7d146103335780639432665a1461034657806395d89b411461035957610205565b806323b872dd1161019d5780633ccfd60b1161016c5780633ccfd60b146102e05780634ee2cd7e146102e85780636c8381f8146102fb57806370a0823114610310578063715018a61461032357610205565b806323b872dd1461029d57806329a2293d146102b05780632def6620146102c3578063313ce567146102cb57610205565b806309338383116101d9578063093383831461025a578063095ea7b31461026257806313af40351461028257806318160ddd1461029557610205565b8062c141b61461020a578063032370dc1461021f57806304646a491461023d57806306fdde0314610245575b600080fd5b61021d610218366004612572565b61042c565b005b610227610432565b6040516102349190612c79565b60405180910390f35b61022761043a565b61024d610441565b604051610234919061261a565b6102276104cf565b6102756102703660046124d3565b6104de565b604051610234919061260f565b61021d61029036600461243f565b610501565b6102276105da565b6102756102ab366004612493565b6105f4565b6102276102be36600461243f565b61060e565b61021d610621565b6102d36107fa565b6040516102349190612c82565b61021d610804565b6102276102f63660046124d3565b6108ef565b610303610907565b60405161023491906125be565b61022761031e36600461243f565b610916565b61021d610934565b6103036109b3565b61022761034136600461243f565b6109c2565b61021d610354366004612572565b6109d5565b61024d6109db565b61022761036f366004612572565b610a36565b610303610a44565b61027561038a3660046124d3565b610a54565b61021d61039d36600461251e565b610a6e565b61021d610c5a565b6103036103b8366004612572565b610d1d565b610227610d45565b61021d6103d33660046124d3565b610d4f565b6102756103e636600461243f565b610e99565b6102276103f936600461245b565b610f09565b610227610f11565b61021d61041436600461243f565b610f16565b61021d61042736600461243f565b610fe7565b61013b55565b610105545b90565b6101075481565b60fe805460408051602060026001851615610100026000190190941693909304601f810184900484028201840190925281815292918301828280156104c75780601f1061049c576101008083540402835291602001916104c7565b820191906000526020600020905b8154815290600101906020018083116104aa57829003601f168201915b505050505081565b60006104d96110a7565b905090565b600060405162461bcd60e51b81526004016104f8906129c4565b60405180910390fd5b6105096110ae565b6098546001600160a01b039081169116146105365760405162461bcd60e51b81526004016104f890612b78565b6001600160a01b03811661055c5760405162461bcd60e51b81526004016104f890612934565b6098546001600160a01b038281169116141561058a5760405162461bcd60e51b81526004016104f890612bfc565b6099546001600160a01b03828116911614156105b85760405162461bcd60e51b81526004016104f89061271a565b609980546001600160a01b0319166001600160a01b0392909216919091179055565b60006104d96105ef6105ea6110a7565b6110b2565b6110e8565b600060405162461bcd60e51b81526004016104f8906126bb565b6101036020526000908152604090205481565b600061062b6110ae565b90506106356110ec565b6001600160a01b03811660009081526101046020908152604091829020825191820190925290548152610667906110e8565b156106845760405162461bcd60e51b81526004016104f8906127df565b61068c612394565b60405180602001604052806106c56101026000866001600160a01b03166001600160a01b0316815260200190815260200160002061110e565b905290506106d281611159565b6106dc8282611184565b6106f7610107546106eb611292565b9063ffffffff61129916565b6001600160a01b038316600090815261010360209081526040808320939093556101049052908120825190555b610105548110156107b457610105818154811061073d57fe5b60009182526020909120015460405163cd8ae3dd60e01b81526001600160a01b039091169063cd8ae3dd906107769086906004016125be565b600060405180830381600087803b15801561079057600080fd5b505af11580156107a4573d6000803e3d6000fd5b5050600190920191506107249050565b507f0f5bb82176feb1b5e747e28471aa92156a04d9f3ab9f45f28e2d704232b93f75826107e0836110e8565b6040516107ee9291906125f6565b60405180910390a15050565b6101005460ff1681565b600061080e6110ae565b9050610818612394565b506001600160a01b0381166000908152610104602090815260409182902082519182019092529054815261084b81611159565b6001600160a01b0382166000908152610103602052604090205461086d611292565b101561088b5760405162461bcd60e51b81526004016104f890612909565b6001600160a01b03808316600090815261010460209081526040808320839055610103909152812055610106546108c4911683836112be565b7f7084f5476618d8e60b11ef0d7d3f06914655adb8793e28ff7f018d4c76d505d5826107e0836110e8565b60006108fe6105ef84846113ed565b90505b92915050565b6099546001600160a01b031690565b600061092c6105ef836109276110a7565b6113ed565b90505b919050565b61093c6110ae565b6098546001600160a01b039081169116146109695760405162461bcd60e51b81526004016104f890612b78565b6098546040516000916001600160a01b0316907f8be0079c531659141344cd1fd0a4f28419497f9722a3daafe3b4186f6b6457e0908390a3609880546001600160a01b0319169055565b6098546001600160a01b031690565b6101046020526000908152604090205481565b61013a55565b60ff805460408051602060026001851615610100026000190190941693909304601f810184900484028201840190925281815292918301828280156104c75780601f1061049c576101008083540402835291602001916104c7565b600061092c6105ef836110b2565b610106546001600160a01b031681565b600060405162461bcd60e51b81526004016104f890612a89565b610a85610a8036839003830183612535565b611159565b610a8d6110ec565b6000610a976110ae565b9050610aa1612394565b610ab036849003840184612535565b6001600160a01b03831660009081526101046020908152604091829020825191820190925290548152909150610ae5906110e8565b15610b4f576001600160a01b03821660009081526101046020908152604091829020825191820190925290548152610b2490829063ffffffff61143a16565b6001600160a01b03831660009081526101046020908152604080832083905561010390915281205590505b61010654610b76906001600160a01b03168330610b7136889003880188612535565b611466565b610b808282611598565b60005b61010554811015610c13576101058181548110610b9c57fe5b60009182526020909120015460405163cd8ae3dd60e01b81526001600160a01b039091169063cd8ae3dd90610bd59086906004016125be565b600060405180830381600087803b158015610bef57600080fd5b505af1158015610c03573d6000803e3d6000fd5b505060019092019150610b839050565b507f9e71bc8eea02a63969f509818f2dafb9254532904319f9dbda79b67bd34a5f3d82610c3f836110e8565b604051610c4d9291906125f6565b60405180910390a1505050565b6099546001600160a01b0316610c825760405162461bcd60e51b81526004016104f890612b29565b610c8a6110ae565b6099546001600160a01b03908116911614610cb75760405162461bcd60e51b81526004016104f890612761565b6099546098546040516001600160a01b0392831692909116907f8be0079c531659141344cd1fd0a4f28419497f9722a3daafe3b4186f6b6457e090600090a360998054609880546001600160a01b03199081166001600160a01b03841617909155169055565b6101058181548110610d2b57fe5b6000918252602090912001546001600160a01b0316905081565b60006104d9611292565b603354610100900460ff1680610d685750610d68611688565b80610d76575060335460ff16155b610d925760405162461bcd60e51b81526004016104f890612976565b603354610100900460ff16158015610dbd576033805460ff1961ff0019909116610100171660011790555b6001600160a01b038316610de35760405162461bcd60e51b81526004016104f8906126f2565b610deb61168e565b6040805180820190915260108082526f14dd185ad9590814195c9c195d1d585b60821b6020909201918252610e229160fe916123a7565b5060408051808201909152600580825264073504552560dc1b6020909201918252610e4f9160ff916123a7565b50610100805460ff1916601217905561010680546001600160a01b0385166001600160a01b03199091161790556101078290558015610e94576033805461ff00191690555b505050565b600061092c82610105805480602002602001604051908101604052809291908181526020018280548015610ef657602002820191906000526020600020905b81546001600160a01b03168152600190910190602001808311610ed8575b505050505061172090919063ffffffff16565b600092915050565b601481565b610f1e6110ae565b6098546001600160a01b03908116911614610f4b5760405162461bcd60e51b81526004016104f890612b78565b6000610f5f6101058363ffffffff61177616565b90506001600160a01b038116610f875760405162461bcd60e51b81526004016104f890612bc5565b816001600160a01b0316816001600160a01b031614610fb85760405162461bcd60e51b81526004016104f890612891565b7f2c54da8cf6b6d65b4bd7e9bf095dd4d133a2ce5731ebb20a4f1bcc3db9029430826040516107ee91906125be565b610fef6110ae565b6098546001600160a01b0390811691161461101c5760405162461bcd60e51b81526004016104f890612b78565b6101055460141161103f5760405162461bcd60e51b81526004016104f8906127a8565b6110516101058263ffffffff61188216565b61106d5760405162461bcd60e51b81526004016104f890612ac0565b7f9400eb2cfb16fdd3f18022e33f5d4b757dea0c4367d95f0495f6af5911e1e9148160405161109c91906125be565b60405180910390a150565b61013b5490565b3390565b6110ba612394565b60405180602001604052806110e06110d18561193b565b6101019063ffffffff61199a16565b905292915050565b5190565b6101055461110c5760405162461bcd60e51b81526004016104f890612a3c565b565b805460009080156111505782600001600182038154811061112b57fe5b600091825260209091200154600160401b90046001600160c01b0316915061092f9050565b50600092915050565b6000611164826110e8565b116111815760405162461bcd60e51b81526004016104f890612a64565b50565b6001600160a01b0382166111aa5760405162461bcd60e51b81526004016104f8906129fb565b6111b2612394565b60405180602001604052806111c685610916565b905290506111d2612394565b6111e2828463ffffffff6119a616565b90506111ec612394565b60405180602001604052806111ff6105da565b9052905061120b612394565b61121b828663ffffffff6119a616565b905060006112276110a7565b90506112348782866119c9565b61123e8183611a0c565b60006001600160a01b0388167fddf252ad1be2c89b69c2b068fc378daa952ba7f163c4a11628f55a4df523b3ef611274896110e8565b6040516112819190612c79565b60405180910390a350505050505050565b61013a5490565b6000828201838110156108fe5760405162461bcd60e51b81526004016104f890612684565b6112c783611a38565b6112cf612394565b6112d98484611a82565b905060006112e78584611b0f565b905060006060866001600160a01b031663a9059cbb60e01b87856040516024016113129291906125f6565b60408051601f198184030181529181526020820180516001600160e01b03166001600160e01b031990941693909317909252905161135091906125a2565b6000604051808303816000865af19150503d806000811461138d576040519150601f19603f3d011682016040523d82523d6000602084013e611392565b606091505b50915091508180156113bc5750805115806113bc5750808060200190518101906113bc91906124fe565b6113d85760405162461bcd60e51b81526004016104f89061264d565b6113e487878587611b8d565b50505050505050565b6113f5612394565b604051806020016040528061143161140c8561193b565b6001600160a01b0387166000908152610102602052604090209063ffffffff61199a16565b90529392505050565b611442612394565b61144a612394565b8251845161145d9163ffffffff61129916565b81529392505050565b61146f84611a38565b611477612394565b6114818584611a82565b9050600061148f8684611b0f565b905060006060876001600160a01b03166323b872dd60e01b8888866040516024016114bc939291906125d2565b60408051601f198184030181529181526020820180516001600160e01b03166001600160e01b03199094169390931790925290516114fa91906125a2565b6000604051808303816000865af19150503d8060008114611537576040519150601f19603f3d011682016040523d82523d6000602084013e61153c565b606091505b509150915081801561156657508051158061156657508080602001905181019061156691906124fe565b6115825760405162461bcd60e51b81526004016104f890612850565b61158e88878587611b8d565b5050505050505050565b6001600160a01b0382166115be5760405162461bcd60e51b81526004016104f890612c42565b6115c6612394565b60405180602001604052806115da85610916565b905290506115e6612394565b6115f6828463ffffffff61143a16565b9050611600612394565b60405180602001604052806116136105da565b9052905061161f612394565b61162f828663ffffffff61143a16565b9050600061163b6110a7565b90506116488782866119c9565b6116528183611a0c565b6001600160a01b03871660007fddf252ad1be2c89b69c2b068fc378daa952ba7f163c4a11628f55a4df523b3ef611274896110e8565b303b1590565b603354610100900460ff16806116a757506116a7611688565b806116b5575060335460ff16155b6116d15760405162461bcd60e51b81526004016104f890612976565b603354610100900460ff161580156116fc576033805460ff1961ff0019909116610100171660011790555b611704611be6565b61170c611c67565b8015611181576033805461ff001916905550565b6000805b835181101561176c5783818151811061173957fe5b60200260200101516001600160a01b0316836001600160a01b03161415611764576001915050610901565b600101611724565b5060009392505050565b60006001600160a01b03821661178e57506000610901565b825460005b81811015611877578481815481106117a757fe5b6000918252602090912001546001600160a01b038581169116141561186f57600182038114611838578460018303815481106117df57fe5b9060005260206000200160009054906101000a90046001600160a01b031685828154811061180957fe5b9060005260206000200160006101000a8154816001600160a01b0302191690836001600160a01b031602179055505b8480548061184257fe5b600082815260209020810160001990810180546001600160a01b0319169055019055508291506109019050565b600101611793565b506000949350505050565b60006001600160a01b03821615806118f857506118f8838054806020026020016040519081016040528092919081815260200182805480156118ed57602002820191906000526020600020905b81546001600160a01b031681526001909101906020018083116118cf575b505050505083611720565b1561190557506000610901565b50815460018082018455600093845260209093200180546001600160a01b0319166001600160a01b039290921691909117905590565b60408051808201909152601581527455494e5436345f4e554d4245525f544f4f5f42494760581b602082015260009067ffffffffffffffff8311156119935760405162461bcd60e51b81526004016104f8919061261a565b5090919050565b60006108fe8383611d41565b6119ae612394565b6119b6612394565b8251845161145d9163ffffffff611ed216565b610e946119d58361193b565b6119e66119e1846110e8565b611f14565b6001600160a01b038616600090815261010260205260409020919063ffffffff611f6c16565b611a34611a188361193b565b611a246119e1846110e8565b610101919063ffffffff611f6c16565b5050565b6000611a438261210e565b6001600160a01b0383166000908152602081905260409020549091508114611a34576001600160a01b0391909116600090815260208190526040902055565b611a8a612394565b6108fe83846001600160a01b03166370a08231856040518263ffffffff1660e01b8152600401611aba91906125be565b60206040518083038186803b158015611ad257600080fd5b505afa158015611ae6573d6000803e3d6000fd5b505050506040513d601f19601f82011682018060405250810190611b0a919061258a565b6121fb565b600080611b1b8461210e565b905060128110611b5957611b51611b3982601263ffffffff611ed216565b600a0a611b45856110e8565b9063ffffffff61228d16565b915050610901565b611b85611b6d60128363ffffffff611ed216565b600a0a611b79856110e8565b9063ffffffff6122c716565b949350505050565b611bc0611baa611b9d86856121fb565b839063ffffffff61143a16565b611bb48686611a82565b9063ffffffff61230916565b60000b15611be05760405162461bcd60e51b81526004016104f890612ae7565b50505050565b603354610100900460ff1680611bff5750611bff611688565b80611c0d575060335460ff16155b611c295760405162461bcd60e51b81526004016104f890612976565b603354610100900460ff1615801561170c576033805460ff1961ff0019909116610100171660011790558015611181576033805461ff001916905550565b603354610100900460ff1680611c805750611c80611688565b80611c8e575060335460ff16155b611caa5760405162461bcd60e51b81526004016104f890612976565b603354610100900460ff16158015611cd5576033805460ff1961ff0019909116610100171660011790555b6000611cdf6110ae565b609880546001600160a01b0319166001600160a01b038316908117909155604051919250906000907f8be0079c531659141344cd1fd0a4f28419497f9722a3daafe3b4186f6b6457e0908290a3508015611181576033805461ff001916905550565b815460009080611d55576000915050610901565b8354600019820190600090869083908110611d6c57fe5b6000918252602090912001805490915067ffffffffffffffff90811690861610611dab5754600160401b90046001600160c01b03169250610901915050565b8260011480611de2575085600001600081548110611dc557fe5b60009182526020909120015467ffffffffffffffff908116908616105b15611df35760009350505050610901565b600060001983015b81811115611e9b578754600283830160010104906000908a9083908110611e1e57fe5b6000918252602090912001805490915067ffffffffffffffff908116908a16811015611e4c57829450611e93565b8067ffffffffffffffff168a67ffffffffffffffff161015611e7357600183039350611e93565b5054600160401b90046001600160c01b0316965061090195505050505050565b505050611dfb565b876000018281548110611eaa57fe5b600091825260209091200154600160401b90046001600160c01b031698975050505050505050565b60006108fe83836040518060400160405280601e81526020017f536166654d6174683a207375627472616374696f6e206f766572666c6f770000815250612331565b60408051808201909152601681527555494e543139325f4e554d4245525f544f4f5f42494760501b60208201526000906001600160c01b038311156119935760405162461bcd60e51b81526004016104f8919061261a565b825480611fdf576040805180820190915267ffffffffffffffff80851682526001600160c01b0380851660208085019182528854600181018a5560008a8152919091209451940180549151909216600160401b0293831667ffffffffffffffff1990911617909116919091179055611be0565b6000846000016001830381548110611ff357fe5b6000918252602090912001805490915067ffffffffffffffff908116908516811015612085576040805180820190915267ffffffffffffffff80871682526001600160c01b0380871660208085019182528a54600181018c5560008c8152919091209451940180549151909216600160401b0293831667ffffffffffffffff1990911617909116919091179055612106565b808567ffffffffffffffff1614156120bb57815467ffffffffffffffff16600160401b6001600160c01b03861602178255612106565b604080518082018252601a81527f434845434b504f494e545f504153545f434845434b504f494e540000000000006020820152905162461bcd60e51b81526104f8919060040161261a565b505050505050565b6001600160a01b0381166000908152602081905260408120548061092c5760408051600481526024810182526020810180516001600160e01b031663313ce56760e01b17905290516000916060916001600160a01b03871691612170916125a2565b600060405180830381855afa9150503d80600081146121ab576040519150601f19603f3d011682016040523d82523d6000602084013e6121b0565b606091505b50915091508180156121c25750805115155b6121de5760405162461bcd60e51b81526004016104f89061280f565b808060200190518101906121f2919061258a565b95945050505050565b612203612394565b600061220e8461210e565b9050601281106122535760408051602081019091528061224861223884601263ffffffff611ed216565b8690600a0a63ffffffff6122c716565b815250915050610901565b60408051602081019091528061228361227360128563ffffffff611ed216565b8690600a0a63ffffffff61228d16565b9052949350505050565b60008261229c57506000610901565b828202828482816122a957fe5b04146108fe5760405162461bcd60e51b81526004016104f8906128c8565b60006108fe83836040518060400160405280601a81526020017f536166654d6174683a206469766973696f6e206279207a65726f00000000000081525061235d565b80518251600091101561231e57506001610901565b8151835110156111505750600019610901565b600081848411156123555760405162461bcd60e51b81526004016104f8919061261a565b505050900390565b6000818361237e5760405162461bcd60e51b81526004016104f8919061261a565b50600083858161238a57fe5b0495945050505050565b6040518060200160405280600081525090565b828054600181600116156101000203166002900490600052602060002090601f016020900481019282601f106123e857805160ff1916838001178555612415565b82800160010185558215612415579182015b828111156124155782518255916020019190600101906123fa565b50612421929150612425565b5090565b61043791905b80821115612421576000815560010161242b565b600060208284031215612450578081fd5b81356108fe81612cbc565b6000806040838503121561246d578081fd5b823561247881612cbc565b9150602083013561248881612cbc565b809150509250929050565b6000806000606084860312156124a7578081fd5b83356124b281612cbc565b925060208401356124c281612cbc565b929592945050506040919091013590565b600080604083850312156124e5578182fd5b82356124f081612cbc565b946020939093013593505050565b60006020828403121561250f578081fd5b815180151581146108fe578182fd5b60006020828403121561252f578081fd5b50919050565b600060208284031215612546578081fd5b6040516020810181811067ffffffffffffffff82111715612565578283fd5b6040529135825250919050565b600060208284031215612583578081fd5b5035919050565b60006020828403121561259b578081fd5b5051919050565b600082516125b4818460208701612c90565b9190910192915050565b6001600160a01b0391909116815260200190565b6001600160a01b039384168152919092166020820152604081019190915260600190565b6001600160a01b03929092168252602082015260400190565b901515815260200190565b6000602082528251806020840152612639816040850160208701612c90565b601f01601f19169190910160400192915050565b6020808252601d908201527f446563696d616c45524332303a207472616e73666572206661696c6564000000604082015260600190565b6020808252601b908201527f536166654d6174683a206164646974696f6e206f766572666c6f770000000000604082015260600190565b6020808252601f908201527f7472616e7366657246726f6d2829206973206e6f7420737570706f7274656400604082015260600190565b6020808252600e908201526d24b73b30b634b21034b7383aba1760911b604082015260600190565b60208082526027908201527f5065727046694f776e61626c65557067726164653a2073616d652061732063616040820152666e64696461746560c81b606082015260800190565b60208082526027908201527f5065727046694f776e61626c65557067726164653a206e6f7420746865206e656040820152663b9037bbb732b960c91b606082015260800190565b6020808252601f908201527f657863656564207374616b654d6f64756c6520616d6f756e74206c696d697400604082015260600190565b60208082526016908201527513995959081d1bc81dda5d1a191c985dc8199a5c9cdd60521b604082015260600190565b60208082526021908201527f446563696d616c45524332303a2067657420646563696d616c73206661696c656040820152601960fa1b606082015260800190565b60208082526021908201527f446563696d616c45524332303a207472616e7366657246726f6d206661696c656040820152601960fa1b606082015260800190565b60208082526018908201527f72656d6f76652077726f6e67207374616b654d6f64756c650000000000000000604082015260600190565b60208082526021908201527f536166654d6174683a206d756c7469706c69636174696f6e206f766572666c6f6040820152607760f81b606082015260800190565b60208082526011908201527029ba34b6361034b71031b7b7b63237bbb760791b604082015260600190565b60208082526022908201527f5065727046694f776e61626c65557067726164653a207a65726f206164647265604082015261737360f01b606082015260800190565b6020808252602e908201527f436f6e747261637420696e7374616e63652068617320616c726561647920626560408201526d195b881a5b9a5d1a585b1a5e995960921b606082015260800190565b6020808252601a908201527f617070726f76652829206973206e6f7420737570706f72746564000000000000604082015260600190565b60208082526021908201527f45524332303a206275726e2066726f6d20746865207a65726f206164647265736040820152607360f81b606082015260800190565b6020808252600e908201526d6e6f207374616b654d6f64756c6560901b604082015260600190565b6020808252600b908201526a0416d6f756e7420697320360ac1b604082015260600190565b6020808252601b908201527f7472616e736665722829206973206e6f7420737570706f727465640000000000604082015260600190565b6020808252600d908201526c1a5b9d985b1a59081a5b9c1d5d609a1b604082015260600190565b60208082526022908201527f446563696d616c45524332303a2062616c616e636520696e636f6e73697374656040820152611b9d60f21b606082015260800190565b6020808252602f908201527f5065727046694f776e61626c65557067726164653a2063616e6469646174652060408201526e6973207a65726f206164647265737360881b606082015260800190565b6020808252602d908201527f5065727046694f776e61626c65557067726164653a2063616c6c65722069732060408201526c3737ba103a34329037bbb732b960991b606082015260800190565b6020808252601a908201527f7374616b654d6f64756c6520646f6573206e6f74206578697374000000000000604082015260600190565b60208082526026908201527f5065727046694f776e61626c65557067726164653a2073616d65206173206f726040820152651a59da5b985b60d21b606082015260800190565b6020808252601f908201527f45524332303a206d696e7420746f20746865207a65726f206164647265737300604082015260600190565b90815260200190565b60ff91909116815260200190565b60005b83811015612cab578181015183820152602001612c93565b83811115611be05750506000910152565b6001600160a01b038116811461118157600080fdfea2646970667358221220e2b1cd7d2bb2019c2958982eaf27d22af8c1499f2e7a671bc07b72566c43b29064736f6c63430006090033",
  "linkReferences": {},
  "deployedLinkReferences": {}
}